:100000000C9420010C9448010C9448010C94480174
:100010000C9448010C9448010C9448010C9448013C
:100020000C9448010C9448010C9448010C9448012C
:100030000C9448010C9448010C9448010C9448011C
:100040000C949A050C9448010C940A060C94E4054F
:100050000C9448010C9448010C9448010C944801FC
:100060000C9448010C9448015F5F5F5F5F5F5F5FC6
:100070005F5F5F5F5F5F5F5F5F5F5F5F5F5F5F5F90
:100080005F5F5F5F5F5F5F0A0A2020204720652077
:100090006120722020204D2061206320682069208B
:1000A0006E206520202020200A5F5F5F5F5F5F5F1A
:1000B0005F5F5F5F5F5F5F5F5F5F5F5F5F5F5F5F50
:1000C0005F5F5F5F5F5F5F5F0A0A4D61646520622B
:1000D00079204B4420546563686E6F6C6F67790AB2
:1000E0000A00000000000000000000000000000006
:1000F00000000000000000000000010101010101FA
:1001000001010101010102020202020202020303D3
:100110000303030304040404050505050506060698
:10012000060707070808080909090A0A0A0B0B0B42
:100130000C0C0D0D0D0E0E0F0F10101111121213CD
:100140001314141515161617181819191A1B1B1C39
:100150001D1D1E1F1F20212222232425262627287D
:10016000292A2A2B2C2D2E2F303132333435363795
:1001700038393A3B3C3D3E3F404142444546474882
:10018000494B4C4D4E50515254555658595A5C5D3E
:100190005E606163646667696A6C6D6F70727375C7
:1001A00077787A7C7D7F8182848688898B8D8F9118
:1001B000929496989A9C9EA0A2A4A6A8AAACAEB02F
:1001C000B2B4B6B8BABCBFC1C3C5C7CACCCED1D30E
:1001D000D5D7DADCDFE1E3E6E8EBEDF0F2F5F7FAAC
:1001E000FCFF00000000240027002A00000000009F
:1001F000230026002900000000080002010000037F
:1002000004070000000000000000010204081020A4
:1002100040800102040810200102040810200000A0
:100220000000250028002B00040404040404040436
:100230000202020202020303030303033C06460B0D
:1002400011241FBECFEFD8E0DEBFCDBF11E0A0E08C
:10025000B1E0E2E8FAE102C005900D92A632B107E2
:10026000D9F722E0A6E2B1E001C01D92AF32B20799
:10027000E1F711E0CFE1D1E004C02197FE010E9437
:10028000010CCE31D107C9F70E947E070C94340DC2
:100290000C9400008F929F92AF92BF92CF92DF9208
:1002A000EF92FF92CF93DF932091170230911802C3
:1002B0008217930708F057C04B01AA24BB24F82DDE
:1002C000C52ED62EE72EFF24AC2DE42F20911D0243
:1002D000222361F0829E40011124F92D2C9D6001A2
:1002E0001124AD2D249FE0011124ED2F3091230224
:1002F000B0912002E0901E02F0901F023B1308C054
:100300009C01220F331F820F931F8E0D9F1D19C05A
:10031000880F991F880F991F8E0D9F1D472F5527F6
:1003200066277727EC01C30FD11D222349F030E067
:10033000249F7001259FF00C349FF00C11244F2D49
:10034000488320912002EC01C20FD11DF883209137
:100350002102EC01C20FD11DA88320912202DC01F1
:10036000A20FB11DEC93DF91CF91FF90EF90DF9042
:10037000CF90BF90AF909F908F900895833081F081
:1003800028F4813099F08230A1F008958730A9F0E7
:100390008830B9F08430D1F4809180008F7D03C023
:1003A000809180008F7780938000089584B58F7747
:1003B00002C084B58F7D84BD08958091B0008F7791
:1003C00003C08091B0008F7D8093B0000895CF93DB
:1003D000DF93282F30E0F901EA50FE4F8491F901B4
:1003E000E65FFD4FD491F901E85DFD4FC491CC2348
:1003F00091F081110E94BE01EC2FF0E0EE0FFF1F83
:10040000E451FE4FA591B491EC91ED2381E090E091
:1004100021F480E002C080E090E0DF91CF91089568
:100420001F93CF93DF93282F30E0F901EA50FE4F5E
:100430008491F901E65FFD4FD491F901E85DFD4F2C
:10044000C491CC23C1F0162F81110E94BE01EC2F64
:10045000F0E0EE0FFF1FE25EFD4FA591B4919FB754
:10046000F894111104C08C91D095D82302C0EC915E
:10047000DE2BDC939FBFDF91CF911F910895CF9327
:10048000DF9390E0FC01E65FFD4F2491FC01E85D05
:10049000FD4F8491882361F190E0880F991FFC0142
:1004A000EE51FE4FC591D491FC01E25EFD4FA59146
:1004B000B491611109C09FB7F89488812095822377
:1004C0008883EC912E230BC0623061F49FB7F894BF
:1004D0008881322F309583238883EC912E2B2C93A7
:1004E0009FBF06C08FB7F894E8812E2B28838FBF5B
:1004F000DF91CF9108953FB7F89480912E019091AC
:100500002F01A0913001B091310126B5A89B05C003
:100510002F3F19F00196A11DB11D3FBFBA2FA92F82
:10052000982F8827820F911DA11DB11DBC01CD01FF
:1005300042E0660F771F881F991F4A95D1F70895EB
:100540000F931F93CF93DF93CDB7DEB729970FB6E5
:10055000F894DEBF0FBECDBF80911E0290911F02A6
:10056000892B09F4A2C00E947B0200912402109101
:1005700025022091260230912702DC01CB01801B4D
:10058000910BA20BB30B8C329140A105B10558F32E
:10059000F8948091190290911A029A838983E091CC
:1005A0001E02F0911F02DF011196808189879091D0
:1005B0001502E0912802F091290280912A029923E4
:1005C00009F42EC09081982B98879081809589237B
:1005D0008F838F818C8388E08B8358856F814985D9
:1005E0003B812C8189819A81508347FD252F3A9543
:1005F0002083262F39F0441F00C0000060830000D4
:1006000000C0F2CF38E04D9160830000019761F7A0
:10061000F0932902E093280249873B832C8338C05A
:100620009081982B98879081809589238F838F81E3
:100630008E8388E08D8358856F8149853D812E8129
:1006400089819A81508347FD252F00C000C02083F7
:1006500000C000C000C000C000C060830000262FA2
:100660003A9541F0441F000000C000C000C000C027
:1006700000C0E8CF38E04D9100C0608300C0019712
:1006800009F7F0932902E093280249873D832E83DE
:100690009A83898378940E947B02609324027093EA
:1006A0002502809326029093270229960FB6F8948C
:1006B000DEBF0FBECDBFDF91CF911F910F91089587
:1006C0002FB7F89460912A0170912B0180912C0131
:1006D00090912D012FBF0895CF92DF92EF92FF925C
:1006E0000F931F93CF93DF936C017A018B01C0E0CE
:1006F000D0E0CE15DF0581F0D8016D918D01D601D6
:10070000ED91FC910190F081E02DC6010995892BB6
:1007100011F02196EECF7E01C701DF91CF911F919D
:100720000F91FF90EF90DF90CF900895089580E0B3
:1007300090E00895FC01538D448D252F30E0842FE7
:1007400090E0821B930B541710F0CF9608950197F9
:100750000895FC01918D828D981761F0828DDF01E3
:10076000A80FB11D5D968C91928D9F5F9F73928FA4
:1007700090E008958FEF9FEF0895FC01918D828D99
:10078000981731F0828DE80FF11D858D90E0089566
:100790008FEF9FEF0895FC01918D228D892F90E0BE
:1007A000805C9F4F821B91098F739927089586E380
:1007B00091E00E94CB0321E0892B09F420E0822FF5
:1007C0000895FC01848DDF01A80FB11DA35ABF4F0E
:1007D0002C91848D90E001968F739927848FA68940
:1007E000B7892C93A089B1898C91837080648C9394
:1007F000938D848D981306C00288F389E02D808143
:100800008F7D80830895EF92FF920F931F93CF9374
:10081000DF93EC0181E0888F9B8D8C8D981305C050
:10082000E889F989808185FD26C0F62E0B8D10E0C0
:100830000F5F1F4F0F731127E02E8C8DE8120CC035
:100840000FB607FCFACFE889F989808185FFF5CFDB
:10085000CE010E94E103F1CF8B8DFE01E80FF11D67
:10086000E35AFF4FF0829FB7F8940B8FEA89FB8918
:10087000808180620AC09FB7F894EE89FF89608307
:10088000E889F98980818370806480839FBF81E0DB
:1008900090E0DF91CF911F910F91FF90EF9008951D
:1008A000CF93DF93EC01888D8823C9F0EA89FB8917
:1008B000808185FD05C0A889B9898C9186FD0FC00E
:1008C0000FB607FCF5CF808185FFF2CFA889B989E3
:1008D0008C9185FFEDCFCE010E94E103E7CFDF9140
:1008E000CF91089580E090E0892B29F00E94D703F2
:1008F00081110C9400000895DC015996ED91FC9152
:100900005A97309709F009940895CF92DF92EF92A9
:10091000FF92CF93DF93EC01CD80DE80EF80F884EF
:100920000E9460036C157D058E059F05D8F08881B7
:100930000E94E7012B8130E08217930799F00E9413
:10094000600329813A81DC01CB01820F931FA11D35
:10095000B11D8D839E83AF83B8878B8191E08927FA
:100960008B839C838B81DF91CF91FF90EF90DF9001
:10097000CF900895CF93DF93EC010E9485048111FD
:1009800005C08C81882319F01C8201C080E0DF91B2
:10099000CF9108958F929F92AF92BF92CF92DF92A4
:1009A000EF92FF926B017C010E9460034B015C019E
:1009B0000E946003DC01CB0188199909AA09BB09CF
:1009C0008C159D05AE05BF0598F3FF90EF90DF9065
:1009D000CF90BF90AF909F908F900895CF92DF926D
:1009E000EF92FF920F931F93CF93DF93082F8C31D9
:1009F00031F0803331F08C3331F0CCE105C0C0E30D
:100A000003C0CCE301C0C0E40E946003C090320187
:100A1000D0903301E0903401F0903501DC01CB013E
:100A20008C199D09AE09BF09C15010E0C397A105FB
:100A3000B105E0F00E9460036093320170933301CE
:100A40008093340190933501DC2F8D2F0D2E000CF7
:100A5000990B8017910754F040E050E06FEF70E081
:100A60000E944A010E94A002D150EFCF68EE73E0CD
:100A700080E090E00E94CA048C2F0C2E000C990B91
:100A8000801791074CF040E050E0BA010E944A0103
:100A90000E94A002C150F0CFDF91CF911F910F9122
:100AA000FF90EF90DF90CF900895CF93DF93C82F02
:100AB0008C3119F4109226010DC0803311F48CE1B1
:100AC00007C08C3311F480E303C0803419F48CE345
:100AD00080932601D0912601DC1790F44FEF50E06F
:100AE00060E070E08D2F90E00E944A010E94A00219
:100AF00062E370E080E090E00E94CA04DF5FECCF28
:100B0000DF91CF910895E5E1F2E04481558160E005
:100B100070E0818592850E942D0D0E94A0021092A6
:100B2000280184E08093270160E087E00C941002A4
:100B30000E94280D1F920F920FB60F9211242F932F
:100B40003F938F939F93AF93BF9380912A0190918E
:100B50002B01A0912C01B0912D013091290123E0AE
:100B6000230F2D3720F40196A11DB11D05C026E8E5
:100B7000230F0296A11DB11D2093290180932A0104
:100B800090932B01A0932C01B0932D0180912E0105
:100B900090912F01A0913001B09131010196A11DDA
:100BA000B11D80932E0190932F01A0933001B0933B
:100BB0003101BF91AF919F918F913F912F910F90F4
:100BC0000FBE0F901F9018951F920F920FB60F92A5
:100BD00011242F933F934F935F936F937F938F9342
:100BE0009F93AF93BF93EF93FF9386E391E00E94AF
:100BF000E103FF91EF91BF91AF919F918F917F9111
:100C00006F915F914F913F912F910F900FBE0F9079
:100C10001F9018951F920F920FB60F9211242F93C9
:100C20008F939F93EF93FF93E0914601F0914701DB
:100C30008081E0914C01F0914D0182FD12C09081C4
:100C400080914F018F5F8F7320915001821751F077
:100C5000E0914F01F0E0EA5CFE4F958F80934F01E9
:100C600001C08081FF91EF919F918F912F910F9003
:100C70000FBE0F901F9018951092390110923801F5
:100C800088EE93E0A0E0B0E080933A0190933B01BE
:100C9000A0933C01B0933D018FE091E09093370128
:100CA0008093360185EC90E090934301809342015C
:100CB00084EC90E0909345018093440120EC30E077
:100CC000309347012093460181EC90E090934901D5
:100CD0008093480182EC90E090934B0180934A010D
:100CE00086EC90E090934D0180934C0110924F015F
:100CF000109250011092510110925201109216025E
:100D000010921D02109224021092250210922602C7
:100D10001092270281E08093230280932002109298
:100D2000210292E0909322028093150230931A02DE
:100D30002093190280EC90E00E94070C90931F0210
:100D400080931E02009761F020ECFC0111922A951D
:100D5000E9F780E490E0909318028093170208C0AE
:100D600010921A0210921902109218021092170291
:100D700086E090E090931C0280931B028091160203
:100D8000882341F061E086E00E943F0260E086E057
:100D90000E941002EEE2F2E0E491F0E0EE0FFF1F9D
:100DA000E25EFD4F859194919093290280932802F1
:100DB000E0E1F2E0E491E0932A0285E080930C0206
:100DC00024EF31E030930E0220930D0281E08093F6
:100DD0000F02109210021092110210921202109241
:100DE00013021092140294E09093030230930502D0
:100DF00020930402809306021092070210920802C8
:100E00001092090210920A0210920B0298E090933D
:100E1000FA013093FC012093FB018093FD011092B5
:100E2000FE011092FF011092000210920102109236
:100E3000020221E231E03093E0012093DF011092C1
:100E4000E1011092E2011092E3011092E40110928C
:100E5000E5011092E6011092E7011092E80110926C
:100E6000EB011092EC011092ED011092EE01109244
:100E7000EF011092F0011092F1011092F2012FEFA8
:100E80003FEF3093F4012093F3011092E9011092A7
:100E9000EA011092F7011092F9011092F801909175
:100EA000D70191110AC01092D6011092D50110926B
:100EB000D4011092D3018093D70184E090E00E9486
:100EC000070CFC01118210822FED31E03383228365
:100ED000E091D501F091D601309749F49093D60175
:100EE0008093D5019093D4018093D3010895918389
:100EF00080839093D6018093D5010895CF93DF939B
:100F000000D000D000D0CDB7DEB7789484B5826031
:100F100084BD84B5816084BD85B5826085BD85B59D
:100F2000816085BD80916E00816080936E0010921B
:100F30008100809181008260809381008091810096
:100F40008160809381008091800081608093800027
:100F50008091B10084608093B1008091B000816085
:100F60008093B00080917A00846080937A008091B1
:100F70007A00826080937A0080917A008160809309
:100F80007A0080917A00806880937A001092C10084
:100F9000E0914601F091470182E08083E0914201B7
:100FA000F09143011082E0914401F091450180E10C
:100FB000808310924E01E0914A01F0914B0186E04E
:100FC0008083E0914801F0914901808180618083B4
:100FD000E0914801F0914901808188608083E0912F
:100FE0004801F0914901808180688083E091480147
:100FF000F091490180818F7D808361E086E00E94CD
:101000003F0260E085E00E943F0260E084E00E94D1
:101010003F0260E088E00E943F0260E08AE00E94B8
:101020003F0260E089E00E943F0261E087E00E94A9
:101030003F0260E087E00E94100262E080910C02B3
:101040000E943F0262E0809103020E943F0262E040
:101050008091FA010E943F0283E895E09093F901A4
:101060008093F80180ED97E0A0E0B0E08093EB0181
:101070009093EC01A093ED01B093EE0181E090E03C
:101080009093F4018093F3019093F6018093F5011E
:101090008093F70180911B0290911C0297FD08C07C
:1010A00061E00E943F0260E080911B020E941002FA
:1010B00081E0809316020E94A00260911D02693CAB
:1010C00021F120911E0230911F02615031F070E039
:1010D0008FEF98EC0E949D0B02C060E070E0F90178
:1010E0004091190250911A02CF01821B930B841771
:1010F000950740F44081469FC001479F900D112401
:101100009193EECF89EC80931D0208E610E0F80180
:10111000649161110DC042E050E063E271E086E34A
:1011200091E00E946C035E01F5E0AF0EB11C4DC072
:1011300086E391E00E9403040F5F1F4F892B39F76C
:10114000EACF89E00E94E701892B09F445C0F090BD
:10115000280121E0F21609F4A7C02F150CF492C063
:10116000FF2009F498C08CE092E00E94BA0481113B
:10117000CCC083E092E00E94BA048111D1C080917A
:101180002801823009F4F5C00CF0D5C0882309F499
:10119000D7C0813009F4DEC08091D70181110BC026
:1011A0001092D6011092D5011092D4011092D30161
:1011B00081E08093D701E090D301F090D401E11455
:1011C000F10409F016C20E9472048AE00E94E7014D
:1011D000892B09F4B6CFBBCF8AEF91E00E9485043A
:1011E000882309F4B4CF06E011E07801D7015D90BF
:1011F0007D01F7018081581660F44FEF50E060E008
:1012000070E0852D90E00E944A010E94A002539454
:10121000F0CF6AEF70E080E090E00E94CA04FAE04C
:10122000EF16F1E0FF0611F7D8011496FC90FA943E
:101230008F2D0F2C000C990BF801238130E08217C1
:10124000930744F040E050E0BA010E944A010E9436
:10125000A002EDCF6AEF70E080E090E00E94CA0447
:1012600001501109F1E002301F07F1F68AEF91E019
:101270000E9485048091FE01882309F4A6CF109274
:10128000FE0165CF42E0F41601F183E0F8126BCF66
:1012900000E010E02BC080912701813009F063CF7E
:1012A00080E00E94EE045FCF00E010E04FEF50E0DE
:1012B00060E070E0C8010E944A010E94A0020F5F36
:1012C0001F4F0C31110591F74ECF00E010E04FEFAA
:1012D00050E060E070E0C8010E944A010E94A00254
:1012E0000F5F1F4F0033110591F73DCF4FEF50E0D7
:1012F00060E070E0C8010E944A010E94A0020F5FF6
:101300001F4F0C33110591F72ECF81E08F0D8430E4
:101310001CF4809328012DCF94E09093280129CFCD
:1013200080912801815018161CF48093280127CF42
:101330001092280124CF833059F18430D1F12CCF81
:1013400080912701813019F480E00E94EE04109210
:10135000270122CF80912701811104C08CE10E94D6
:10136000550505C0823019F48CE10E94EE0481E03D
:101370001DC080912701813021F480E30E94550532
:1013800005C0833019F480E30E94EE0482E00EC0B1
:1013900080912701823021F48CE30E94550505C01D
:1013A000843019F48CE30E94EE0483E080932701DB
:1013B000F3CE61E087E00E9410028091EA01882369
:1013C00009F440C00E9460032091E5013091E601DC
:1013D0008B01021B130B0E9460036093E501709365
:1013E000E6018093E7019093E801012E000C220BA7
:1013F000330B8091E1019091E201A091E301B09162
:10140000E401800F911FA21FB31F8093E10190930D
:10141000E201A093E301B093E4018091EF01909188
:10142000F001A091F101B091F201080F191F2A1FDC
:101430003B1F0093EF011093F0012093F1013093D3
:10144000F20122C00E9460036093E1017093E20107
:101450008093E3019093E4016093E5017093E601CA
:101460008093E7019093E8016093EF017093F0019E
:101470008093F1019093F2018091F5019091F60132
:101480009093F4018093F30181E08093E90110923D
:10149000EA01212C312C21017EEFE72EF12CAF2D1A
:1014A000B0E0BE83AD832091170230911802A217DD
:1014B000B30708F090C08F2D90E0A0E0B0E0772750
:1014C000662740E050E00E94B10B220D331DAAEFC9
:1014D000B5E00E94D00BDC01CB019058AF4FBF4F5D
:1014E000CD01BB2797FDB095AB2F8E3FE1E09E0766
:1014F00058F48F3F910518F4682F80E028C09E2D86
:10150000981B80E06FEF24C08C3FF3E09F0760F4EE
:101510008D3F42E0940718F48E5F6FEF03C06CEFCD
:10152000681B8FEF90E014C08A3FE5E09E0769F0EA
:101530008B3FF4E09F0728F494E0980F8FEF60E072
:1015400007C02AEF281B822F01C080E060E09FEFD8
:10155000692E712C862E912CC82ED12CC401A0E0AE
:10156000B0E0BA2FA92F982F88278827AA27BB2752
:10157000A60160E070E08C019D01042B152B262B49
:10158000372BC301A0E0B0E0DC0199278827AC012C
:10159000BD01442755277727D901C801842B952BF6
:1015A000A62BB72B89839A83AB83BC83DE0111966C
:1015B000EC91F0E0EE51FF4FE491ED93AA16BB06DB
:1015C000B9F749815A816B817C818D819E810E940E
:1015D0004A01F39464CF0E94A0024FEF341A440AE8
:1015E000540A2114310485E04806510409F056CF0D
:1015F000D3CDD70112960D911C911397F8018285D6
:10160000882309F43FC00E946003D80116966D93A9
:101610007D938D939C93199758962C9158972223DC
:1016200089F150962D913D914D915C915397DC013C
:10163000CB01821B930BA40BB50BF80124853585D8
:101640004685578582179307A407B507D8F0848984
:101650009589009719F41286138614C00197958B0B
:10166000848B0190F081E02D0190F081E02DC80184
:101670000995F80186819781A085B185808B918B32
:10168000A28BB38BD701ED90FC9099CD81E291E0D4
:101690009093E0018093DF018091D70181110BC00D
:1016A0001092D6011092D5011092D4011092D3015C
:1016B00081E08093D7018091D3019091D401FC0106
:1016C000A0E0B0E0309749F1228133812F5D3140B5
:1016D000F9F4109729F02081318111963C932E93D3
:1016E0002091D5013091D601E217F30721F4B09390
:1016F000D601A093D5018E179F0731F48081918187
:101700009093D4018093D301CF010E949F0C05C018
:10171000DF010190F081E02DD5CF80911E029091E4
:101720001F020E949F0C80911B0290911C0297FD4A
:1017300003C060E00C943F020895AA1BBB1B51E15B
:1017400007C0AA1FBB1FA617B70710F0A61BB70B31
:10175000881F991F5A95A9F780959095BC01CD01D6
:101760000895052E97FB1EF400940E94C80B57FDA8
:1017700007D00E94DF0B07FC03D04EF40C94C80B7B
:1017800050954095309521953F4F4F4F5F4F0895AD
:1017900090958095709561957F4F8F4F9F4F0895DD
:1017A000A29FB001B39FC001A39F700D811D1124A2
:1017B000911DB29F700D811D1124911D0895A1E20C
:1017C0001A2EAA1BBB1BFD010DC0AA1FBB1FEE1FBB
:1017D000FF1FA217B307E407F50720F0A21BB30B06
:1017E000E40BF50B661F771F881F991F1A9469F782
:1017F00060957095809590959B01AC01BD01CF01DE
:101800000895EE0FFF1F0590F491E02D09940F93BA
:101810001F93CF93DF938230910510F482E090E024
:10182000E0912D02F0912E0220E030E0A0E0B0E047
:10183000309719F14081518102811381481759076E
:10184000C8F08417950769F4109731F012960C933D
:10185000129713961C9327C000932D0210932E020B
:1018600022C02115310519F04217530718F49A01C7
:10187000BD01EF01DF01F801DBCF21153105F9F0E2
:10188000281B390B2430310580F48A819B81611536
:10189000710521F0FB019383828304C090932E0293
:1018A00080932D02FE01329644C0FE01E20FF31F29
:1018B0008193919322503109398328833AC0209132
:1018C0002B0230912C02232B41F420910201309104
:1018D000030130932C0220932B02209100013091C0
:1018E00001012115310541F42DB73EB740910401A6
:1018F00050910501241B350BE0912B02F0912C0235
:10190000E217F307A0F42E1B3F0B2817390778F0D6
:10191000AC014E5F5F4F2417350748F04E0F5F1F35
:1019200050932C0240932B028193919302C0E0E0EC
:10193000F0E0CF01DF91CF911F910F910895CF93E8
:10194000DF93009709F481C0FC0132971382128261
:10195000A0912D02B0912E02109781F42081318147
:10196000820F931F20912B0230912C0228173907E8
:1019700051F5F0932C02E0932B0267C0ED0120E0BB
:1019800030E0CE17DF0740F44A815B819E014115AC
:101990005105F1F0EA01F5CFD383C2834081518133
:1019A000840F951FC817D90759F488819981840F2E
:1019B000951F0296918380838A819B819383828382
:1019C0002115310529F4F0932E02E0932D023DC03C
:1019D000E901FB83EA8349915991C40FD51FEC17A4
:1019E000FD0761F480819181840F951F0296E901C2
:1019F00099838883828193819B838A83E0E0F0E0EE
:101A000012968D919C911397009719F0FD01DC01BE
:101A1000F7CF8D919C9111979D012E5F3F4F820FC3
:101A2000931F20912B0230912C022817390769F45B
:101A3000309729F410922E0210922D0202C01382C8
:101A40001282B0932C02A0932B02DF91CF910895C4
:101A500081E090E0F8940C94340DDC0101C06D93AA
:101A600041505040E0F7089511E0CFE1D1E004C0CB
:101A7000FE010E94010C2196C032D107C9F7F894EB
:021A8000FFCF96
:101A820000002F028000001C303C400000000003D8
:101A9200046C039A035004CB03A903BD03000000A6
:061AA200007C040D0A00A7
:00000001FF
