:100000000C94A0000C94C8000C94C8000C94C80078
:100010000C94C8000C94C8000C94C8000C94C80040
:100020000C94C8000C94C8000C94C8000C94C80030
:100030000C94C8000C94C8000C94C8000C94C80020
:100040000C94F3040C94C8000C9463050C943D05C7
:100050000C94C8000C94C8000C94C8000C94C80000
:100060000C94C8000C94C8005F5F5F5F5F5F5F5FC8
:100070005F5F5F5F5F5F5F5F5F5F5F5F5F5F5F5F90
:100080005F5F5F5F5F5F5F0A0A2020204720652077
:100090006120722020204D2061206320682069208B
:1000A0006E206520202020200A5F5F5F5F5F5F5F1A
:1000B0005F5F5F5F5F5F5F5F5F5F5F5F5F5F5F5F50
:1000C0005F5F5F5F5F5F5F5F0A0A4D61646520622B
:1000D00079204B4420546563686E6F6C6F67790AB2
:1000E0000A0000000000240027002A000000000091
:1000F0002300260029000000000800020100000380
:1001000004070000000000000000010204081020A5
:1001100040800102040810200102040810200000A1
:100120000000250028002B00040404040404040437
:100130000202020202020303030303033C06C70593
:1001400011241FBECFEFD8E0DEBFCDBF11E0A0E08D
:10015000B1E0E2E8F5E102C005900D92A433B107E9
:10016000D9F722E0A4E3B1E001C01D92A435B207A3
:10017000E1F710E0CFE9D0E004C02197FE010E9432
:100180008109CE39D107C9F70E9420070C94B40A1F
:100190000C9400008F929F92AF92BF92CF92DF9209
:1001A000EF92FF92CF93DF934B01AA24BB24F82D4B
:1001B000C52ED62EE72EFF24AC2DE42F209142022F
:1001C000222361F0829E40011124F92D2C9D6001B3
:1001D0001124AD2D249FE0011124ED2F3091480210
:1001E000B0914502E0904302F09044023B1308C0F6
:1001F0009C01220F331F820F931F8E0D9F1D19C06C
:10020000880F991F880F991F8E0D9F1D472F552707
:1002100066277727EC01C30FD11D222349F030E078
:10022000249F7001259FF00C349FF00C11244F2D5A
:10023000488320914502EC01C20FD11DF883209123
:100240004602EC01C20FD11DA88320914702DC01B8
:10025000A20FB11DEC93DF91CF91FF90EF90DF9053
:10026000CF90BF90AF909F908F900895833081F092
:1002700028F4813099F08230A1F008958730A9F0F8
:100280008830B9F08430D1F4809180008F7D03C034
:10029000809180008F7780938000089584B58F7758
:1002A00002C084B58F7D84BD08958091B0008F77A2
:1002B00003C08091B0008F7D8093B0000895CF93EC
:1002C000DF93282F30E0F901EA50FF4F8491F901C4
:1002D000E65FFE4FD491F901E85DFE4FC491CC2357
:1002E00091F081110E943601EC2FF0E0EE0FFF1F1C
:1002F000E25EFE4FA591B4919FB7F8948C91D09592
:10030000D823DC939FBFDF91CF910895CF93DF93E4
:10031000282F30E0F901EA50FF4F8491F901E65FA0
:10032000FE4FD491F901E85DFE4FC491CC2391F0CA
:1003300081110E943601EC2FF0E0EE0FFF1FE45117
:10034000FF4FA591B491EC91ED2381E090E021F471
:1003500080E002C080E090E0DF91CF910895CF93DC
:10036000DF9390E0FC01E65FFE4F2491FC01E85D25
:10037000FE4F8491882361F190E0880F991FFC0162
:10038000EE51FF4FC591D491FC01E25EFE4FA59165
:10039000B491611109C09FB7F89488812095822398
:1003A0008883EC912E230BC0623061F49FB7F894E0
:1003B0008881322F309583238883EC912E2B2C93C8
:1003C0009FBF06C08FB7F894E8812E2B28838FBF7C
:1003D000DF91CF9108953FB7F894809148019091B3
:1003E0004901A0914A01B0914B0126B5A89B05C0D7
:1003F0002F3F19F00196A11DB11D3FBFBA2FA92FA4
:10040000982F8827820F911DA11DB11DBC01CD0120
:1004100042E0660F771F881F991F4A95D1F708950C
:100420000F931F93CF93DF93CDB7DEB729970FB606
:10043000F894DEBF0FBECDBF80914302909144027D
:10044000892B09F4A2C00E94EB010091490210918E
:100450004A0220914B0230914C02DC01CB01801BFF
:10046000910BA20BB30B8C329140A105B10558F34F
:10047000F89480913E0290913F029A838983E091A3
:100480004302F0914402DF011196808189879091A7
:100490003A02E0914D02F0914E0280914F02992371
:1004A00009F42EC09081982B98879081809589239C
:1004B0008F838F818C8388E08B8358856F814985FA
:1004C0003B812C8189819A81508347FD252F3A9564
:1004D0002083262F39F0441F00C0000060830000F5
:1004E00000C0F2CF38E04D9160830000019761F7C2
:1004F000F0934E02E0934D0249873B832C8338C032
:100500009081982B98879081809589238F838F8104
:100510008E8388E08D8358856F8149853D812E814A
:1005200089819A81508347FD252F00C000C0208318
:1005300000C000C000C000C000C060830000262FC3
:100540003A9541F0441F000000C000C000C000C048
:1005500000C0E8CF38E04D9100C0608300C0019733
:1005600009F7F0934E02E0934D0249873D832E83B5
:100570009A83898378940E94EB0160934902709377
:100580004A0280934B0290934C0229960FB6F8943E
:10059000DEBF0FBECDBFDF91CF911F910F910895A8
:1005A0002FB7F89460914401709145018091460104
:1005B000909147012FBF0895CF92DF92EF92FF9263
:1005C0000F931F93CF93DF936C017A018B01C0E0EF
:1005D000D0E0CE15DF0581F0D8016D918D01D601F7
:1005E000ED91FC910190F081E02DC6010995892BD8
:1005F00011F02196EECF7E01C701DF91CF911F91BF
:100600000F91FF90EF90DF90CF900895089580E0D4
:1006100090E00895FC01538D448D252F30E0842F08
:1006200090E0821B930B541710F0CF96089501971A
:100630000895FC01918D828D981761F0828DDF0104
:10064000A80FB11D5D968C91928D9F5F9F73928FC5
:1006500090E008958FEF9FEF0895FC01918D828DBA
:10066000981731F0828DE80FF11D858D90E0089587
:100670008FEF9FEF0895FC01918D228D892F90E0DF
:10068000805C9F4F821B91098F73992708958CE49A
:1006900091E00E943B0321E0892B09F420E0822FA6
:1006A0000895FC01848DDF01A80FB11DA35ABF4F2F
:1006B0002C91848D90E001968F739927848FA68961
:1006C000B7892C93A089B1898C91837080648C93B5
:1006D000938D848D981306C00288F389E02D808164
:1006E0008F7D80830895EF92FF920F931F93CF9396
:1006F000DF93EC0181E0888F9B8D8C8D981305C072
:10070000E889F989808185FD26C0F62E0B8D10E0E1
:100710000F5F1F4F0F731127E02E8C8DE8120CC056
:100720000FB607FCFACFE889F989808185FFF5CFFC
:10073000CE010E945103F1CF8B8DFE01E80FF11D18
:10074000E35AFF4FF0829FB7F8940B8FEA89FB8939
:10075000808180620AC09FB7F894EE89FF89608328
:10076000E889F98980818370806480839FBF81E0FC
:1007700090E0DF91CF911F910F91FF90EF9008953E
:10078000CF93DF93EC01888D8823C9F0EA89FB8938
:10079000808185FD05C0A889B9898C9186FD0FC02F
:1007A0000FB607FCF5CF808185FFF2CFA889B98904
:1007B0008C9185FFEDCFCE010E945103E7CFDF91F1
:1007C000CF91089580E090E0892B29F00E944703A3
:1007D00081110C940000089580913A0181110BC0A1
:1007E000109239011092380110923701109236019F
:1007F00081E080933A0186E391E00895DC01599607
:10080000ED91FC915A97309709F009940895CF9390
:10081000C0910001CF3F99F5E09135010E2E000CFB
:10082000FF0BE95FFE4F808181508093340120915E
:100830003401E0913501022E000C330B0E2E000C1A
:10084000FF0BEA5FFE4F808190E0281739070CF418
:1008500083C080913401082E000C990B20913C023A
:1008600030913D028217930728F440E050E0BA012E
:100870000E94CA000E94100280913401D5CF80915D
:10088000350183309CF5E09135010E2E000CFF0BF5
:10089000E95FFE4F80818093340120913401E09123
:1008A0003501022E000C330B0E2E000CFF0BE95FFE
:1008B000FE4F818190E028173907C4F480913401FC
:1008C000082E000C990B20913C0230913D028217BA
:1008D000930730F44FEF50E060E070E00E94CA00F0
:1008E0000E941002809134018F5FD5CF8091350135
:1008F000833091F5E09135010E2E000CFF0BE95F7E
:10090000FE4F80818093340120913401E0913501C4
:10091000022E000C330B0E2E000CFF0BE95FFE4F76
:10092000818190E028173907BCF480913401082EAA
:10093000000C990B20913C0230913D0282179307E5
:1009400028F44FEF50E0BA010E94CA000E94100242
:10095000809134018F5FD6CF809135018C0F8093C9
:10096000350180913501181624F4809135018430C9
:100970001CF0C195C0930001CF910895EAE3F2E025
:100980004481558160E070E0818592850E94AD0AC6
:100990000E94100287E00C945F0142E050E064E2A4
:1009A00071E08CE491E00C94DC02CF93DF9300972C
:1009B00079F0FC0101900020E9F73197AF01481B65
:1009C000590BBC018CE491E00E94DC02EC0102C0F6
:1009D000C0E0D0E00E94CD048C0F9D1FDF91CF912D
:1009E00008950E94A80A1F920F920FB60F92112429
:1009F0002F933F938F939F93AF93BF938091440125
:100A000090914501A0914601B09147013091430179
:100A100023E0230F2D3720F40196A11DB11D05C041
:100A200026E8230F0296A11DB11D20934301809358
:100A3000440190934501A0934601B09347018091F2
:100A4000480190914901A0914A01B0914B01019652
:100A5000A11DB11D8093480190934901A0934A01C3
:100A6000B0934B01BF91AF919F918F913F912F9187
:100A70000F900FBE0F901F9018951F920F920FB6F8
:100A80000F9211242F933F934F935F936F937F9314
:100A90008F939F93AF93BF93EF93FF938CE491E079
:100AA0000E945103FF91EF91BF91AF919F918F9160
:100AB0007F916F915F914F913F912F910F900FBE5A
:100AC0000F901F9018951F920F920FB60F9211243E
:100AD0002F938F939F93EF93FF93E0915C01F0919D
:100AE0005D018081E0916201F091630182FD12C09D
:100AF0009081809165018F5F8F73209166018217CD
:100B000051F0E0916501F0E0E45BFE4F958F80933A
:100B1000650101C08081FF91EF919F918F912F918D
:100B20000F900FBE0F901F901895CF93DF93EC019D
:100B300088819981FC01A0E0B0E0309721F1228109
:100B4000338126173707D1F4109729F0208131819E
:100B500011963C932E932A813B81E217F30711F4FF
:100B6000BB83AA838E179F0721F48081918199838B
:100B70008883CF010E941F0A81E006C0DF01019037
:100B8000F081E02DDACF80E0DF91CF910895CF930F
:100B9000DF93C0E1D1E0D093EA01C093E9010E9464
:100BA000EC0369EE71E00E949505D0930502C093B5
:100BB00004020E94EC0364E072E00E9495058091BB
:100BC0004302909144020E941F0A8091400290913A
:100BD000410297FD05C060E0DF91CF910C94AF0119
:100BE000DF91CF9108950F931F93CF93DF93EC0183
:100BF00080E191E0998388831A821B821C821D8286
:100C00001E821F82188619861C861D861E861F86D8
:100C1000188A198A1A8A1B8A8FEF9FEF9D8B8C8BFB
:100C20001A861B86188E1A8E198E0E94EC038C0170
:100C300084E090E00E948709DC0111961C921E92CC
:100C40001396DC93CE931297D8011296ED91FC91F6
:100C50001397309739F413969C938E9312978D9334
:100C60009C9305C091838083F80193838283DF91F5
:100C7000CF911F910F91089510924F0110924E0144
:100C800088EE93E0A0E0B0E0809350019093510192
:100C9000A0935201B093530186E191E090934D01EE
:100CA00080934C0185EC90E090935901809358011A
:100CB00084EC90E090935B0180935A0120EC30E04B
:100CC00030935D0120935C0181EC90E090935F0193
:100CD00080935E0182EC90E09093610180936001CB
:100CE00086EC90E09093630180936201109265011D
:100CF00010926601109267011092680110923B02F7
:100D0000109242021092490210924A0210924B0233
:100D100010924C0281E08093480280934502109229
:100D2000460292E09093470280933A0230933F024A
:100D300020933E0280EC90E00E9487099093440249
:100D400080934302009761F020ECFC0111922A95F8
:100D5000E9F780E490E090933D0280933C0208C064
:100D600010923F0210923E0210923D0210923C02FD
:100D700086E090E0909341028093400280913B0294
:100D8000882339F061E086E00E94AF0186E00E948E
:100D90005F01EEE2F1E0E491F0E0EE0FFF1FE25EB2
:100DA000FE4F8591949190934E0280934D02E0E125
:100DB000F1E0E491E0934F0285E08093310224EF6B
:100DC00031E0309333022093320281E08093340289
:100DD00010923502109236021092370210923802A9
:100DE0001092390294E09093280230932A022093C3
:100DF000290280932B0210922C0210922D02109245
:100E00002E0210922F021092300293E090931F0254
:100E10003093210220932002809322021092230219
:100E2000109224021092250210922602109227029C
:100E300084E092E00E94F30589EE91E00C94F305C2
:100E4000789484B5826084BD84B5816084BD85B5A5
:100E5000826085BD85B5816085BD80916E008160B1
:100E600080936E0010928100809181008260809357
:100E70008100809181008160809381008091800059
:100E80008160809380008091B10084608093B10084
:100E90008091B00081608093B00080917A0084607E
:100EA00080937A0080917A00826080937A008091AA
:100EB0007A00816080937A0080917A0080688093C4
:100EC0007A001092C100E0915C01F0915D0182E036
:100ED0008083E0915801F09159011082E0915A010C
:100EE000F0915B0180E1808310926401E0916001E8
:100EF000F091610186E08083E0915E01F0915F01F5
:100F0000808180618083E0915E01F0915F0180814A
:100F100088608083E0915E01F0915F01808180684C
:100F20008083E0915E01F0915F0180818F7D8083FD
:100F300061E086E00E94AF0160E085E00E94AF01C1
:100F400060E084E00E94AF0160E083E00E94AF01B6
:100F500060E08AE00E94AF0160E089E00E94AF019A
:100F600061E087E00E94AF0187E00E945F0162E0DC
:100F7000809131020E94AF0162E0809128020E94BC
:100F8000AF0162E080911F020E94AF018EEB94E0FE
:100F900090931E0280931D0280ED97E0A0E0B0E0E8
:100FA0008093100290931102A0931202B093130247
:100FB00081E090E0909319028093180290931B02B5
:100FC00080931A0280931C0227E034E030930302DE
:100FD0002093020244EF51E060E070E04093F5019D
:100FE0005093F6016093F7017093F8012FEF3FEFF4
:100FF0003093FE012093FD01309300022093FF0106
:1010000080930102809140029091410297FD07C0B8
:1010100061E00E94AF01809140020E945F0181E087
:1010200080933B020E94100260914202693C21F1D0
:101030002091430230914402615031F070E08FEF13
:1010400098EC0E946D0902C060E070E0F9014091E7
:101050003E0250913F02CF01821B930B84179507EC
:1010600040F44081469FC001479F900D1124919309
:10107000EECF89EC80934202C8E6D0E0FE01649195
:10108000611104C00E94CD0411E018C08CE491E00D
:101090000E9473032196892B89F7F4CF89E00E947F
:1010A0008601892B09F44DC00E94EC03FC01E0800D
:1010B000F180E114F10441F40E94E2038AE00E940D
:1010C0008601892B89F7EACFF701C281D3818A850E
:1010D0008823A9F10E94D0026E837F838887998735
:1010E000288D222361F188889988AA88BB88DC0131
:1010F000CB0188199909AA09BB098C849D84AE8407
:10110000BF8488159905AA05BB05C8F08C899D89FF
:10111000009719F41A861B8612C001979D8B8C8B41
:10112000E881F9810190F081E02DCE0109958E8151
:101130009F81A885B985888B998BAA8BBB8BF7017A
:10114000B6CFC0902402D0902502E0902602F09005
:1011500027020E94D0026C157D058E059F0528F19F
:1011600080911F020E9486012091220230E08217A6
:101170009307D9F00E94D0022091200230912102E1
:10118000DC01CB01820F931FA11DB11D80932402AE
:1011900090932502A0932602B09327028091220209
:1011A00081278093220210932302809122028111D1
:1011B00002C010934201809142018823B1F087E27E
:1011C00091E00E94D5041092F3011092F401409135
:1011D0003E0250913F0260E070E0809143029091A6
:1011E00044020E94AD0A0E941002809142018111C6
:1011F0005BCF8091F301811157CF8091F401882357
:1012000009F440C00E94D0022091EF013091F0011A
:10121000EB01C21BD30B0E94D0026093EF017093CD
:10122000F0018093F1019093F201CE01DD0FAA0B42
:10123000BB0B4091EB015091EC016091ED0170917D
:10124000EE01480F591F6A1F7B1F4093EB0150931B
:10125000EC016093ED017093EE014091F901509122
:10126000FA016091FB017091FC01840F951FA61F8C
:10127000B71F8093F9019093FA01A093FB01B093FB
:10128000FC0122C00E94D0026093EB017093EC013C
:101290008093ED019093EE016093EF017093F00164
:1012A0008093F1019093F2016093F9017093FA0138
:1012B0008093FB019093FC018091FF0190910002CB
:1012C0009093FE018093FD011093F3011092F401BD
:1012D0008CE291E00E94D504E7CEAA1BBB1B51E132
:1012E00007C0AA1FBB1FA617B70710F0A61BB70B96
:1012F000881F991F5A95A9F780959095BC01CD013B
:101300000895EE0FFF1F0590F491E02D09940F93BF
:101310001F93CF93DF938230910510F482E090E029
:10132000E0915202F091530220E030E0A0E0B0E002
:10133000309719F140815181028113814817590773
:10134000C8F08417950769F4109731F012960C9342
:10135000129713961C9327C00093520210935302C6
:1013600022C02115310519F04217530718F49A01CC
:10137000BD01EF01DF01F801DBCF21153105F9F0E7
:10138000281B390B2430310580F48A819B8161153B
:10139000710521F0FB019383828304C09093530273
:1013A00080935202FE01329644C0FE01E20FF31F09
:1013B0008193919322503109398328833AC0209137
:1013C000500230915102232B41F4209103013091BE
:1013D0000401309351022093500220910101309179
:1013E00002012115310541F42DB73EB740910501A9
:1013F00050910601241B350BE0915002F0915102EF
:10140000E217F307A0F42E1B3F0B2817390778F0DB
:10141000AC014E5F5F4F2417350748F04E0F5F1F3A
:1014200050935102409350028193919302C0E0E0A7
:10143000F0E0CF01DF91CF911F910F910895CF93ED
:10144000DF93009709F481C0FC0132971382128266
:10145000A0915202B0915302109781F42081318102
:10146000820F931F209150023091510228173907A3
:1014700051F5F0935102E093500267C0ED0120E076
:1014800030E0CE17DF0740F44A815B819E014115B1
:101490005105F1F0EA01F5CFD383C2834081518138
:1014A000840F951FC817D90759F488819981840F33
:1014B000951F0296918380838A819B819383828387
:1014C0002115310529F4F0935302E09352023DC0F7
:1014D000E901FB83EA8349915991C40FD51FEC17A9
:1014E000FD0761F480819181840F951F0296E901C7
:1014F00099838883828193819B838A83E0E0F0E0F3
:1015000012968D919C911397009719F0FD01DC01C3
:10151000F7CF8D919C9111979D012E5F3F4F820FC8
:10152000931F20915002309151022817390769F416
:10153000309729F4109253021092520202C0138283
:101540001282B0935102A0935002DF91CF9108957F
:1015500081E090E0F8940C94B40ADC0101C06D9332
:1015600041505040E0F7089510E0CFE9D0E004C0CA
:10157000FE010E9481092196C03AD107C9F7F8946B
:02158000FFCF9B
:1015820001000054028000001C303C4000000000BA
:10159200FE03000000007303DC020A03C0033B03E6
:1015A20019032D030D0A0048414C4F004E4F2047AE
:0415B200414D450062
:00000001FF
