:100000000C9420010C9448010C9448010C94480174
:100010000C9448010C9448010C9448010C9448013C
:100020000C9448010C9448010C9448010C9448012C
:100030000C9448010C9448010C9448010C9448011C
:100040000C94A1030C9448010C9423040C94FD031C
:100050000C9448010C9448010C9448010C944801FC
:100060000C9448010C9448015F5F5F5F5F5F5F5FC6
:100070005F5F5F5F5F5F5F5F5F5F5F5F5F5F5F5F90
:100080005F5F5F5F5F5F5F0A0A2020204720652077
:100090006120722020204D2061206320682069208B
:1000A0006E206520202020200A5F5F5F5F5F5F5F1A
:1000B0005F5F5F5F5F5F5F5F5F5F5F5F5F5F5F5F50
:1000C0005F5F5F5F5F5F5F5F0A0A4D61646520622B
:1000D00079204B4420546563686E6F6C6F67790AB2
:1000E0000A00000000000000000000000000000006
:1000F00000000000000000000000010101010101FA
:1001000001010101010102020202020202020303D3
:100110000303030304040404050505050506060698
:10012000060707070808080909090A0A0A0B0B0B42
:100130000C0C0D0D0D0E0E0F0F10101111121213CD
:100140001314141515161617181819191A1B1B1C39
:100150001D1D1E1F1F20212222232425262627287D
:10016000292A2A2B2C2D2E2F303132333435363795
:1001700038393A3B3C3D3E3F404142444546474882
:10018000494B4C4D4E50515254555658595A5C5D3E
:100190005E606163646667696A6C6D6F70727375C7
:1001A00077787A7C7D7F8182848688898B8D8F9118
:1001B000929496989A9C9EA0A2A4A6A8AAACAEB02F
:1001C000B2B4B6B8BABCBFC1C3C5C7CACCCED1D30E
:1001D000D5D7DADCDFE1E3E6E8EBEDF0F2F5F7FAAC
:1001E000FCFF00000000240027002A00000000009F
:1001F000230026002900000000080002010000037F
:1002000004070000000000000000010204081020A4
:1002100040800102040810200102040810200000A0
:100220000000250028002B00040404040404040436
:10023000020202020202030303030303560BE10A54
:1002400011241FBECFEFD8E0DEBFCDBF11E0A0E08C
:10025000B1E0E2E2FCE102C005900D92AE33B107DD
:10026000D9F722E0AEE3B1E001C01D92A736B20794
:10027000E1F711E0CFE1D1E004C02197FE010E9437
:10028000D10CCE31D107C9F70E945A070C94040E45
:100290000C940000CF92DF92EF92FF920F931F9386
:1002A000CF93DF936C017A018B01C0E0D0E0CE15D3
:1002B000DF0581F0D8016D918D01D601ED91FC91A2
:1002C0000190F081E02DC6010995892B11F021964E
:1002D000EECF7E01C701DF91CF911F910F91FF906B
:1002E000EF90DF90CF900895089580E090E008951A
:1002F000FC01538D448D252F30E0842F90E0821B2C
:10030000930B541710F0CF96089501970895FC01B0
:10031000918D828D981761F0828DDF01A80FB11D3C
:100320005D968C91928D9F5F9F73928F90E0089560
:100330008FEF9FEF0895FC01918D828D981731F01A
:10034000828DE80FF11D858D90E008958FEF9FEF6E
:100350000895FC01918D228D892F90E0805C9F4F44
:10036000821B91098F73992708958BE591E00E9474
:10037000A90121E0892B09F420E0822F0895FC01D6
:10038000848DDF01A80FB11DA35ABF4F2C91848D1E
:1003900090E001968F739927848FA689B7892C9353
:1003A000A089B1898C91837080648C93938D848DA6
:1003B000981306C00288F389E02D80818F7D8083A9
:1003C0000895EF92FF920F931F93CF93DF93EC0169
:1003D00081E0888F9B8D8C8D981305C0E889F98901
:1003E000808185FD26C0F62E0B8D10E00F5F1F4F1C
:1003F0000F731127E02E8C8DE8120CC00FB607FC8E
:10040000FACFE889F989808185FFF5CFCE010E9476
:10041000BF01F1CF8B8DFE01E80FF11DE35AFF4FB5
:10042000F0829FB7F8940B8FEA89FB898081806204
:100430000AC09FB7F894EE89FF896083E889F9893B
:1004400080818370806480839FBF81E090E0DF9132
:10045000CF911F910F91FF90EF900895CF93DF936D
:10046000EC01888D8823C9F0EA89FB89808185FDAC
:1004700005C0A889B9898C9186FD0FC00FB607FC0D
:10048000F5CF808185FFF2CFA889B9898C9185FF4E
:10049000EDCFCE010E94BF01E7CFDF91CF9108954C
:1004A00080E090E0892B29F00E94B50181110C9425
:1004B00000000895DC015996ED91FC915A97309710
:1004C00009F009940895CF93C0910001CF3F61F5E1
:1004D000E09140010E2E000CFF0BE95FFE4F808182
:1004E000815080933F0120913F01E0914001022E15
:1004F000000C330B0E2E000CFF0BEA5FFE4F8081C9
:1005000090E0281739070CF46EC080913F0140E05D
:1005100050E0BA01082E000C990B0E9463050E945E
:10052000A30480913F01DCCF80914001833064F5CA
:10053000E09140010E2E000CFF0BE95FFE4F808121
:1005400080933F0120913F01E0914001022E000C79
:10055000330B0E2E000CFF0BE95FFE4F818190E004
:10056000281739078CF480913F014FEF50E060E08D
:1005700070E0082E000C990B0E9463050E94A304F2
:1005800080913F018F5FDCCF80914001833059F52E
:10059000E09140010E2E000CFF0BE95FFE4F8081C1
:1005A00080933F0120913F01E0914001022E000C19
:1005B000330B0E2E000CFF0BE95FFE4F818190E0A4
:1005C0002817390784F480913F014FEF50E0BA01BA
:1005D000082E000C990B0E9463050E94A3048091D1
:1005E0003F018F5FDDCF809140018C0F80934001F0
:1005F00080914001181624F48091400184301CF051
:10060000C195C0930001CF910895CF92DF92EF92F0
:10061000FF92CF93DF93C82F8C3119F410923E01D3
:100620000DC0803311F48CE107C08C3311F480E3EA
:1006300003C0803419F48CE380933E01D0913E01D5
:10064000DC17E0F44FEF50E060E070E08D2F90E0B9
:100650000E9463050E94A3040E948F066B017C0127
:100660000E948F06DC01CB018C199D09AE09BF09E0
:10067000C297A105B105A0F3DF5FE2CFDF91CF9173
:10068000FF90EF90DF90CF900895CF92DF92EF929E
:10069000FF92CF93DF93EC01CD80DE80EF80F88472
:1006A0000E948F066C157D058E059F05D8F0888108
:1006B0000E94FB052B8130E08217930799F00E947E
:1006C0008F0629813A81DC01CB01820F931FA11D86
:1006D000B11D8D839E83AF83B8878B8191E089277D
:1006E0008B839C838B81DF91CF91FF90EF90DF9084
:1006F000CF900895CF93DF93EC010E9445038111C1
:1007000005C08C81882319F01C8201C080E0DF9134
:10071000CF910895E9E4F2E04481558160E070E012
:10072000818592850E94FD0D0E94A30410924501CF
:1007300084E08093440160E087E00C9424060E94EA
:10074000F80D1F920F920FB60F9211242F933F9323
:100750008F939F93AF93BF938091530190915401D6
:10076000A0915501B09156013091520123E0230F21
:100770002D3720F40196A11DB11D05C026E8230FD9
:100780000296A11DB11D20935201809353019093B5
:100790005401A0935501B093560180915701909157
:1007A0005801A0915901B0915A010196A11DB11DA6
:1007B0008093570190935801A0935901B0935A0127
:1007C000BF91AF919F918F913F912F910F900FBE4D
:1007D0000F901F90189580914A0181110BC01092C3
:1007E000490110924801109247011092460181E0A0
:1007F00080934A0186E491E008951F920F920FB60C
:100800000F9211242F933F934F935F936F937F9396
:100810008F939F93AF93BF93EF93FF938BE591E0FB
:100820000E94BF01FF91EF91BF91AF919F918F9176
:100830007F916F915F914F913F912F910F900FBEDC
:100840000F901F9018951F920F920FB60F921124C0
:100850002F938F939F93EF93FF93E0916B01F09110
:100860006C018081E0917101F091720182FD12C0F2
:100870009081809174018F5F8F7320917501821731
:1008800051F0E0917401F0E0E55AFE4F958F8093AE
:10089000740101C08081FF91EF919F918F912F9101
:1008A0000F900FBE0F901F901895833081F028F4A1
:1008B000813099F08230A1F008958730A9F0883016
:1008C000B9F08430D1F4809180008F7D03C0809195
:1008D00080008F7780938000089584B58F7702C061
:1008E00084B58F7D84BD08958091B0008F7703C05B
:1008F0008091B0008F7D8093B00008953FB7F89449
:100900008091570190915801A0915901B0915A01DD
:1009100026B5A89B05C02F3F19F00196A11DB11D5A
:100920003FBFBA2FA92F982F8827820F911DA11D95
:10093000B11DBC01CD0142E0660F771F881F991FD2
:100940004A95D1F708950F931F93CF93DF93CDB7B7
:10095000DEB729970FB6F894DEBF0FBECDBF8091EA
:10096000520290915302892B09F4A2C00E947E0486
:10097000009158021091590220915A0230915B0265
:10098000DC01CB01801B910BA20BB30B8C3291408D
:10099000A105B10558F3F89480914D0290914E0253
:1009A0009A838983E0915202F0915302DF011196FC
:1009B0008081898790914902E0915C02F0915D020B
:1009C00080915E02992309F42EC09081982B98871C
:1009D0009081809589238F838F818C8388E08B839E
:1009E00058856F8149853B812C8189819A8150830B
:1009F00047FD252F3A952083262F39F0441F00C04C
:100A000000006083000000C0F2CF38E04D916083A9
:100A10000000019761F7F0935D02E0935C02498763
:100A20003B832C8338C09081982B98879081809548
:100A300089238F838F818E8388E08D8358856F8192
:100A400049853D812E8189819A81508347FD252FDB
:100A500000C000C0208300C000C000C000C000C0B3
:100A600060830000262F3A9541F0441F000000C02B
:100A700000C000C000C000C0E8CF38E04D9100C009
:100A8000608300C0019709F7F0935D02E0935C0278
:100A900049873D832E839A83898378940E947E04BC
:100AA000609358027093590280935A0290935B02AC
:100AB00029960FB6F894DEBF0FBECDBFDF91CF9160
:100AC0001F910F9108958F929F92AF92BF92CF92F4
:100AD000DF92EF92FF92CF93DF9320914B02309100
:100AE0004C028217930708F057C04B01AA24BB247D
:100AF000F82DC52ED62EE72EFF24AC2DE42F209105
:100B00005102222361F0829E40011124F92D2C9D77
:100B100060011124AD2D249FE0011124ED2F3091AF
:100B20005702B0915402E0905202F09053023B13EE
:100B300008C09C01220F331F820F931F8E0D9F1D33
:100B400019C0880F991F880F991F8E0D9F1D472F61
:100B5000552766277727EC01C30FD11D222349F0C3
:100B600030E0249F7001259FF00C349FF00C11247D
:100B70004F2D488320915402EC01C20FD11DF88300
:100B800020915502EC01C20FD11DA883209156027D
:100B9000DC01A20FB11DEC93DF91CF91FF90EF909C
:100BA000DF90CF90BF90AF909F908F90089542E0DC
:100BB00050E06AE371E08BE591E00C944A01CF9339
:100BC000DF93009779F0FC0101900020E9F731975D
:100BD000AF01481B590BBC018BE591E00E944A0113
:100BE000EC0102C0C0E0D0E00E94D7058C0F9D1F31
:100BF000DF91CF910895CF93DF93282F30E0F90153
:100C0000EA50FE4F8491F901E65FFD4FD491F9015E
:100C1000E85DFD4FC491CC2391F081110E945504F1
:100C2000EC2FF0E0EE0FFF1FE451FE4FA591B491C1
:100C3000EC91ED2381E090E021F480E002C080E0BF
:100C400090E0DF91CF9108951F93CF93DF93282FEA
:100C500030E0F901EA50FE4F8491F901E65FFD4F63
:100C6000D491F901E85DFD4FC491CC23C1F0162F5A
:100C700081110E945504EC2FF0E0EE0FFF1FE25EA1
:100C8000FD4FA591B4919FB7F894111104C08C91B8
:100C9000D095D82302C0EC91DE2BDC939FBFDF916F
:100CA000CF911F910895CF93DF9390E0FC01E65F11
:100CB000FD4F2491FC01E85DFD4F8491882361F193
:100CC00090E0880F991FFC01EE51FE4FC591D49121
:100CD000FC01E25EFD4FA591B491611109C09FB77F
:100CE000F8948881209582238883EC912E230BC071
:100CF000623061F49FB7F8948881322F3095832356
:100D00008883EC912E2B2C939FBF06C08FB7F8944D
:100D1000E8812E2B28838FBFDF91CF9108952FB7C5
:100D2000F894609153017091540180915501909114
:100D300056012FBF0895CF92DF92EF92FF920F934B
:100D40001F93CF93082F8C3131F0803331F08C33E7
:100D500031F0CCE105C0C0E303C0CCE301C0C0E486
:100D60000E948F06C0905F02D0906002E090610206
:100D7000F0906202DC01CB018C199D09AE09BF091C
:100D8000C397A105B105F8F00E948F0660935F023A
:100D90007093600280936102909362021FEF1C0FB8
:100DA000E02EF12C812F012E000C990B8E159F0542
:100DB00054F040E050E06FEF70E00E9463050E9445
:100DC000A3041150EFCF0E948F066B017C010E949B
:100DD0008F06DC01CB018C199D09AE09BF09883E45
:100DE0009340A105B10598F3C15010E08C2F0C2E53
:100DF000000C990B801791074CF040E050E0BA01CD
:100E00000E9463050E94A304C150F0CFCF911F91AF
:100E10000F91FF90EF90DF90CF9008950F931F9365
:100E2000CF93DF93EC018B85882351F10E948F06CD
:100E30002E813F818B01021B130B0E948F066E8354
:100E40007F8388879987C801110FAA0BBB0B4A8142
:100E50005B816C817D81480F591F6A1F7B1F4A830C
:100E60005B836C837D83488959896A897B89840F78
:100E7000951FA61FB71F888B998BAA8BBB8B12C09F
:100E80000E948F066A837B838C839D836E837F831E
:100E900088879987688B798B8A8B9B8B8E899F89B2
:100EA0009D8B8C8B81E08A871B86DF91CF911F9170
:100EB0000F910895CF93DF93CDB7DEB728970FB684
:100EC000F894DEBF0FBECDBF789484B5826084BD38
:100ED00084B5816084BD85B5826085BD85B581603E
:100EE00085BD80916E00816080936E0010928100BC
:100EF0008091810082608093810080918100816077
:100F00008093810080918000816080938000809137
:100F1000B10084608093B1008091B00081608093C3
:100F2000B00080917A00846080937A0080917A008A
:100F3000826080937A0080917A00816080937A0049
:100F400080917A00806880937A001092C100E091CD
:100F50006B01F0916C0182E08083E0916701F09178
:100F600068011082E0916901F0916A0180E180835B
:100F700010927301E0916F01F091700186E080831F
:100F8000E0916D01F0916E01808180618083E0913C
:100F90006D01F0916E01808188608083E0916D0128
:100FA000F0916E01808180688083E0916D01F09105
:100FB0006E0180818F7D808361E086E00E94530610
:100FC00060E085E00E94530660E084E00E945306E2
:100FD00060E083E00E94530660E08AE00E945306CE
:100FE00060E089E00E94530661E087E00E945306BA
:100FF00060E087E00E94240662E0809140020E9447
:10100000530662E0809137020E94530662E08091AD
:101010002E020E9453068AE893E090932D0280935B
:101020002C0280ED97E0A0E0B0E080931F02909347
:101030002002A0932102B093220281E090E09093DD
:1010400028028093270290932A028093290280939A
:101050002B0223E632E0309312022093110244EF78
:1010600051E060E070E04093040250930502609309
:101070000602709307022FEF3FEF30930D0220938B
:101080000C0230930F0220930E0280931002809185
:101090004F029091500297FD08C061E00E945306F4
:1010A00060E080914F020E94240681E080934A0212
:1010B0000E94A30460915102693C21F120915202E7
:1010C00030915302615031F070E08FEF98EC0E9444
:1010D0006D0C02C060E070E0F90140914D0250914A
:1010E0004E02CF01821B930B8417950740F4408179
:1010F000469FC001479F900D11249193EECF89EC3C
:101100008093510208E610E0F801649161110BC070
:101110000E94D705FF24F394EAEFEE2E4E01F5E08E
:101120008F0E911C5FC08BE591E00E94E1010F5F83
:101130001F4F892B49F7ECCF89E00E94FB0521E086
:10114000892B09F455C0209343018EE292E00E945E
:101150004503882309F44EC08AE00E94FB05892BD1
:1011600009F4B4C080914201882309F4BAC0809187
:101170004301882331F084E291E00E94DF05F09280
:10118000410180E492E00E947A038111B0C087E3BC
:1011900092E00E947A038111B3C0809145018230B0
:1011A00009F4E6C00CF0B7C0882309F4C7C0813049
:1011B00009F4CEC080914A0181110AC01092490100
:1011C000109248011092470110924601F0924A0194
:1011D000C0904601D0904701C114D10409F096C1D6
:1011E0000E9450028AE00E94FB05892B09F0A4CFDF
:1011F00020E0A9CFF0924201109202021092030265
:1012000040914D0250914E0260E070E08091520298
:10121000909153020E94FD0D0E94A30440914D0243
:1012200050914E0260E070E0809152029091530222
:101230000E94FD0D0E94A304809145018130A9F018
:101240001CF4882349F088CF823001F1833009F003
:1012500083CF00E010E02BC080914401813009F081
:101260007BCF80E00E949B0677CF00E010E04FEF3D
:1012700050E060E070E0C8010E9463050E94A30492
:101280000F5F1F4F0C31110591F766CF00E010E0A2
:101290004FEF50E060E070E0C8010E9463050E94DB
:1012A000A3040F5F1F4F0033110591F755CF4FEF88
:1012B00050E060E070E0C8010E9463050E94A30452
:1012C0000F5F1F4F0C33110591F746CF89E00E9445
:1012D000FB05892B09F046CF80914101811163C143
:1012E00041CF80910202882309F462C140CF8091EE
:1012F00045018F5F84300CF084E08093450147CF37
:1013000080914501815018161CF48093450145CF0A
:101310001092450142CF8330D1F1843009F04ACF99
:1013200061E087E00E94240683E192E00E940E07BC
:10133000412C512C32017CEFC72E9CC0809144017E
:10134000813019F480E00E949B061092440132CF54
:1013500080914401811104C08CE10E94050305C005
:10136000823019F48CE10E949B06F092440122CF56
:1013700080914401813021F480E30E94050305C07F
:10138000833019F480E30E949B0682E00EC08091B6
:101390004401823021F48CE30E94050305C08430AF
:1013A00019F48CE30E949B0683E08093440102CFF2
:1013B0009EEF981B80E06FEF292E312C6F831886EB
:1013C000A82EB12CEF81F885CF01A0E0B0E0BA2FB4
:1013D000A92F982F88278827AA27BB27A50160E077
:1013E00070E08C019D01042B152B262B372BC1019E
:1013F000A0E0B0E0DC0199278827AC01BD014427BB
:1014000055277727D901C801842B952BA62BB72BFD
:1014100089839A83AB83BC83DE011196EC91F0E063
:10142000EE51FF4FE491ED938A169B06B9F749817F
:101430005A816B817C818D819E810E946305D3944A
:101440002D2D30E03E832D8320914B0230914C02B4
:101450008D819E818217930778F00E94A304FFEF8D
:101460005F1A6F0A7F0A4114510425E06206710475
:1014700009F4A0CED12CE4CF8D2D90E0A0E0B0E017
:101480007727662740E050E00E94810C240D351D2F
:10149000AAEFB5E00E94A00CDC01CB019058AF4F41
:1014A000BF4FCD01BB2797FDB095AB2F8E3FE1E03D
:1014B0009E0738F48F3F910508F07ACF682F80E0BF
:1014C00023C08C3FF3E09F0760F48D3F42E0940718
:1014D00018F48E5F6FEF03C06C2D681B8FEF90E0E8
:1014E0006BCF8A3FE5E09E0769F08B3FF4E09F07F2
:1014F00028F494E0980F8FEF60E05ECF2E2D281B2C
:10150000822F01C080E060E09FEF56CFD601129697
:101510000D911C911397F8018285882309F43FC02F
:101520000E948F06D80116966D937D938D939C93A0
:10153000199758962C915897222389F150964D90DF
:101540005D906D907C905397DC01CB0184199509D7
:10155000A609B709F8014484558466847784841504
:101560009505A605B705D8F084899589009719F4E3
:101570001286138614C00197958B848B0190F0819D
:10158000E02D0190F081E02DC8010995F8018681D8
:101590009781A085B185808B918BA28BB38BD6016F
:1015A000CD90DC9019CE1092420110924101DACD1B
:1015B0008FE291E00E94DF0588EF91E00E940E0724
:1015C000D6CDCF93DF93C0E1D1E0D093F901C093A2
:1015D000F8010E94EB0368EF71E00E943B0CD0938E
:1015E0001402C09313020E94EB0363E172E00E94B5
:1015F0003B0C80915202909153020E946F0D80919A
:101600004F029091500297FD05C060E0DF91CF91AD
:101610000C945306DF91CF9108950F931F93CF93AE
:10162000DF93EC0180E191E0998388831A821B8229
:101630001C821D821E821F82188619861C861D86AA
:101640001E861F86188A198A1A8A1B8A8FEF9FEFB7
:101650009D8B8C8B1A861B86188E1A8E198E0E9473
:10166000EB038C0184E090E00E94D70CDC01119622
:101670001C921E921396DC93CE931297D801129669
:10168000ED91FC911397309739F413969C938E93B8
:1016900012978D939C9305C091838083F801938367
:1016A0008283DF91CF911F910F91089510925E0177
:1016B00010925D0188EE93E0A0E0B0E080935F01BE
:1016C00090936001A0936101B093620186E191E083
:1016D00090935C0180935B0185EC90E090936801AE
:1016E0008093670184EC90E090936A018093690194
:1016F00020EC30E030936C0120936B0181EC90E0A2
:1017000090936E0180936D0182EC90E09093700154
:1017100080936F0186EC90E0909372018093710149
:101720001092740110927501109276011092770157
:1017300010924A02109251021092580210925902CD
:1017400010925A0210925B0281E0809357028093BC
:1017500054021092550292E09093560280934902EF
:1017600030934E0220934D0280EC90E00E94D70C03
:101770009093530280935202009761F020ECFC0199
:1017800011922A95E9F780E490E090934C028093BF
:101790004B0208C010924E0210924D0210924C0261
:1017A00010924B0286E090E09093500280934F029B
:1017B00080914A02882341F061E086E00E9453064E
:1017C00060E086E00E942406EEE2F2E0E491F0E0C0
:1017D000EE0FFF1FE25EFD4F8591949190935D02A5
:1017E00080935C02E0E1F2E0E491E0935E0285E048
:1017F0008093400224EF31E0309342022093410273
:1018000081E08093430210924402109245021092AC
:101810004602109247021092480294E090933702D9
:10182000309339022093380280933A0210923B029F
:1018300010923C0210923D0210923E0210923F0222
:1018400093E090932E023093300220932F028093E6
:10185000310210923202109233021092340210922E
:1018600035021092360283E192E00E940D0B88EF60
:1018700091E00C940D0BCF93DF93EC01888199815B
:10188000FC01A0E0B0E0309721F1228133812617DE
:101890003707D1F4109729F02081318111963C93BC
:1018A0002E932A813B81E217F30711F4BB83AA83AD
:1018B0008E179F0721F48081918199838883CF01BE
:1018C0000E946F0D81E006C0DF010190F081E02DE4
:1018D000DACF80E0DF91CF910895AA1BBB1B51E1C5
:1018E00007C0AA1FBB1FA617B70710F0A61BB70B90
:1018F000881F991F5A95A9F780959095BC01CD0135
:101900000895052E97FB1EF400940E94980C57FD35
:1019100007D00E94AF0C07FC03D04EF40C94980C37
:1019200050954095309521953F4F4F4F5F4F08950B
:1019300090958095709561957F4F8F4F9F4F08953B
:10194000A29FB001B39FC001A39F700D811D112400
:10195000911DB29F700D811D1124911D0895A1E26A
:101960001A2EAA1BBB1BFD010DC0AA1FBB1FEE1F19
:10197000FF1FA217B307E407F50720F0A21BB30B64
:10198000E40BF50B661F771F881F991F1A9469F7E0
:1019900060957095809590959B01AC01BD01CF013C
:1019A0000895EE0FFF1F0590F491E02D09940F9319
:1019B0001F93CF93DF938230910510F482E090E083
:1019C000E0916502F091660220E030E0A0E0B0E036
:1019D000309719F1408151810281138148175907CD
:1019E000C8F08417950769F4109731F012960C939C
:1019F000129713961C9327C00093650210936602FA
:101A000022C02115310519F04217530718F49A0125
:101A1000BD01EF01DF01F801DBCF21153105F9F040
:101A2000281B390B2430310580F48A819B81611594
:101A3000710521F0FB019383828304C090936602B9
:101A400080936502FE01329644C0FE01E20FF31F4F
:101A50008193919322503109398328833AC0209190
:101A6000630230916402232B41F4209103013091F1
:101A700004013093640220936302209101013091AC
:101A800002012115310541F42DB73EB74091050102
:101A900050910601241B350BE0916302F091640222
:101AA000E217F307A0F42E1B3F0B2817390778F035
:101AB000AC014E5F5F4F2417350748F04E0F5F1F94
:101AC00050936402409363028193919302C0E0E0DB
:101AD000F0E0CF01DF91CF911F910F910895CF9347
:101AE000DF93009709F481C0FC01329713821282C0
:101AF000A0916502B0916602109781F42081318136
:101B0000820F931F209163023091640228173907D6
:101B100051F5F0936402E093630267C0ED0120E0A9
:101B200030E0CE17DF0740F44A815B819E0141150A
:101B30005105F1F0EA01F5CFD383C2834081518191
:101B4000840F951FC817D90759F488819981840F8C
:101B5000951F0296918380838A819B8193838283E0
:101B60002115310529F4F0936602E09365023DC02A
:101B7000E901FB83EA8349915991C40FD51FEC1702
:101B8000FD0761F480819181840F951F0296E90120
:101B900099838883828193819B838A83E0E0F0E04C
:101BA00012968D919C911397009719F0FD01DC011D
:101BB000F7CF8D919C9111979D012E5F3F4F820F22
:101BC000931F20916302309164022817390769F44A
:101BD000309729F4109266021092650202C01382B7
:101BE0001282B0936402A0936302DF91CF910895B3
:101BF00081E090E0F8940C94040EDC0101C06D9338
:101C000041505040E0F7089511E0CFE1D1E004C029
:101C1000FE010E94D10C2196C032D107C9F7F89479
:021C2000FFCFF4
:101C220001000067028000001C303C400000000000
:101C32005A0200000000E1014A0178012E02A901C6
:101C420087019B0147414D45204F4E212121004EE6
:0E1C52004F2047414D452E2E2E000D0A00005A
:00000001FF
