:100000000C9420010C9448010C9448010C94480174
:100010000C9448010C9448010C9448010C9448013C
:100020000C9448010C9448010C9448010C9448012C
:100030000C9448010C9448010C9448010C9448011C
:100040000C9499030C9448010C941B040C94F50334
:100050000C9448010C9448010C9448010C944801FC
:100060000C9448010C9448015F5F5F5F5F5F5F5FC6
:100070005F5F5F5F5F5F5F5F5F5F5F5F5F5F5F5F90
:100080005F5F5F5F5F5F5F0A0A2020204720652077
:100090006120722020204D2061206320682069208B
:1000A0006E206520202020200A5F5F5F5F5F5F5F1A
:1000B0005F5F5F5F5F5F5F5F5F5F5F5F5F5F5F5F50
:1000C0005F5F5F5F5F5F5F5F0A0A4D61646520622B
:1000D00079204B4420546563686E6F6C6F67790AB2
:1000E0000A00000000000000000000000000000006
:1000F00000000000000000000000010101010101FA
:1001000001010101010102020202020202020303D3
:100110000303030304040404050505050506060698
:10012000060707070808080909090A0A0A0B0B0B42
:100130000C0C0D0D0D0E0E0F0F10101111121213CD
:100140001314141515161617181819191A1B1B1C39
:100150001D1D1E1F1F20212222232425262627287D
:10016000292A2A2B2C2D2E2F303132333435363795
:1001700038393A3B3C3D3E3F404142444546474882
:10018000494B4C4D4E50515254555658595A5C5D3E
:100190005E606163646667696A6C6D6F70727375C7
:1001A00077787A7C7D7F8182848688898B8D8F9118
:1001B000929496989A9C9EA0A2A4A6A8AAACAEB02F
:1001C000B2B4B6B8BABCBFC1C3C5C7CACCCED1D30E
:1001D000D5D7DADCDFE1E3E6E8EBEDF0F2F5F7FAAC
:1001E000FCFF00000000240027002A00000000009F
:1001F000230026002900000000080002010000037F
:1002000004070000000000000000010204081020A4
:1002100040800102040810200102040810200000A0
:100220000000250028002B00040404040404040436
:10023000020202020202030303030303400BCB0A80
:1002400011241FBECFEFD8E0DEBFCDBF11E0A0E08C
:10025000B1E0E6EFFBE102C005900D92AE33B107CD
:10026000D9F722E0AEE3B1E001C01D92A636B20795
:10027000E1F711E0CFE1D1E004C02197FE010E9437
:10028000BB0CCE31D107C9F70E945C070C94EE0D70
:100290000C940000CF92DF92EF92FF920F931F9386
:1002A000CF93DF936C017A018B01C0E0D0E0CE15D3
:1002B000DF0581F0D8016D918D01D601ED91FC91A2
:1002C0000190F081E02DC6010995892B11F021964E
:1002D000EECF7E01C701DF91CF911F910F91FF906B
:1002E000EF90DF90CF900895089580E090E008951A
:1002F000FC01538D448D252F30E0842F90E0821B2C
:10030000930B541710F0CF96089501970895FC01B0
:10031000918D828D981761F0828DDF01A80FB11D3C
:100320005D968C91928D9F5F9F73928F90E0089560
:100330008FEF9FEF0895FC01918D828D981731F01A
:10034000828DE80FF11D858D90E008958FEF9FEF6E
:100350000895FC01918D228D892F90E0805C9F4F44
:10036000821B91098F73992708958AE591E00E9475
:10037000A90121E0892B09F420E0822F0895FC01D6
:10038000848DDF01A80FB11DA35ABF4F2C91848D1E
:1003900090E001968F739927848FA689B7892C9353
:1003A000A089B1898C91837080648C93938D848DA6
:1003B000981306C00288F389E02D80818F7D8083A9
:1003C0000895EF92FF920F931F93CF93DF93EC0169
:1003D00081E0888F9B8D8C8D981305C0E889F98901
:1003E000808185FD26C0F62E0B8D10E00F5F1F4F1C
:1003F0000F731127E02E8C8DE8120CC00FB607FC8E
:10040000FACFE889F989808185FFF5CFCE010E9476
:10041000BF01F1CF8B8DFE01E80FF11DE35AFF4FB5
:10042000F0829FB7F8940B8FEA89FB898081806204
:100430000AC09FB7F894EE89FF896083E889F9893B
:1004400080818370806480839FBF81E090E0DF9132
:10045000CF911F910F91FF90EF900895CF93DF936D
:10046000EC01888D8823C9F0EA89FB89808185FDAC
:1004700005C0A889B9898C9186FD0FC00FB607FC0D
:10048000F5CF808185FFF2CFA889B9898C9185FF4E
:10049000EDCFCE010E94BF01E7CFDF91CF9108954C
:1004A00080E090E0892B29F00E94B50181110C9425
:1004B00000000895DC015996ED91FC915A97309710
:1004C00009F009940895CF93C0910001CF3F61F5E1
:1004D000E09140010E2E000CFF0BE95FFE4F808182
:1004E000815080933F0120913F01E0914001022E15
:1004F000000C330B0E2E000CFF0BEA5FFE4F8081C9
:1005000090E0281739070CF46EC080913F0140E05D
:1005100050E0BA01082E000C990B0E945B050E9466
:100520009B0480913F01DCCF80914001833064F5D2
:10053000E09140010E2E000CFF0BE95FFE4F808121
:1005400080933F0120913F01E0914001022E000C79
:10055000330B0E2E000CFF0BE95FFE4F818190E004
:10056000281739078CF480913F014FEF50E060E08D
:1005700070E0082E000C990B0E945B050E949B0402
:1005800080913F018F5FDCCF80914001833059F52E
:10059000E09140010E2E000CFF0BE95FFE4F8081C1
:1005A00080933F0120913F01E0914001022E000C19
:1005B000330B0E2E000CFF0BE95FFE4F818190E0A4
:1005C0002817390784F480913F014FEF50E0BA01BA
:1005D000082E000C990B0E945B050E949B048091E1
:1005E0003F018F5FDDCF809140018C0F80934001F0
:1005F00080914001181624F48091400184301CF051
:10060000C195C0930001CF910895CF92DF92EF92F0
:10061000FF92CF93DF93C82F8C3119F410923E01D3
:100620000DC0803311F48CE107C08C3311F480E3EA
:1006300003C0803419F48CE380933E01D0913E01D5
:10064000DC17E0F44FEF50E060E070E08D2F90E0B9
:100650000E945B050E949B040E9491066B017C0135
:100660000E949106DC01CB018C199D09AE09BF09DE
:10067000C297A105B105A0F3DF5FE2CFDF91CF9173
:10068000FF90EF90DF90CF9008950E94CF050E94D9
:100690009B041092440184E08093430160E087E072
:1006A0000C942606CF92DF92EF92FF92CF93DF93C6
:1006B000EC01CD80DE80EF80F8840E9491066C15FD
:1006C0007D058E059F05D8F088810E94FD052B8150
:1006D00030E08217930799F00E94910629813A81B0
:1006E000DC01CB01820F931FA11DB11D8D839E8361
:1006F000AF83B8878B8191E089278B839C838B8123
:10070000DF91CF91FF90EF90DF90CF900895CF933E
:10071000DF93EC010E945203811105C08C81882374
:1007200019F01C8201C080E0DF91CF9108950E94F2
:10073000E20D1F920F920FB60F9211242F933F9349
:100740008F939F93AF93BF938091520190915301E8
:10075000A0915401B09155013091510123E0230F34
:100760002D3720F40196A11DB11D05C026E8230FE9
:100770000296A11DB11D20935101809352019093C7
:100780005301A0935401B09355018091560190916B
:100790005701A0915801B09159010196A11DB11DB9
:1007A0008093560190935701A0935801B09359013B
:1007B000BF91AF919F918F913F912F910F900FBE5D
:1007C0000F901F9018958091490181110BC01092D4
:1007D000480110924701109246011092450181E0B4
:1007E0008093490185E491E008951F920F920FB61E
:1007F0000F9211242F933F934F935F936F937F93A7
:100800008F939F93AF93BF93EF93FF938AE591E00C
:100810000E94BF01FF91EF91BF91AF919F918F9186
:100820007F916F915F914F913F912F910F900FBEEC
:100830000F901F9018951F920F920FB60F921124D0
:100840002F938F939F93EF93FF93E0916A01F09121
:100850006B018081E0917001F091710182FD12C005
:100860009081809173018F5F8F7320917401821743
:1008700051F0E0917301F0E0E65AFE4F958F8093BE
:10088000730101C08081FF91EF919F918F912F9112
:100890000F900FBE0F901F901895833081F028F4B1
:1008A000813099F08230A1F008958730A9F0883026
:1008B000B9F08430D1F4809180008F7D03C08091A5
:1008C00080008F7780938000089584B58F7702C071
:1008D00084B58F7D84BD08958091B0008F7703C06B
:1008E0008091B0008F7D8093B00008953FB7F89459
:1008F0008091560190915701A0915801B0915901F2
:1009000026B5A89B05C02F3F19F00196A11DB11D6A
:100910003FBFBA2FA92F982F8827820F911DA11DA5
:10092000B11DBC01CD0142E0660F771F881F991FE2
:100930004A95D1F708950F931F93CF93DF93CDB7C7
:10094000DEB729970FB6F894DEBF0FBECDBF8091FA
:10095000510290915202892B09F4A2C00E947604A0
:1009600000915702109158022091590230915A0279
:10097000DC01CB01801B910BA20BB30B8C3291409D
:10098000A105B10558F3F89480914C0290914D0265
:100990009A838983E0915102F0915202DF0111960E
:1009A0008081898790914802E0915B02F0915C021E
:1009B00080915D02992309F42EC09081982B98872D
:1009C0009081809589238F838F818C8388E08B83AE
:1009D00058856F8149853B812C8189819A8150831B
:1009E00047FD252F3A952083262F39F0441F00C05C
:1009F00000006083000000C0F2CF38E04D916083BA
:100A00000000019761F7F0935C02E0935B02498775
:100A10003B832C8338C09081982B98879081809558
:100A200089238F838F818E8388E08D8358856F81A2
:100A300049853D812E8189819A81508347FD252FEB
:100A400000C000C0208300C000C000C000C000C0C3
:100A500060830000262F3A9541F0441F000000C03B
:100A600000C000C000C000C0E8CF38E04D9100C019
:100A7000608300C0019709F7F0935C02E0935B028A
:100A800049873D832E839A83898378940E947604D4
:100A900060935702709358028093590290935A02C0
:100AA00029960FB6F894DEBF0FBECDBFDF91CF9170
:100AB0001F910F9108958F929F92AF92BF92CF9204
:100AC000DF92EF92FF92CF93DF9320914A02309111
:100AD0004B028217930708F057C04B01AA24BB248E
:100AE000F82DC52ED62EE72EFF24AC2DE42F209115
:100AF0005002222361F0829E40011124F92D2C9D89
:100B000060011124AD2D249FE0011124ED2F3091BF
:100B10005602B0915302E0905102F09052023B1302
:100B200008C09C01220F331F820F931F8E0D9F1D43
:100B300019C0880F991F880F991F8E0D9F1D472F71
:100B4000552766277727EC01C30FD11D222349F0D3
:100B500030E0249F7001259FF00C349FF00C11248D
:100B60004F2D488320915302EC01C20FD11DF88311
:100B700020915402EC01C20FD11DA883209155028F
:100B8000DC01A20FB11DEC93DF91CF91FF90EF90AC
:100B9000DF90CF90BF90AF909F908F900895E8E442
:100BA000F2E04481558160E070E0818592850C948B
:100BB000E70D42E050E06AE371E08AE591E00C94D1
:100BC0004A01CF93DF93009779F0FC010190002058
:100BD000E9F73197AF01481B590BBC018AE591E059
:100BE0000E944A01EC0102C0C0E0D0E00E94D90599
:100BF0008C0F9D1FDF91CF910895CF93DF93282F06
:100C000030E0F901EA50FE4F8491F901E65FFD4FB3
:100C1000D491F901E85DFD4FC491CC2391F081118D
:100C20000E944D04EC2FF0E0EE0FFF1FE451FE4F49
:100C3000A591B491EC91ED2381E090E021F480E066
:100C400002C080E090E0DF91CF9108951F93CF9391
:100C5000DF93282F30E0F901EA50FE4F8491F9012B
:100C6000E65FFD4FD491F901E85DFD4FC491CC23BF
:100C7000C1F0162F81110E944D04EC2FF0E0EE0F11
:100C8000FF1FE25EFD4FA591B4919FB7F89411113B
:100C900004C08C91D095D82302C0EC91DE2BDC935C
:100CA0009FBFDF91CF911F910895CF93DF9390E085
:100CB000FC01E65FFD4F2491FC01E85DFD4F84914E
:100CC000882361F190E0880F991FFC01EE51FE4FDF
:100CD000C591D491FC01E25EFD4FA591B4916111E3
:100CE00009C09FB7F8948881209582238883EC916E
:100CF0002E230BC0623061F49FB7F8948881322FA5
:100D0000309583238883EC912E2B2C939FBF06C0B4
:100D10008FB7F894E8812E2B28838FBFDF91CF9176
:100D200008952FB7F894609152017091530180910A
:100D30005401909155012FBF0895CF92DF92EF9209
:100D4000FF920F931F93CF93082F8C3131F0803394
:100D500031F08C3331F0CCE105C0C0E303C0CCE30B
:100D600001C0C0E40E949106C0905E02D0905F0274
:100D7000E0906002F0906102DC01CB018C199D09CA
:100D8000AE09BF09C397A105B105F8F00E9491060D
:100D900060935E0270935F028093600290936102A1
:100DA0001FEF1C0FE02EF12C812F012E000C990B50
:100DB0008E159F0554F040E050E06FEF70E00E9408
:100DC0005B050E949B041150EFCF0E9491066B01BE
:100DD0007C010E949106DC01CB018C199D09AE09B2
:100DE000BF09883E9340A105B10598F3C15010E0BA
:100DF0008C2F0C2E000C990B801791074CF040E0C3
:100E000050E0BA010E945B050E949B04C150F0CFE4
:100E1000CF911F910F91FF90EF90DF90CF900895A9
:100E20000F931F93CF93DF93EC018B85882351F1B0
:100E30000E9491062E813F818B01021B130B0E94A1
:100E400091066E837F8388879987C801110FAA0B4B
:100E5000BB0B4A815B816C817D81480F591F6A1FE2
:100E60007B1F4A835B836C837D83488959896A89A8
:100E70007B89840F951FA61FB71F888B998BAA8B20
:100E8000BB8B12C00E9491066A837B838C839D83F7
:100E90006E837F8388879987688B798B8A8B9B8BFE
:100EA0008E899F899D8B8C8B81E08A871B86DF9141
:100EB000CF911F910F910895CF93DF93CDB7DEB7F8
:100EC00028970FB6F894DEBF0FBECDBF789484B5D7
:100ED000826084BD84B5816084BD85B5826085BD36
:100EE00085B5816085BD80916E00816080936E00C4
:100EF00010928100809181008260809381008091B6
:100F00008100816080938100809180008160809366
:100F100080008091B10084608093B1008091B00026
:100F200081608093B00080917A00846080937A0021
:100F300080917A00826080937A0080917A0081604B
:100F400080937A0080917A00806880937A00109272
:100F5000C100E0916A01F0916B0182E08083E09131
:100F60006601F09167011082E0916801F0916901DA
:100F700080E1808310927201E0916E01F0916F0127
:100F800086E08083E0916C01F0916D018081806149
:100F90008083E0916C01F0916D0180818860808395
:100FA000E0916C01F0916D01808180688083E09117
:100FB0006C01F0916D0180818F7D808361E086E01E
:100FC0000E94550660E085E00E94550660E084E0DE
:100FD0000E94550660E083E00E94550660E08AE0CA
:100FE0000E94550660E089E00E94550661E087E0B6
:100FF0000E94550660E087E00E94260662E080912C
:101000003F020E94550662E0809136020E9455061A
:1010100062E080912D020E94550685E493E0909352
:101020002C0280932B0280ED97E0A0E0B0E080934B
:101030001E0290931F02A0932002B093210281E030
:1010400090E0909327028093260290932902809348
:10105000280280932A0223E632E030931102209383
:10106000100244EF51E060E070E0409303025093BF
:10107000040260930502709306022FEF3FEF309356
:101080000C0220930B0230930E0220930D028093EA
:101090000F0280914E0290914F0297FD08C061E0CF
:1010A0000E94550660E080914E020E94260681E073
:1010B000809349020E949B0460915002693C21F197
:1010C0002091510230915202615031F070E08FEF67
:1010D00098EC0E94570C02C060E070E0F90140916A
:1010E0004C0250914D02CF01821B930B8417950740
:1010F00040F44081469FC001479F900D1124919379
:10110000EECF89EC8093500208E610E0F80164917C
:1011100061110BC00E94D905FF24F394EAEFEE2E73
:101120004E01F5E08F0E911C52C08AE591E00E94BD
:10113000E1010F5F1F4F892B49F7ECCF809101022E
:10114000882309F40FC28DE292E00E9452038823A3
:1011500009F442C08AE00E94FD05892B09F094C081
:101160008AE00E94FD05892B09F495C08FE392E087
:101170000E94870381119AC086E392E00E94870350
:1011800081119DC080914401823009F4D0C00CF0DF
:10119000A1C0882309F4B1C0813009F4B8C080919E
:1011A000490181110AC01092480110924701109222
:1011B000460110924501F0924901C0904501D0903E
:1011C0004601C114D10409F080C10E9450028091EF
:1011D00042018111B8CFB2CFF092420110920102C8
:1011E000109202020E94CF050E949B040E94CF052C
:1011F0000E949B04809144018130A9F01CF4882353
:1012000049F0A8CF823001F1833009F0A3CF00E08C
:1012100010E02BC080914301813009F09BCF80E02A
:101220000E949D0697CF00E010E04FEF50E060E095
:1012300070E0C8010E945B050E949B040F5F1F4F76
:101240000C31110591F786CF00E010E04FEF50E030
:1012500060E070E0C8010E945B050E949B040F5F84
:101260001F4F0033110591F775CF4FEF50E060E04D
:1012700070E0C8010E945B050E949B040F5F1F4F36
:101280000C33110591F766CF89E00E94FD05892B8B
:1012900009F071C165CF89E00E94FD05892B09F035
:1012A00065CF8091410181116DC160CF8091440172
:1012B0008F5F84300CF084E0809344015DCF809197
:1012C0004401815018161CF4809344015BCF1092A6
:1012D000440158CF8330D1F1843009F060CF61E010
:1012E00087E00E94260682E192E00E941007212CEE
:1012F000312C21017EEFC72E9CC0809143018130AB
:1013000019F480E00E949D061092430148CF80911D
:101310004301811104C08CE10E94050305C08230A5
:1013200019F48CE10E949D06F092430138CF809120
:101330004301813021F480E30E94050305C083301E
:1013400019F480E30E949D0682E00EC08091430163
:10135000823021F48CE30E94050305C0843019F427
:101360008CE30E949D0683E08093430118CF9C2D5F
:10137000981B80E06FEF692E712C6F831886A82E62
:10138000B12CEF81F885CF01A0E0B0E0BA2FA92FF2
:10139000982F88278827AA27BB27A50160E070E03F
:1013A0008C019D01042B152B262B372BC301A0E0AC
:1013B000B0E0DC0199278827AC01BD0144275527FF
:1013C0007727D901C801842B952BA62BB72B8983AE
:1013D0009A83AB83BC83DE011196EC91F0E0EE5171
:1013E000FF4FE491ED938A169B06B9F749815A8124
:1013F0006B817C818D819E810E945B05D3942D2D14
:1014000030E03E832D8320914A0230914B028D8142
:101410009E818217930778F00E949B04FFEF3F1A8A
:101420004F0A5F0A2114310425E04206510409F4F1
:10143000B6CED12CE4CF8D2D90E0A0E0B0E07727A0
:10144000662740E050E00E946B0C220D331DAAEF8E
:10145000B5E00E948A0CDC01CB019058AF4FBF4F22
:10146000CD01BB2797FDB095AB2F8E3FE1E09E07E6
:1014700038F48F3F910508F07ACF682F80E023C0C1
:101480008C3FF3E09F0760F48D3F42E0940718F42F
:101490008E5F6FEF03C06CEF681B8FEF90E06BCF38
:1014A0008A3FE5E09E0769F08B3FF4E09F0728F450
:1014B00094E0980F8FEF60E05ECF2E2D281B822FD7
:1014C00001C080E060E09FEF56CFD60112960D91EB
:1014D0001C911397F8018285882309F43FC00E946C
:1014E0009106D80116966D937D938D939C931997D1
:1014F00058962C915897222389F150962D913D9121
:101500004D915C915397DC01CB01821B930BA40B93
:10151000B50BF801248535854685578582179307D5
:10152000A407B507D8F084899589009719F4128625
:10153000138614C00197958B848B0190F081E02D68
:101540000190F081E02DC8010995F801868197810D
:10155000A085B185808B918BA28BB38BD601CD906A
:10156000DC902FCE84E291E00E94E10587EF91E0CC
:101570000E941007E8CD8FE291E00E94E105F09211
:101580004101EECD0E94CF050E949B0410924201C2
:1015900010924101EBCDCF93DF93C0E1D1E0D09326
:1015A000F801C093F7010E94E30367EF71E00E9426
:1015B000250CD0931302C09312020E94E30362E150
:1015C00072E00E94250C80915102909152020E947B
:1015D000590D80914E0290914F0297FD05C060E039
:1015E000DF91CF910C945506DF91CF9108950F9321
:1015F0001F93CF93DF93EC0180E191E0998388837F
:101600001A821B821C821D821E821F8218861986E6
:101610001C861D861E861F86188A198A1A8A1B8AAE
:101620008FEF9FEF9D8B8C8B1A861B86188E1A8EE0
:10163000198E0E94E3038C0184E090E00E94C10CAB
:10164000DC0111961C921E921396DC93CE93129796
:10165000D8011296ED91FC911397309739F41396B7
:101660009C938E9312978D939C9305C09183808356
:10167000F80193838283DF91CF911F910F91089599
:1016800010925D0110925C0188EE93E0A0E0B0E062
:1016900080935E0190935F01A0936001B09361011C
:1016A00086E191E090935B0180935A0185EC90E094
:1016B000909367018093660184EC90E090936901B8
:1016C0008093680120EC30E030936B0120936A0135
:1016D00081EC90E090936D0180936C0182EC90E03E
:1016E00090936F0180936E0186EC90E0909371016E
:1016F0008093700110927301109274011092750121
:1017000010927601109249021092500210925702E4
:10171000109258021092590210925A0281E080935E
:101720005602809353021092540292E09093550215
:101730008093480230934D0220934C0280EC90E05D
:101740000E94C10C9093520280935102009761F065
:1017500020ECFC0111922A95E9F780E490E0909347
:101760004B0280934A0208C010924D0210924C0224
:1017700010924B0210924A0286E090E090934F0242
:1017800080934E0280914902882341F061E086E017
:101790000E94550660E086E00E942606EEE2F2E036
:1017A000E491F0E0EE0FFF1FE25EFD4F8591949112
:1017B00090935C0280935B02E0E1F2E0E491E093BD
:1017C0005D0285E080933F0224EF31E030934102D7
:1017D0002093400281E080934202109243021092D3
:1017E000440210924502109246021092470294E081
:1017F0009093360230933802209337028093390257
:1018000010923A0210923B0210923C0210923D025A
:1018100010923E0293E090932D0230932F0220937A
:101820002E028093300210923102109232021092F6
:101830003302109234021092350282E192E00E944B
:10184000F70A87EF91E00C94F70ACF93DF93EC014E
:1018500088819981FC01A0E0B0E0309721F12281DC
:10186000338126173707D1F4109729F02081318171
:1018700011963C932E932A813B81E217F30711F4D2
:10188000BB83AA838E179F0721F48081918199835E
:101890008883CF010E94590D81E006C0DF010190CD
:1018A000F081E02DDACF80E0DF91CF910895AA1B7F
:1018B000BB1B51E107C0AA1FBB1FA617B70710F03B
:1018C000A61BB70B881F991F5A95A9F7809590956D
:1018D000BC01CD010895052E97FB1EF400940E94D3
:1018E000820C57FD07D00E94990C07FC03D04EF4E0
:1018F0000C94820C50954095309521953F4F4F4F59
:101900005F4F089590958095709561957F4F8F4FAB
:101910009F4F0895A29FB001B39FC001A39F700D78
:10192000811D1124911DB29F700D811D1124911DE7
:101930000895A1E21A2EAA1BBB1BFD010DC0AA1F10
:10194000BB1FEE1FFF1FA217B307E407F50720F028
:10195000A21BB30BE40BF50B661F771F881F991FA3
:101960001A9469F760957095809590959B01AC01EC
:10197000BD01CF010895EE0FFF1F0590F491E02DFA
:1019800009940F931F93CF93DF938230910510F446
:1019900082E090E0E0916402F091650220E030E0A6
:1019A000A0E0B0E0309719F14081518102811381AC
:1019B00048175907C8F08417950769F4109731F054
:1019C00012960C93129713961C9327C000936402EF
:1019D0001093650222C02115310519F042175307F3
:1019E00018F49A01BD01EF01DF01F801DBCF2115E9
:1019F0003105F9F0281B390B2430310580F48A8138
:101A00009B816115710521F0FB019383828304C0E2
:101A10009093650280936402FE01329644C0FE01F9
:101A2000E20FF31F81939193225031093983288368
:101A30003AC02091620230916302232B41F420913D
:101A400003013091040130936302209362022091DC
:101A50000101309102012115310541F42DB73EB746
:101A60004091050150910601241B350BE091620263
:101A7000F0916302E217F307A0F42E1B3F0B281727
:101A8000390778F0AC014E5F5F4F2417350748F0F7
:101A90004E0F5F1F509363024093620281939193B4
:101AA00002C0E0E0F0E0CF01DF91CF911F910F91F4
:101AB0000895CF93DF93009709F481C0FC0132971A
:101AC00013821282A0916402B0916502109781F492
:101AD00020813181820F931F209162023091630235
:101AE0002817390751F5F0936302E093620267C04B
:101AF000ED0120E030E0CE17DF0740F44A815B8142
:101B00009E0141155105F1F0EA01F5CFD383C2835F
:101B100040815181840F951FC817D90759F48881D6
:101B20009981840F951F0296918380838A819B817E
:101B3000938382832115310529F4F0936502E093A4
:101B400064023DC0E901FB83EA8349915991C40FC6
:101B5000D51FEC17FD0761F480819181840F951FDB
:101B60000296E90199838883828193819B838A838A
:101B7000E0E0F0E012968D919C911397009719F098
:101B8000FD01DC01F7CF8D919C9111979D012E5F96
:101B90003F4F820F931F20916202309163022817FA
:101BA000390769F4309729F41092650210926402A3
:101BB00002C013821282B0936302A0936202DF918B
:101BC000CF91089581E090E0F8940C94EE0DDC0143
:101BD00001C06D9341505040E0F7089511E0CFE10E
:101BE000D1E004C0FE010E94BB0C2196C032D10797
:061BF000C9F7F894FFCFD5
:101BF60001000066028000001C303C40000000002E
:101C06005A0200000000E1014A0178012E02A901F2
:101C160087019B014E4F2047414D452E2E2E0047F2
:0E1C2600414D45204F4E212121000D0A0000A6
:00000001FF
