:100000000C9420010C9448010C9448010C94480174
:100010000C9448010C9448010C9448010C9448013C
:100020000C9448010C9448010C9448010C9448012C
:100030000C9448010C9448010C9448010C9448011C
:100040000C94DA050C9448010C944A060C9424068E
:100050000C9448010C9448010C9448010C944801FC
:100060000C9448010C944801000000002300260075
:1000700029005F5F5F5F5F5F5F5F5F5F5F5F5F5F25
:100080005F5F5F5F5F5F5F5F5F5F5F5F5F5F5F5F80
:100090005F0A0A202020472065206120722020204E
:1000A0004D2061206320682069206E20652020207B
:1000B00020200A5F5F5F5F5F5F5F5F5F5F5F5F5F23
:1000C0005F5F5F5F5F5F5F5F5F5F5F5F5F5F5F5F40
:1000D0005F5F0A0A4D616465206279204B442054B9
:1000E0006563686E6F6C6F67790A0A000000000034
:1000F0000000000000000000000000000000000000
:1001000000000000010101010101010101010101E3
:1001100002020202020202020303030303030404B5
:100120000404050505050506060606070707080871
:10013000080909090A0A0A0B0B0B0C0C0D0D0D0E10
:100140000E0F0F101011111212131314141515168F
:100150001617181819191A1B1B1C1D1D1E1F1F20EE
:1001600021222223242526262728292A2A2B2C2D22
:100170002E2F303132333435363738393A3B3C3D27
:100180003E3F4041424445464748494B4C4D4E5006
:10019000515254555658595A5C5D5E6061636466AD
:1001A00067696A6C6D6F7072737577787A7C7D7F22
:1001B0008182848688898B8D8F91929496989A9C5F
:1001C0009EA0A2A4A6A8AAACAEB0B2B4B6B8BABC5F
:1001D000BFC1C3C5C7CACCCED1D3D5D7DADCDFE126
:1001E000E3E6E8EBEDF0F2F5F7FAFCFF00000000C3
:1001F000240027002A00000000080002010000037C
:1002000004070000000000000000010204081020A4
:1002100040800102040810200102040810200000A0
:100220000000250028002B00040404040404040436
:100230000202020202020303030303037C06940A80
:1002400011241FBECFEFD8E0DEBFCDBF11E0A0E08C
:10025000B1E0E2E0F9E102C005900D92A232B107EF
:10026000D9F722E0A2E2B1E001C01D92AD31B207A0
:10027000E1F711E0CFE1D1E004C02197FE010E9437
:10028000410BCE31D107C9F70E949B070C94740C27
:100290000C9400008F929F92AF92BF92CF92DF9208
:1002A000EF92FF92CF93DF932091050230910602E7
:1002B0008217930708F057C04B01AA24BB24F82DDE
:1002C000C52ED62EE72EFF24AC2DE42F20910B0255
:1002D000222361F0829E40011124F92D2C9D6001A2
:1002E0001124AD2D249FE0011124ED2F3091110236
:1002F000B0910E02E0900C02F0900D023B1308C08A
:100300009C01220F331F820F931F8E0D9F1D19C05A
:10031000880F991F880F991F8E0D9F1D472F5527F6
:1003200066277727EC01C30FD11D222349F030E067
:10033000249F7001259FF00C349FF00C11244F2D49
:10034000488320910E02EC01C20FD11DF883209149
:100350000F02EC01C20FD11DA88320911002DC0115
:10036000A20FB11DEC93DF91CF91FF90EF90DF9042
:10037000CF90BF90AF909F908F900895833081F081
:1003800028F4813099F08230A1F008958730A9F0E7
:100390008830B9F08430D1F4809180008F7D03C023
:1003A000809180008F7780938000089584B58F7747
:1003B00002C084B58F7D84BD08958091B0008F7791
:1003C00003C08091B0008F7D8093B0000895CF93DB
:1003D000DF93282F30E0F901EA50FE4F8491F901B4
:1003E000E65FFD4FD491F901E85DFD4FC491CC2348
:1003F00091F081110E94BE01EC2FF0E0EE0FFF1F83
:10040000E25EFD4FA591B4919FB7F8948C91D09581
:10041000D823DC939FBFDF91CF910895CF93DF93D3
:1004200090E0FC01E65FFD4F2491FC01E85DFD4F8B
:100430008491882361F190E0880F991FFC01E451B9
:10044000FE4FC591D491FC01E25EFD4FA591B491A0
:10045000611109C09FB7F894888120958223888311
:10046000EC912E230BC0623061F49FB7F894888121
:10047000322F309583238883EC912E2B2C939FBFB2
:1004800006C08FB7F894E8812E2B28838FBFDF91A9
:10049000CF9108953FB7F89480913501909136013E
:1004A000A0913701B091380126B5A89B05C02F3F18
:1004B00019F00196A11DB11D3FBFBA2FA92F982F8A
:1004C0008827820F911DA11DB11DBC01CD0142E005
:1004D000660F771F881F991F4A95D1F708950F93CC
:1004E0001F93CF93DF93CDB7DEB729970FB6F8945C
:1004F000DEBF0FBECDBF80910C0290910D02892B03
:1005000009F4A2C00E944A02009112021091130243
:100510002091140230911502DC01CB01801B910B5C
:10052000A20BB30B8C329140A105B10558F3F8949E
:1005300080910702909108029A838983E0910C02CE
:10054000F0910D02DF01119680818987909103025D
:10055000E0911602F091170280911802992309F494
:100560002EC09081982B98879081809589238F83C6
:100570008F818C8388E08B8358856F8149853B818F
:100580002C8189819A81508347FD252F3A952083BC
:10059000262F39F0441F00C000006083000000C017
:1005A000F2CF38E04D9160830000019761F7F0933E
:1005B0001702E093160249873B832C8338C0908151
:1005C000982B98879081809589238F838F818E8344
:1005D00088E08D8358856F8149853D812E81898191
:1005E0009A81508347FD252F00C000C0208300C0A2
:1005F00000C000C000C000C060830000262F3A95F4
:1006000041F0441F000000C000C000C000C000C096
:10061000E8CF38E04D9100C0608300C0019709F732
:10062000F0931702E093160249873D832E839A8345
:10063000898378940E944A02609312027093130295
:10064000809314029093150229960FB6F894DEBF9A
:100650000FBECDBFDF91CF911F910F9108958F9263
:100660009F92AF92BF92CF92DF92EF92FF926B0177
:100670007C010E944A024B015C01C114D104E104D7
:10068000F104F1F00E944A02DC01CB0188199909BA
:10069000AA09BB09883E9340A105B10570F321E08A
:1006A000C21AD108E108F10888EE880E83E0981E8E
:1006B000A11CB11CC114D104E104F10419F7DDCF70
:1006C000FF90EF90DF90CF90BF90AF909F908F9072
:1006D0000895CF93DF93D82F803331F08C3331F0EE
:1006E000803431F0C0E005C0CCE103C0C0E301C0FC
:1006F000CCE3CD1790F44FEF50E060E070E08C2F2A
:1007000090E00E944A010E946F0262E370E080E084
:1007100090E00E942F03CF5FECCFDF91CF9108953F
:100720000F931F93CF93DF938C3131F0803331F0EF
:100730008C3331F0CCE105C0C0E303C0CCE301C091
:10074000C0E4C150DC2F082F10E08D2F0D2E000CBF
:10075000990B8017910784F040E050E06FEF70E054
:100760000E944A010E946F0262E370E080E090E024
:100770000E942F03D150E9CF8C2F0C2E000C990B27
:10078000801791074CF040E050E0BA010E944A0106
:100790000E946F02C150F0CFDF91CF911F910F9156
:1007A00008952FB7F89460913101709132018091D2
:1007B0003301909134012FBF0895CF92DF92EF92D1
:1007C000FF920F931F93CF93DF936C017A018B01FC
:1007D000C0E0D0E0CE15DF0581F0D8016D918D012C
:1007E000D601ED91FC910190F081E02DC6010995B3
:1007F000892B11F02196EECF7E01C701DF91CF91B9
:100800001F910F91FF90EF90DF90CF900895089582
:1008100080E090E00895FC01538D448D252F30E059
:10082000842F90E0821B930B541710F0CF960895FD
:1008300001970895FC01918D828D981761F0828D4A
:10084000DF01A80FB11D5D968C91928D9F5F9F7304
:10085000928F90E008958FEF9FEF0895FC01918DA6
:10086000828D981731F0828DE80FF11D858D90E013
:1008700008958FEF9FEF0895FC01918D228D892FB0
:1008800090E0805C9F4F821B91098F739927089598
:1008900089E391E00E943C0421E0892B09F420E0E7
:1008A000822F0895FC01848DDF01A80FB11DA35A8A
:1008B000BF4F2C91848D90E001968F739927848F80
:1008C000A689B7892C93A089B1898C9183708064A3
:1008D0008C93938D848D981306C00288F389E02D44
:1008E00080818F7D80830895EF92FF920F931F93F5
:1008F000CF93DF93EC0181E0888F9B8D8C8D9813D3
:1009000005C0E889F989808185FD26C0F62E0B8D0A
:1009100010E00F5F1F4F0F731127E02E8C8DE81230
:100920000CC00FB607FCFACFE889F989808185FFF2
:10093000F5CFCE010E945204F1CF8B8DFE01E80F5E
:10094000F11DE35AFF4FF0829FB7F8940B8FEA89AD
:10095000FB89808180620AC09FB7F894EE89FF8985
:100960006083E889F98980818370806480839FBF78
:1009700081E090E0DF91CF911F910F91FF90EF9078
:100980000895CF93DF93EC01888D8823C9F0EA891D
:10099000FB89808185FD05C0A889B9898C9186FD78
:1009A0000FC00FB607FCF5CF808185FFF2CFA88975
:1009B000B9898C9185FFEDCFCE010E945204E7CF1B
:1009C000DF91CF91089580E090E0892B29F00E947B
:1009D000480481110C940000089580912601811132
:1009E0000BC0109225011092240110922301109245
:1009F000220181E08093260182E291E00895DC01EA
:100A00005996ED91FC915A97309709F00994089501
:100A1000CF92DF92EF92FF920F931F93CF93DF93CA
:100A2000EC01CD80DE80EF80F8840E94D1036C154C
:100A30007D058E059F0508F43EC0288130E0F90150
:100A4000EA50FE4F8491F901E65FFD4F0491F901F0
:100A5000E85DFD4F14911123A1F081110E94BE01A8
:100A6000E12FF0E0EE0FFF1FE859FF4FA591B49181
:100A7000EC91E02331E020E009F430E0832F922F65
:100A800002C080E090E02B8130E02817390799F010
:100A90000E94D10329813A81DC01CB01820F931F8F
:100AA000A11DB11D8D839E83AF83B8878B8191E09B
:100AB00089278B839C838B81811105C08C8188233E
:100AC00019F01C8201C080E0DF91CF911F910F913E
:100AD000FF90EF90DF90CF900895E3E0F2E0448143
:100AE000558160E070E0818592850E946D0C0E94C6
:100AF0006F0210922F0184E080932E0108958F924F
:100B00009F92AF92BF920F931F93CF93DF93CDB776
:100B1000DEB7A1970FB6F894DEBF0FBECDBF19A206
:100B2000423008F44AE08E010F5D1F4F842E912C55
:100B3000A12CB12CA50194010E94F10AE62FB90164
:100B4000CA0101501109EA3014F4E05D01C0E95C0A
:100B5000D801EC93232B242B252B61F701151105CC
:100B600071F0F80101900020E9F73197AF01401BC7
:100B7000510BB80189E391E00E94DD0302C080E0DF
:100B800090E0A1960FB6F894DEBF0FBECDBFDF9107
:100B9000CF911F910F91BF90AF909F908F9008952C
:100BA00042E050E06EE171E089E391E00C94DD03F6
:100BB0000E94680C1F920F920FB60F9211242F9370
:100BC0003F938F939F93AF93BF9380913101909107
:100BD0003201A0913301B09134013091300123E012
:100BE000230F2D3720F40196A11DB11D05C026E865
:100BF000230F0296A11DB11D209330018093310176
:100C000090933201A0933301B09334018091350168
:100C100090913601A0913701B09138010196A11D44
:100C2000B11D8093350190933601A0933701B093A5
:100C30003801BF91AF919F918F913F912F910F906C
:100C40000FBE0F901F9018951F920F920FB60F9224
:100C500011242F933F934F935F936F937F938F93C1
:100C60009F93AF93BF93EF93FF9389E391E00E942B
:100C70005204FF91EF91BF91AF919F918F917F911E
:100C80006F915F914F913F912F910F900FBE0F90F9
:100C90001F9018951F920F920FB60F9211242F9349
:100CA0008F939F93EF93FF93E0914901F0914A0155
:100CB0008081E0914F01F091500182FD12C090813E
:100CC000809152018F5F8F7320915301821751F0F1
:100CD000E0915201F0E0E75CFE4F958F8093520166
:100CE00001C08081FF91EF919F918F912F910F9083
:100CF0000FBE0F901F901895CF93DF9310923C0179
:100D000010923B0188EE93E0A0E0B0E080933D01BB
:100D100090933E01A0933F01B09340018AE091E09F
:100D200090933A018093390185EC90E090934601CD
:100D30008093450184EC90E09093480180934701B3
:100D400020EC30E030934A012093490181EC90E09F
:100D500090934C0180934B0182EC90E090934E0174
:100D600080934D0186EC90E09093500180934F0169
:100D70001092520110925301109254011092550199
:100D80001092040210920B0210921202109213029F
:100D9000109214021092150281E080931102809348
:100DA0000E0210920F0292E09093100280930302C1
:100DB000309308022093070280EC90E00E94470BDA
:100DC00090930D0280930C02009761F020ECFC01DF
:100DD00011922A95E9F780E490E0909306028093BF
:100DE000050208C010920802109207021092060233
:100DF0001092050286E090E090930A028093090227
:100E000080910402882339F061E086E00E940E029E
:100E100086E00E94E701EEE2F2E0E491F0E0EE0FFE
:100E2000FF1FE25EFD4F859194919093170280938E
:100E30001602E0E1F2E0E491E093180285E080938D
:100E4000FA0124EF31E03093FC012093FB0181E0B3
:100E50008093FD011092FE011092FF01109200029A
:100E6000109201021092020294E09093F1013093EB
:100E7000F3012093F2018093F4011092F501109296
:100E8000F6011092F7011092F8011092F9018CE12D
:100E900091E09093D7018093D6011092D8011092DF
:100EA000D9011092DA011092DB011092DC0110924C
:100EB000DD011092DE011092DF011092E20110922A
:100EC000E3011092E4011092E5011092E601109204
:100ED000E7011092E8011092E9018FEF9FEF9093E4
:100EE000EB018093EA011092E0011092E10110926F
:100EF000EE011092F0011092EF010E94ED04EC015E
:100F000084E090E00E94470BFC011182108226EDE4
:100F100031E033832283EA81FB81309729F49B837C
:100F20008A839983888304C0918380839B838A8387
:100F3000DF91CF910895CF93DF9300D000D000D000
:100F4000CDB7DEB7789484B5826084BD84B5816006
:100F500084BD85B5826085BD85B5816085BD809184
:100F60006E00816080936E001092810080918100FC
:100F700082608093810080918100816080938100F4
:100F8000809180008160809380008091B1008460B6
:100F90008093B1008091B00081608093B000809117
:100FA0007A00846080937A0080917A0082608093D6
:100FB0007A0080917A00816080937A0080917A0033
:100FC000806880937A001092C100E0914901F0910D
:100FD0004A0182E08083E0914501F0914601108250
:100FE000E0914701F091480180E180831092510126
:100FF000E0914D01F0914E0186E08083E0914B013C
:10100000F0914C01808180618083E0914B01F091EF
:101010004C01808188608083E0914B01F0914C010C
:10102000808180688083E0914B01F0914C01808148
:101030008F7D808361E086E00E940E0260E085E0A3
:101040000E940E0260E084E00E940E0262E0809145
:10105000FA010E940E0262E08091F1010E940E02EC
:101060008DE695E09093F0018093EF018CED95E093
:10107000A0E0B0E08093E2019093E301A093E4014B
:10108000B093E50181E090E09093EB018093EA0159
:101090009093ED018093EC018093EE018091090221
:1010A00090910A0297FD07C061E00E940E028091B4
:1010B00009020E94E70181E0809304020E946F020E
:1010C00060910B02693C21F120910C0230910D02DC
:1010D000615031F070E08FEF98EC0E94DD0A02C0A1
:1010E00060E070E0F9014091070250910802CF01E1
:1010F000821B930B8417950740F44081469FC001E3
:10110000479F900D11249193EECF89EC80930B02B1
:1011100002E710E0F8016491611107C00E94D00558
:101120005E01F5E0AF0EB11C49C089E391E00E9479
:1011300074040F5F1F4F892B69F7F0CF80912F0147
:101140008F5F84300CF041C080932F0181EF91E0DC
:101150000E94080581113DC080912F01823009F461
:1011600061C00CF041C0882309F443C0813009F408
:101170004AC020902F01022C000C33084408550867
:1011800057FE8CC16DE289E391E00E9474046627EA
:101190007727CB0162197309840995094AE00E94F7
:1011A0007F050E94D0050E94ED04DC01ED90FC90CB
:1011B000E114F10409F076C10E94E3048AEF91E0A2
:1011C0000E940805882311F2B9CF24E020932F0153
:1011D000BDCF80912F01815018161CF480932F01F0
:1011E000BBCF10922F01B8CF833069F18430D1F199
:1011F000C0CF80912E01813019F480E00E949003CD
:1012000010922E01B6CF80912E01811104C08CE185
:101210000E94690305C0823019F48CE10E9490039A
:1012200081E00EC080912E01813021F480E30E9484
:10123000690305C0833019F480E30E94900382E0C3
:1012400080932E0196CF80912E01823021F48CE381
:101250000E94690305C0843019F48CE30E94900356
:1012600083E0EECF8091E101882309F440C00E9421
:10127000D1032091DC013091DD018B01021B130BA6
:101280000E94D1036093DC017093DD018093DE0145
:101290009093DF01012E000C220B330B8091D801BB
:1012A0009091D901A091DA01B091DB01800F911FDB
:1012B000A21FB31F8093D8019093D901A093DA01A4
:1012C000B093DB018091E6019091E701A091E801E4
:1012D000B091E901080F191F2A1F3B1F0093E60177
:1012E0001093E7012093E8013093E90122C00E94A6
:1012F000D1036093D8017093D9018093DA01909360
:10130000DB016093DC017093DD018093DE0190933B
:10131000DF016093E6017093E7018093E801909309
:10132000E9018091EC019091ED019093EB018093A4
:10133000EA0181E08093E0011092E101212C312C3F
:1013400021017EEFE72EF12C8F2D90E09E838D837F
:1013500020910502309106028217930708F090C091
:101360008F2D90E0A0E0B0E07727662740E050E0C6
:101370000E94130B220D331DAAEFB5E00E94320B21
:10138000DC01CB019058AF4FBF4FCD01BB2797FD7C
:10139000B095AB2F8E3FE1E09E0758F48F3F91054B
:1013A00018F4682F80E028C09E2D981B80E06FEF16
:1013B00024C08C3FF3E09F0760F48D3F42E0940728
:1013C00018F48E5F6FEF03C06CEF681B8FEF90E037
:1013D00014C08A3FE5E09E0769F08B3FF4E09F0769
:1013E00028F494E0980F8FEF60E007C02AEF281BE5
:1013F000822F01C080E060E09FEF692E712C862E65
:10140000912CC82ED12CC401A0E0B0E0BA2FA92F96
:10141000982F88278827AA27BB27A60160E070E0BD
:101420008C019D01042B152B262B372BC301A0E02B
:10143000B0E0DC0199278827AC01BD01442755277E
:101440007727D901C801842B952BA62BB72B89832D
:101450009A83AB83BC83DE011196EC91F0E0E451FA
:10146000FF4FE491ED93AA16BB06B9F749815A8163
:101470006B817C818D819E810E944A01F39464CFAF
:101480000E946F024FEF341A440A540A21143104A7
:1014900085E04806510409F056CF6BCE4AE0C20100
:1014A000B1017DCEF70102811381D8011A968C918A
:1014B0008823C1F10E94D103F80166837783808776
:1014C0009187208D222371F12089318942895389A6
:1014D000DC01CB01821B930BA40BB50B2485358556
:1014E0004685578582179307A407B507D8F08489E6
:1014F0009589009719F41286138614C00197958B6D
:10150000848B0190F081E02D0190F081E02DC801E5
:101510000995F80186819781A085B185808B918B93
:10152000A28BB38BD70142CECF93DF938CE191E0B6
:101530009093D7018093D6010E94ED04EC0188813D
:101540009981FC01A0E0B0E0309719F1228133814C
:10155000265D3140C9F4109729F020813181119620
:101560003C932E932A813B81E217F30711F4BB834E
:10157000AA838E179F0721F48081918199838883A4
:10158000CF010E94DF0B05C0DF010190F081E02D4B
:10159000DBCF80910C0290910D020E94DF0B8091B5
:1015A000090290910A0297FD05C060E0DF91CF919A
:1015B0000C940E02DF91CF910895AA1BBB1B51E141
:1015C00007C0AA1FBB1FA617B70710F0A61BB70BB3
:1015D000881F991F5A95A9F780959095BC01CD0158
:1015E0000895A1E21A2EAA1BBB1BFD010DC0AA1F64
:1015F000BB1FEE1FFF1FA217B307E407F50720F07C
:10160000A21BB30BE40BF50B661F771F881F991FF6
:101610001A9469F760957095809590959B01AC013F
:10162000BD01CF010895052E97FB1EF400940E9482
:101630002A0B57FD07D00E94F10A07FC03D04EF495
:101640000C942A0B50954095309521953F4F4F4F64
:101650005F4F089590958095709561957F4F8F4F5E
:101660009F4F0895A29FB001B39FC001A39F700D2B
:10167000811D1124911DB29F700D811D1124911D9A
:101680000895EE0FFF1F0590F491E02D09940F933C
:101690001F93CF93DF938230910510F482E090E0A6
:1016A000E0911B02F0911C0220E030E0A0E0B0E0ED
:1016B000309719F1408151810281138148175907F0
:1016C000C8F08417950769F4109731F012960C93BF
:1016D000129713961C9327C000931B0210931C02B1
:1016E00022C02115310519F04217530718F49A0149
:1016F000BD01EF01DF01F801DBCF21153105F9F064
:10170000281B390B2430310580F48A819B816115B7
:10171000710521F0FB019383828304C090931C0226
:1017200080931B02FE01329644C0FE01E20FF31FBC
:101730008193919322503109398328833AC02091B3
:10174000190230911A02232B41F4209102013091A9
:10175000030130931A022093190220910001309165
:1017600001012115310541F42DB73EB74091040127
:1017700050910501241B350BE0911902F0911A02DA
:10178000E217F307A0F42E1B3F0B2817390778F058
:10179000AC014E5F5F4F2417350748F04E0F5F1FB7
:1017A00050931A02409319028193919302C0E0E092
:1017B000F0E0CF01DF91CF911F910F910895CF936A
:1017C000DF93009709F481C0FC01329713821282E3
:1017D000A0911B02B0911C02109781F420813181ED
:1017E000820F931F2091190230911A02281739078E
:1017F00051F5F0931A02E093190267C0ED0120E061
:1018000030E0CE17DF0740F44A815B819E0141152D
:101810005105F1F0EA01F5CFD383C28340815181B4
:10182000840F951FC817D90759F488819981840FAF
:10183000951F0296918380838A819B819383828303
:101840002115310529F4F0931C02E0931B023DC0E1
:10185000E901FB83EA8349915991C40FD51FEC1725
:10186000FD0761F480819181840F951F0296E90143
:1018700099838883828193819B838A83E0E0F0E06F
:1018800012968D919C911397009719F0FD01DC0140
:10189000F7CF8D919C9111979D012E5F3F4F820F45
:1018A000931F2091190230911A022817390769F401
:1018B000309729F410921C0210921B0202C013826E
:1018C0001282B0931A02A0931902DF91CF9108956A
:1018D00081E090E0F8940C94740CDC0101C06D93ED
:1018E00041505040E0F7089511E0CFE1D1E004C04D
:1018F000FE010E94410B2196C032D107C9F7F8942E
:02190000FFCF17
:1019020000001D028000000000007404DD030B04CF
:10191200C1043C041A042E0400000000FF040D0A56
:021922000000C3
:00000001FF
