:100000000C9420010C9448010C9448010C94480174
:100010000C9448010C9448010C9448010C9448013C
:100020000C9448010C9448010C9448010C9448012C
:100030000C9448010C9448010C9448010C9448011C
:100040000C948B050C9448010C94FB050C94D5057D
:100050000C9448010C9448010C9448010C944801FC
:100060000C9448010C944801000000002300260075
:1000700029005F5F5F5F5F5F5F5F5F5F5F5F5F5F25
:100080005F5F5F5F5F5F5F5F5F5F5F5F5F5F5F5F80
:100090005F0A0A202020472065206120722020204E
:1000A0004D2061206320682069206E20652020207B
:1000B00020200A5F5F5F5F5F5F5F5F5F5F5F5F5F23
:1000C0005F5F5F5F5F5F5F5F5F5F5F5F5F5F5F5F40
:1000D0005F5F0A0A4D616465206279204B442054B9
:1000E0006563686E6F6C6F67790A0A000000000034
:1000F0000000000000000000000000000000000000
:1001000000000000010101010101010101010101E3
:1001100002020202020202020303030303030404B5
:100120000404050505050506060606070707080871
:10013000080909090A0A0A0B0B0B0C0C0D0D0D0E10
:100140000E0F0F101011111212131314141515168F
:100150001617181819191A1B1B1C1D1D1E1F1F20EE
:1001600021222223242526262728292A2A2B2C2D22
:100170002E2F303132333435363738393A3B3C3D27
:100180003E3F4041424445464748494B4C4D4E5006
:10019000515254555658595A5C5D5E6061636466AD
:1001A00067696A6C6D6F7072737577787A7C7D7F22
:1001B0008182848688898B8D8F91929496989A9C5F
:1001C0009EA0A2A4A6A8AAACAEB0B2B4B6B8BABC5F
:1001D000BFC1C3C5C7CACCCED1D3D5D7DADCDFE126
:1001E000E3E6E8EBEDF0F2F5F7FAFCFF00000000C3
:1001F000240027002A00000000080002010000037C
:1002000004070000000000000000010204081020A4
:1002100040800102040810200102040810200000A0
:100220000000250028002B00040404040404040436
:100230000202020202020303030303032D06640AFF
:1002400011241FBECFEFD8E0DEBFCDBF11E0A0E08C
:10025000B1E0EEEBF8E102C005900D92A232B107D9
:10026000D9F722E0A2E2B1E001C01D92A232B207AA
:10027000E1F711E0CFE1D1E004C02197FE010E9437
:100280001F0BCE31D107C9F70E945C070C94520CAA
:100290000C9400008F929F92AF92BF92CF92DF9208
:1002A000EF92FF92CF93DF9320910A0230910B02DD
:1002B0008217930708F057C04B01AA24BB24F82DDE
:1002C000C52ED62EE72EFF24AC2DE42F2091100250
:1002D000222361F0829E40011124F92D2C9D6001A2
:1002E0001124AD2D249FE0011124ED2F3091160231
:1002F000B0911302E0901102F09012023B1308C07B
:100300009C01220F331F820F931F8E0D9F1D19C05A
:10031000880F991F880F991F8E0D9F1D472F5527F6
:1003200066277727EC01C30FD11D222349F030E067
:10033000249F7001259FF00C349FF00C11244F2D49
:10034000488320911302EC01C20FD11DF883209144
:100350001402EC01C20FD11DA88320911502DC010B
:10036000A20FB11DEC93DF91CF91FF90EF90DF9042
:10037000CF90BF90AF909F908F900895833081F081
:1003800028F4813099F08230A1F008958730A9F0E7
:100390008830B9F08430D1F4809180008F7D03C023
:1003A000809180008F7780938000089584B58F7747
:1003B00002C084B58F7D84BD08958091B0008F7791
:1003C00003C08091B0008F7D8093B00008951F938B
:1003D000CF93DF93282F30E0F901EA50FE4F84914C
:1003E000F901E65FFD4FD491F901E85DFD4FC4913D
:1003F000CC23C1F0162F81110E94BE01EC2FF0E03A
:10040000EE0FFF1FE25EFD4FA591B4919FB7F894E8
:10041000111104C08C91D095D82302C0EC91DE2B31
:10042000DC939FBFDF91CF911F910895CF93DF930E
:1004300090E0FC01E65FFD4F2491FC01E85DFD4F7B
:100440008491882361F190E0880F991FFC01E451A9
:10045000FE4FC591D491FC01E25EFD4FA591B49190
:10046000611109C09FB7F894888120958223888301
:10047000EC912E230BC0623061F49FB7F894888111
:10048000322F309583238883EC912E2B2C939FBFA2
:1004900006C08FB7F894E8812E2B28838FBFDF9199
:1004A000CF9108953FB7F89480912A0190912B0144
:1004B000A0912C01B0912D0126B5A89B05C02F3F1E
:1004C00019F00196A11DB11D3FBFBA2FA92F982F7A
:1004D0008827820F911DA11DB11DBC01CD0142E0F5
:1004E000660F771F881F991F4A95D1F708950F93BC
:1004F0001F93CF93DF93CDB7DEB729970FB6F8944C
:10050000DEBF0FBECDBF8091110290911202892BE8
:1005100009F4A2C00E945202009117021091180221
:100520002091190230911A02DC01CB01801B910B42
:10053000A20BB30B8C329140A105B10558F3F8948E
:1005400080910C0290910D029A838983E0911102AF
:10055000F0911202DF011196808189879091080243
:10056000E0911B02F0911C0280911D02992309F475
:100570002EC09081982B98879081809589238F83B6
:100580008F818C8388E08B8358856F8149853B817F
:100590002C8189819A81508347FD252F3A952083AC
:1005A000262F39F0441F00C000006083000000C007
:1005B000F2CF38E04D9160830000019761F7F0932E
:1005C0001C02E0931B0249873B832C8338C0908137
:1005D000982B98879081809589238F838F818E8334
:1005E00088E08D8358856F8149853D812E81898181
:1005F0009A81508347FD252F00C000C0208300C092
:1006000000C000C000C000C060830000262F3A95E3
:1006100041F0441F000000C000C000C000C000C086
:10062000E8CF38E04D9100C0608300C0019709F722
:10063000F0931C02E0931B0249873D832E839A832B
:10064000898378940E945202609317027093180273
:100650008093190290931A0229960FB6F894DEBF80
:100660000FBECDBFDF91CF911F910F9108952FB78E
:10067000F894609126017091270180912801909152
:1006800029012FBF0895CF92DF92EF92FF920F932F
:100690001F93CF93082F8C3131F0803331F08C339E
:1006A00031F0CCE105C0C0E303C0CCE301C0C0E43D
:1006B0000E943703C0902E01D0902F01E0903001AE
:1006C000F0903101DC01CB018C199D09AE09BF0905
:1006D000C397A105B105F8F00E94370360932E017E
:1006E00070932F0180933001909331011FEF1C0F05
:1006F000E02EF12C812F012E000C990B8E159F05F9
:1007000054F040E050E06FEF70E00E944A010E9418
:1007100077021150EFCF0E9437036B017C010E94DA
:100720003703DC01CB018C199D09AE09BF09883E56
:100730009340A105B10598F3C15010E08C2F0C2E09
:10074000000C990B801791074CF040E050E0BA0183
:100750000E944A010E947702C150F0CFCF911F91B1
:100760000F91FF90EF90DF90CF900895CF92DF929E
:10077000EF92FF920F931F93CF93DF936C017A0157
:100780008B01C0E0D0E0CE15DF0581F0D8016D917E
:100790008D01D601ED91FC910190F081E02DC60113
:1007A0000995892B11F02196EECF7E01C701DF91CB
:1007B000CF911F910F91FF90EF90DF90CF90089510
:1007C000089580E090E00895FC01538D448D252F1D
:1007D00030E0842F90E0821B930B541710F0CF96DB
:1007E000089501970895FC01918D828D981761F00D
:1007F000828DDF01A80FB11D5D968C91928D9F5F58
:100800009F73928F90E008958FEF9FEF0895FC0102
:10081000918D828D981731F0828DE80FF11D858DB5
:1008200090E008958FEF9FEF0895FC01918D228D48
:10083000892F90E0805C9F4F821B91098F739927CD
:10084000089582E391E00E94150421E0892B09F4C8
:1008500020E0822F0895FC01848DDF01A80FB11DD7
:10086000A35ABF4F2C91848D90E001968F739927E6
:10087000848FA689B7892C93A089B1898C918370C4
:1008800080648C93938D848D981306C00288F389BD
:10089000E02D80818F7D80830895EF92FF920F93EA
:1008A0001F93CF93DF93EC0181E0888F9B8D8C8D1C
:1008B000981305C0E889F989808185FD26C0F62E48
:1008C0000B8D10E00F5F1F4F0F731127E02E8C8DE3
:1008D000E8120CC00FB607FCFACFE889F9898081CD
:1008E00085FFF5CFCE010E942B04F1CF8B8DFE0149
:1008F000E80FF11DE35AFF4FF0829FB7F8940B8F7A
:10090000EA89FB89808180620AC09FB7F894EE89EA
:10091000FF896083E889F98980818370806480839E
:100920009FBF81E090E0DF91CF911F910F91FF90E9
:10093000EF900895CF93DF93EC01888D8823C9F061
:10094000EA89FB89808185FD05C0A889B9898C91D8
:1009500086FD0FC00FB607FCF5CF808185FFF2CF73
:10096000A889B9898C9185FFEDCFCE010E942B0417
:10097000E7CFDF91CF91089580E090E0892B29F0B7
:100980000E94210481110C9400000895DC01599605
:10099000ED91FC915A97309709F009940895CF9200
:1009A000DF92EF92FF920F931F93CF93DF93EC01AF
:1009B000CD80DE80EF80F8840E9437036C157D05C2
:1009C0008E059F0508F43EC0288130E0F901EA5009
:1009D000FE4F8491F901E65FFD4F0491F901E85D56
:1009E000FD4F14911123A1F081110E94BE01E12F4E
:1009F000F0E0EE0FFF1FE859FF4FA591B491EC9185
:100A0000E02331E020E009F430E0832F922F02C090
:100A100080E090E02B8130E02817390799F00E94A0
:100A2000370329813A81DC01CB01820F931FA11D7D
:100A3000B11D8D839E83AF83B8878B8191E0892719
:100A40008B839C838B81811105C08C81882319F055
:100A50001C8201C080E0DF91CF911F910F91FF9028
:100A6000EF90DF90CF900895CF92DF92EF92FF92B8
:100A7000CF93DF93C82F8C3119F4109222010DC04F
:100A8000803311F48CE107C08C3311F480E303C090
:100A9000803419F48CE380932201D0912201DC1779
:100AA000E0F44FEF50E060E070E08D2F90E00E94A6
:100AB0004A010E9477020E9437036B017C010E9469
:100AC0003703DC01CB018C199D09AE09BF09C29720
:100AD000A105B105A0F3DF5FE2CFDF91CF91FF90D9
:100AE000EF90DF90CF900895E8E0F2E044815581E7
:100AF00060E070E0818592850E944B0C0E94770235
:100B00001092240184E08093230160E087E00C943C
:100B1000E7010E94460C1F920F920FB60F9211240C
:100B20002F933F938F939F93AF93BF938091260111
:100B300090912701A0912801B091290130912501C0
:100B400023E0230F2D3720F40196A11DB11D05C010
:100B500026E8230F0296A11DB11D20932501809345
:100B6000260190932701A0932801B0932901809139
:100B70002A0190912B01A0912C01B0912D01019699
:100B8000A11DB11D80932A0190932B01A0932C01EC
:100B9000B0932D01BF91AF919F918F913F912F9174
:100BA0000F900FBE0F901F9018951F920F920FB6C7
:100BB0000F9211242F933F934F935F936F937F93E3
:100BC0008F939F93AF93BF93EF93FF9382E391E053
:100BD0000E942B04FF91EF91BF91AF919F918F9154
:100BE0007F916F915F914F913F912F910F900FBE29
:100BF0000F901F9018951F920F920FB60F9211240D
:100C00002F938F939F93EF93FF93E0914201F09185
:100C100043018081E0914801F091490182FD12C0B9
:100C2000908180914B018F5F8F7320914C018217CF
:100C300051F0E0914B01F0E0EE5CFE4F958F809318
:100C40004B0101C08081FF91EF919F918F912F9176
:100C50000F900FBE0F901F901895109235011092B3
:100C6000340188EE93E0A0E0B0E0809336019093E9
:100C70003701A0933801B09339018AE091E0909355
:100C800033018093320185EC90E090933F01809393
:100C90003E0184EC90E0909341018093400120EC70
:100CA00030E0309343012093420181EC90E0909337
:100CB00045018093440182EC90E09093470180933A
:100CC000460186EC90E09093490180934801109290
:100CD0004B0110924C0110924D0110924E01109256
:100CE000090210921002109217021092180210922C
:100CF000190210921A0281E0809316028093130267
:100D00001092140292E0909315028093080230939F
:100D10000D0220930C0280EC90E00E94250B909332
:100D2000120280931102009761F020ECFC011192F5
:100D30002A95E9F780E490E090930B0280930A02F1
:100D400008C010920D0210920C0210920B02109229
:100D50000A0286E090E090930F0280930E02809149
:100D60000902882341F061E086E00E94160260E0FB
:100D700086E00E94E701EEE2F2E0E491F0E0EE0F9F
:100D8000FF1FE25EFD4F8591949190931C0280932A
:100D90001B02E0E1F2E0E491E0931D0285E0809324
:100DA000FF0124EF31E0309301022093000281E043
:100DB0008093020210920302109204021092050224
:100DC000109206021092070294E09093F60130937D
:100DD000F8012093F7018093F9011092FA01109223
:100DE000FB011092FC011092FD011092FE012CE11A
:100DF00031E03093DC012093DB011092DD01109291
:100E0000DE011092DF011092E0011092E1011092D8
:100E1000E2011092E3011092E4011092E7011092B6
:100E2000E8011092E9011092EA011092EB01109290
:100E3000EC011092ED011092EE012FEF3FEF309395
:100E4000F0012093EF011092E5011092E60110925B
:100E5000F3011092F5011092F4019091D3019111D8
:100E60000AC01092D2011092D1011092D0011092BA
:100E7000CF018093D30184E090E00E94250BFC0118
:100E8000118210822BED31E033832283E091D10176
:100E9000F091D201309749F49093D2018093D1011F
:100EA0009093D0018093CF01089591838083909394
:100EB000D2018093D1010895CF93DF9300D000D069
:100EC00000D0CDB7DEB7789484B5826084BD84B598
:100ED000816084BD85B5826085BD85B5816085BD35
:100EE00080916E00816080936E00109281008091ED
:100EF0008100826080938100809181008160809375
:100F00008100809180008160809380008091B10099
:100F100084608093B1008091B00081608093B000C4
:100F200080917A00846080937A0080917A00826058
:100F300080937A0080917A00816080937A0080911A
:100F40007A00806880937A001092C100E09142019B
:100F5000F091430182E08083E0913E01F0913F01F6
:100F60001082E0914001F091410180E18083109274
:100F70004A01E0914601F091470186E08083E091CB
:100F80004401F0914501808180618083E0914401BA
:100F9000F0914501808188608083E0914401F09167
:100FA0004501808180688083E0914401F091450192
:100FB00080818F7D808361E086E00E94160260E080
:100FC00085E00E94160260E084E00E94160261E063
:100FD00087E00E94160260E087E00E94E70162E07D
:100FE0008091FF010E94160262E08091F6010E944A
:100FF000160284E795E09093F5018093F40180ED6B
:1010000097E0A0E0B0E08093E7019093E801A0931F
:10101000E901B093EA0181E090E09093F0018093C0
:10102000EF019093F2018093F1018093F30180919D
:101030000E0290910F0297FD08C061E00E94160217
:1010400060E080910E020E94E70181E08093090236
:101050000E94770260911002693C21F120911102F7
:1010600030911202615031F070E08FEF98EC0E94E5
:10107000BB0A02C060E070E0F90140910C0250919F
:101080000D02CF01821B930B8417950740F440811A
:10109000469FC001479F900D11249193EECF89EC9C
:1010A0008093100202E710E0F801649161110DC015
:1010B00042E050E06EE171E082E391E00E94B6030D
:1010C0005E01F5E0AF0EB11C3AC082E391E00E94F0
:1010D0004D040F5F1F4F892B39F7EACF8091240110
:1010E0008F5F84309CF58093240186EF91E00E940D
:1010F000CF0481112FC080912401823009F453C0A4
:10110000A4F58823B9F1813009F43EC08091D30160
:1011100081110BC01092D2011092D1011092D00116
:101120001092CF0181E08093D301E090CF01F09045
:10113000D001E114F10409F07AC10E94BC048FEFE0
:1011400091E00E94CF04882381F2C8CF24E020934D
:101150002401CBCF80912401815018161CF4809378
:101160002401C9CF10922401C6CF833059F18430B5
:10117000F1F1CCCF80912301813019F480E00E94FD
:101180004303109223012EC080912301811104C0DA
:101190008CE10E94340505C0823019F48CE10E9474
:1011A000430381E01DC080912301813021F480E35D
:1011B0000E94340505C0833019F480E30E94430384
:1011C00082E00EC080912301823021F48CE30E94E2
:1011D000340505C0843019F48CE30E94430383E096
:1011E0008093230160E087E00E94E7018FCF61E0F8
:1011F00087E00E94E7018091E601882309F440C05E
:101200000E9437032091E1013091E2018B01021B22
:10121000130B0E9437036093E1017093E201809306
:10122000E3019093E401012E000C220B330B80911B
:10123000DD019091DE01A091DF01B091E001800F0E
:10124000911FA21FB31F8093DD019093DE01A09335
:10125000DF01B093E0018091EB019091EC01A0914E
:10126000ED01B091EE01080F191F2A1F3B1F0093DB
:10127000EB011093EC012093ED013093EE0122C0BD
:101280000E9437036093DD017093DE018093DF01DC
:101290009093E0016093E1017093E2018093E30198
:1012A0009093E4016093EB017093EC018093ED0166
:1012B0009093EE018091F1019091F2019093F001F1
:1012C0008093EF0181E08093E5011092E601212CEB
:1012D000312C21017EEFE72EF12C8F2D90E09E83A3
:1012E0008D8320910A0230910B028217930708F038
:1012F00090C08F2D90E0A0E0B0E07727662740E017
:1013000050E00E94CF0A220D331DAAEFB5E00E94E3
:10131000EE0ADC01CB019058AF4FBF4FCD01BB2788
:1013200097FDB095AB2F8E3FE1E09E0758F48F3FBD
:10133000910518F4682F80E028C09E2D981B80E04E
:101340006FEF24C08C3FF3E09F0760F48D3F42E0D5
:10135000940718F48E5F6FEF03C06CEF681B8FEF7C
:1013600090E014C08A3FE5E09E0769F08B3FF4E00F
:101370009F0728F494E0980F8FEF60E007C02AEFF2
:10138000281B822F01C080E060E09FEF692E712C46
:10139000862E912CC82ED12CC401A0E0B0E0BA2F2B
:1013A000A92F982F88278827AA27BB27A60160E0A6
:1013B00070E08C019D01042B152B262B372BC301CC
:1013C000A0E0B0E0DC0199278827AC01BD014427EB
:1013D00055277727D901C801842B952BA62BB72B2E
:1013E00089839A83AB83BC83DE011196EC91F0E094
:1013F000E451FF4FE491ED93AA16BB06B9F749817A
:101400005A816B817C818D819E810E944A01F39477
:1014100064CF0E9477024FEF341A440A540A211411
:10142000310485E04806510409F056CF6FCED7014C
:1014300012960D911C911397F8018285882309F467
:101440003FC00E943703D80116966D937D938D930C
:101450009C93199758962C915897222389F150966E
:101460002D913D914D915C915397DC01CB01821BF5
:10147000930BA40BB50BF80124853585468557855C
:1014800082179307A407B507D8F084899589009738
:1014900019F41286138614C00197958B848B0190E2
:1014A000F081E02D0190F081E02DC8010995F8014F
:1014B00086819781A085B185808B918BA28BB38B20
:1014C000D701ED90FC9035CE8CE191E09093DC015A
:1014D0008093DB018091D30181110BC01092D20166
:1014E0001092D1011092D0011092CF0181E080932F
:1014F000D3018091CF019091D001FC01A0E0B0E038
:10150000309749F1228133812B5D3140F9F41097F6
:1015100029F02081318111963C932E932091D101A5
:101520003091D201E217F30721F4B093D201A093D6
:10153000D1018E179F0731F4808191819093D00162
:101540008093CF01CF010E94BD0B05C0DF01019048
:10155000F081E02DD5CF80911102909112020E946E
:10156000BD0B80910E0290910F0297FD03C060E0C9
:101570000C9416020895AA1BBB1B51E107C0AA1FB9
:10158000BB1FA617B70710F0A61BB70B881F991F24
:101590005A95A9F780959095BC01CD010895052E27
:1015A00097FB1EF400940E94E60A57FD07D00E94A4
:1015B000FD0A07FC03D04EF40C94E60A50954095C2
:1015C000309521953F4F4F4F5F4F089590958095EF
:1015D000709561957F4F8F4F9F4F0895A29FB001E7
:1015E000B39FC001A39F700D811D1124911DB29F57
:1015F000700D811D1124911D0895A1E21A2EAA1BC0
:10160000BB1BFD010DC0AA1FBB1FEE1FFF1FA217B2
:10161000B307E407F50720F0A21BB30BE40BF50BAF
:10162000661F771F881F991F1A9469F76095709538
:10163000809590959B01AC01BD01CF010895EE0FFF
:10164000FF1F0590F491E02D09940F931F93CF9302
:10165000DF938230910510F482E090E0E091200267
:10166000F091210220E030E0A0E0B0E0309719F1E5
:10167000408151810281138148175907C8F08417AE
:10168000950769F4109731F012960C931297139600
:101690001C9327C0009320021093210222C0211521
:1016A000310519F04217530718F49A01BD01EF01F3
:1016B000DF01F801DBCF21153105F9F0281B390BCB
:1016C0002430310580F48A819B816115710521F0F8
:1016D000FB019383828304C09093210280932002B4
:1016E000FE01329644C0FE01E20FF31F81939193F5
:1016F00022503109398328833AC020911E0230914B
:101700001F02232B41F420910201309103013093F9
:101710001F0220931E02209100013091010121152A
:10172000310541F42DB73EB74091040150910501B8
:10173000241B350BE0911E02F0911F02E217F30704
:10174000A0F42E1B3F0B2817390778F0AC014E5F31
:101750005F4F2417350748F04E0F5F1F50931F024D
:1017600040931E028193919302C0E0E0F0E0CF012C
:10177000DF91CF911F910F910895CF93DF93009741
:1017800009F481C0FC01329713821282A0912002D9
:10179000B0912102109781F420813181820F931F33
:1017A00020911E0230911F022817390751F5F0933E
:1017B0001F02E0931E0267C0ED0120E030E0CE176B
:1017C000DF0740F44A815B819E0141155105F1F02C
:1017D000EA01F5CFD383C28340815181840F951FE5
:1017E000C817D90759F488819981840F951F0296EB
:1017F000918380838A819B81938382832115310524
:1018000029F4F0932102E09320023DC0E901FB831B
:10181000EA8349915991C40FD51FEC17FD0761F474
:1018200080819181840F951F0296E90199838883B5
:10183000828193819B838A83E0E0F0E012968D9110
:101840009C911397009719F0FD01DC01F7CF8D9162
:101850009C9111979D012E5F3F4F820F931F209106
:101860001E0230911F022817390769F4309729F4B6
:10187000109221021092200202C013821282B093B1
:101880001F02A0931E02DF91CF91089581E090E0A6
:10189000F8940C94520CDC0101C06D9341505040FF
:1018A000E0F7089511E0CFE1D1E004C0FE010E940D
:0E18B0001F0B2196C032D107C9F7F894FFCF65
:1018BE00000022028000000000004D04B603E40385
:1018CE009A041504F303070400000000C6040D0A71
:0218DE00000008
:00000001FF
