:100000000C9420010C9448010C9448010C94480174
:100010000C9448010C9448010C9448010C9448013C
:100020000C9448010C9448010C9448010C9448012C
:100030000C9448010C9448010C9448010C9448011C
:100040000C94AF050C9448010C941F060C94F90510
:100050000C9448010C9448010C9448010C944801FC
:100060000C9448010C944801000000002300260075
:1000700029005F5F5F5F5F5F5F5F5F5F5F5F5F5F25
:100080005F5F5F5F5F5F5F5F5F5F5F5F5F5F5F5F80
:100090005F0A0A202020472065206120722020204E
:1000A0004D2061206320682069206E20652020207B
:1000B00020200A5F5F5F5F5F5F5F5F5F5F5F5F5F23
:1000C0005F5F5F5F5F5F5F5F5F5F5F5F5F5F5F5F40
:1000D0005F5F0A0A4D616465206279204B442054B9
:1000E0006563686E6F6C6F67790A0A000000000034
:1000F0000000000000000000000000000000000000
:1001000000000000010101010101010101010101E3
:1001100002020202020202020303030303030404B5
:100120000404050505050506060606070707080871
:10013000080909090A0A0A0B0B0B0C0C0D0D0D0E10
:100140000E0F0F101011111212131314141515168F
:100150001617181819191A1B1B1C1D1D1E1F1F20EE
:1001600021222223242526262728292A2A2B2C2D22
:100170002E2F303132333435363738393A3B3C3D27
:100180003E3F4041424445464748494B4C4D4E5006
:10019000515254555658595A5C5D5E6061636466AD
:1001A00067696A6C6D6F7072737577787A7C7D7F22
:1001B0008182848688898B8D8F91929496989A9C5F
:1001C0009EA0A2A4A6A8AAACAEB0B2B4B6B8BABC5F
:1001D000BFC1C3C5C7CACCCED1D3D5D7DADCDFE126
:1001E000E3E6E8EBEDF0F2F5F7FAFCFF00000000C3
:1001F000240027002A00000000080002010000037C
:1002000004070000000000000000010204081020A4
:1002100040800102040810200102040810200000A0
:100220000000250028002B00040404040404040436
:100230000202020202020303030303035106840ABB
:1002400011241FBECFEFD8E0DEBFCDBF11E0A0E08C
:10025000B1E0EEEFF8E102C005900D92AC32B107CB
:10026000D9F722E0ACE2B1E001C01D92AC32B20796
:10027000E1F711E0CFE1D1E004C02197FE010E9437
:100280003F0BCE31D107C9F70E9480070C94720C46
:100290000C9400008F929F92AF92BF92CF92DF9208
:1002A000EF92FF92CF93DF932091140230911502C9
:1002B0008217930708F057C04B01AA24BB24F82DDE
:1002C000C52ED62EE72EFF24AC2DE42F20911A0246
:1002D000222361F0829E40011124F92D2C9D6001A2
:1002E0001124AD2D249FE0011124ED2F3091200227
:1002F000B0911D02E0901B02F0901C023B1308C05D
:100300009C01220F331F820F931F8E0D9F1D19C05A
:10031000880F991F880F991F8E0D9F1D472F5527F6
:1003200066277727EC01C30FD11D222349F030E067
:10033000249F7001259FF00C349FF00C11244F2D49
:10034000488320911D02EC01C20FD11DF88320913A
:100350001E02EC01C20FD11DA88320911F02DC01F7
:10036000A20FB11DEC93DF91CF91FF90EF90DF9042
:10037000CF90BF90AF909F908F900895833081F081
:1003800028F4813099F08230A1F008958730A9F0E7
:100390008830B9F08430D1F4809180008F7D03C023
:1003A000809180008F7780938000089584B58F7747
:1003B00002C084B58F7D84BD08958091B0008F7791
:1003C00003C08091B0008F7D8093B00008951F938B
:1003D000CF93DF93282F30E0F901EA50FE4F84914C
:1003E000F901E65FFD4FD491F901E85DFD4FC4913D
:1003F000CC23C1F0162F81110E94BE01EC2FF0E03A
:10040000EE0FFF1FE25EFD4FA591B4919FB7F894E8
:10041000111104C08C91D095D82302C0EC91DE2B31
:10042000DC939FBFDF91CF911F910895CF93DF930E
:1004300090E0FC01E65FFD4F2491FC01E85DFD4F7B
:100440008491882361F190E0880F991FFC01E451A9
:10045000FE4FC591D491FC01E25EFD4FA591B49190
:10046000611109C09FB7F894888120958223888301
:10047000EC912E230BC0623061F49FB7F894888111
:10048000322F309583238883EC912E2B2C939FBFA2
:1004900006C08FB7F894E8812E2B28838FBFDF9199
:1004A000CF9108953FB7F894809134019091350130
:1004B000A0913601B091370126B5A89B05C02F3F0A
:1004C00019F00196A11DB11D3FBFBA2FA92F982F7A
:1004D0008827820F911DA11DB11DBC01CD0142E0F5
:1004E000660F771F881F991F4A95D1F708950F93BC
:1004F0001F93CF93DF93CDB7DEB729970FB6F8944C
:10050000DEBF0FBECDBF80911B0290911C02892BD4
:1005100009F4A2C00E94520200912102109122020D
:100520002091230230912402DC01CB01801B910B2E
:10053000A20BB30B8C329140A105B10558F3F8948E
:1005400080911602909117029A838983E0911B0291
:10055000F0911C02DF01119680818987909112022F
:10056000E0912502F091260280912702992309F457
:100570002EC09081982B98879081809589238F83B6
:100580008F818C8388E08B8358856F8149853B817F
:100590002C8189819A81508347FD252F3A952083AC
:1005A000262F39F0441F00C000006083000000C007
:1005B000F2CF38E04D9160830000019761F7F0932E
:1005C0002602E093250249873B832C8338C0908123
:1005D000982B98879081809589238F838F818E8334
:1005E00088E08D8358856F8149853D812E81898181
:1005F0009A81508347FD252F00C000C0208300C092
:1006000000C000C000C000C060830000262F3A95E3
:1006100041F0441F000000C000C000C000C000C086
:10062000E8CF38E04D9100C0608300C0019709F722
:10063000F0932602E093250249873D832E839A8317
:10064000898378940E94520260932102709322025F
:10065000809323029093240229960FB6F894DEBF6C
:100660000FBECDBFDF91CF911F910F9108952FB78E
:10067000F894609130017091310180913201909134
:1006800033012FBF0895CF92DF92EF92FF920F9325
:100690001F93CF93082F8C3131F0803331F08C339E
:1006A00031F0CCE105C0C0E303C0CCE301C0C0E43D
:1006B0000E943703C0903801D0903901E0903A0190
:1006C000F0903B01DC01CB018C199D09AE09BF09FB
:1006D000C397A105B105F8F00E9437036093380174
:1006E0007093390180933A0190933B011FEF1C0FE7
:1006F000E02EF12C812F012E000C990B8E159F05F9
:1007000054F040E050E06FEF70E00E944A010E9418
:1007100077021150EFCF0E9437036B017C010E94DA
:100720003703DC01CB018C199D09AE09BF09883E56
:100730009340A105B10598F3C15010E08C2F0C2E09
:10074000000C990B801791074CF040E050E0BA0183
:100750000E944A010E947702C150F0CFCF911F91B1
:100760000F91FF90EF90DF90CF900895CF92DF929E
:10077000EF92FF920F931F93CF93DF936C017A0157
:100780008B01C0E0D0E0CE15DF0581F0D8016D917E
:100790008D01D601ED91FC910190F081E02DC60113
:1007A0000995892B11F02196EECF7E01C701DF91CB
:1007B000CF911F910F91FF90EF90DF90CF90089510
:1007C000089580E090E00895FC01538D448D252F1D
:1007D00030E0842F90E0821B930B541710F0CF96DB
:1007E000089501970895FC01918D828D981761F00D
:1007F000828DDF01A80FB11D5D968C91928D9F5F58
:100800009F73928F90E008958FEF9FEF0895FC0102
:10081000918D828D981731F0828DE80FF11D858DB5
:1008200090E008958FEF9FEF0895FC01918D228D48
:10083000892F90E0805C9F4F821B91098F739927CD
:1008400008958CE391E00E94150421E0892B09F4BE
:1008500020E0822F0895FC01848DDF01A80FB11DD7
:10086000A35ABF4F2C91848D90E001968F739927E6
:10087000848FA689B7892C93A089B1898C918370C4
:1008800080648C93938D848D981306C00288F389BD
:10089000E02D80818F7D80830895EF92FF920F93EA
:1008A0001F93CF93DF93EC0181E0888F9B8D8C8D1C
:1008B000981305C0E889F989808185FD26C0F62E48
:1008C0000B8D10E00F5F1F4F0F731127E02E8C8DE3
:1008D000E8120CC00FB607FCFACFE889F9898081CD
:1008E00085FFF5CFCE010E942B04F1CF8B8DFE0149
:1008F000E80FF11DE35AFF4FF0829FB7F8940B8F7A
:10090000EA89FB89808180620AC09FB7F894EE89EA
:10091000FF896083E889F98980818370806480839E
:100920009FBF81E090E0DF91CF911F910F91FF90E9
:10093000EF900895CF93DF93EC01888D8823C9F061
:10094000EA89FB89808185FD05C0A889B9898C91D8
:1009500086FD0FC00FB607FCF5CF808185FFF2CF73
:10096000A889B9898C9185FFEDCFCE010E942B0417
:10097000E7CFDF91CF91089580E090E0892B29F0B7
:100980000E94210481110C9400000895DC01599605
:10099000ED91FC915A97309709F009940895CF9200
:1009A000DF92EF92FF920F931F93CF93DF93EC01AF
:1009B000CD80DE80EF80F8840E9437036C157D05C2
:1009C0008E059F0508F43EC0288130E0F901EA5009
:1009D000FE4F8491F901E65FFD4F0491F901E85D56
:1009E000FD4F14911123A1F081110E94BE01E12F4E
:1009F000F0E0EE0FFF1FE859FF4FA591B491EC9185
:100A0000E02331E020E009F430E0832F922F02C090
:100A100080E090E02B8130E02817390799F00E94A0
:100A2000370329813A81DC01CB01820F931FA11D7D
:100A3000B11D8D839E83AF83B8878B8191E0892719
:100A40008B839C838B81811105C08C81882319F055
:100A50001C8201C080E0DF91CF911F910F91FF9028
:100A6000EF90DF90CF900895CF92DF92EF92FF92B8
:100A7000CF93DF93C82F8C3119F410922C010DC045
:100A8000803311F48CE107C08C3311F480E303C090
:100A9000803419F48CE380932C01D0912C01DC1765
:100AA000E0F44FEF50E060E070E08D2F90E00E94A6
:100AB0004A010E9477020E9437036B017C010E9469
:100AC0003703DC01CB018C199D09AE09BF09C29720
:100AD000A105B105A0F3DF5FE2CFDF91CF91FF90D9
:100AE000EF90DF90CF90089510922E0184E08093D4
:100AF0002D0160E087E00E94E701E2E1F2E044813D
:100B0000558160E070E0818592850E946B0C0C94A9
:100B1000770242E050E06EE171E08CE391E00C94EA
:100B2000B603CF93DF93009779F0FC01019000208A
:100B3000E9F73197AF01481B590BBC018CE391E0F9
:100B40000E94B603EC0102C0C0E0D0E00E9489051B
:100B50008C0F9D1FDF91CF9108950E94660C1F920C
:100B60000F920FB60F9211242F933F938F939F9361
:100B7000AF93BF938091300190913101A0913201E8
:100B8000B091330130912F0123E0230F2D3720F452
:100B90000196A11DB11D05C026E8230F0296A11DD7
:100BA000B11D20932F018093300190933101A093C8
:100BB0003201B09333018091340190913501A091BD
:100BC0003601B09137010196A11DB11D809334010A
:100BD00090933501A0933601B0933701BF91AF9147
:100BE0009F918F913F912F910F900FBE0F901F906B
:100BF00018951F920F920FB60F9211242F933F93C7
:100C00004F935F936F937F938F939F93AF93BF9314
:100C1000EF93FF938CE391E00E942B04FF91EF91FF
:100C2000BF91AF919F918F917F916F915F914F9104
:100C30003F912F910F900FBE0F901F9018951F920C
:100C40000F920FB60F9211242F938F939F93EF93D0
:100C5000FF93E0914C01F0914D018081E0915201B0
:100C6000F091530182FD12C09081809155018F5FF8
:100C70008F7320915601821751F0E0915501F0E0F9
:100C8000E45CFE4F958F8093550101C08081FF91F8
:100C9000EF919F918F912F910F900FBE0F901F900A
:100CA000189510923F0110923E0188EE93E0A0E06B
:100CB000B0E08093400190934101A0934201B09332
:100CC00043018AE091E090933D0180933C0185ECE3
:100CD00090E0909349018093480184EC90E09093D8
:100CE0004B0180934A0120EC30E030934D0120937A
:100CF0004C0181EC90E090934F0180934E0182EC87
:100D000090E0909351018093500186EC90E0909395
:100D10005301809352011092550110925601109286
:100D20005701109258011092130210921A02109259
:100D3000210210922202109223021092240281E0DA
:100D40008093200280931D0210921E0292E09093E5
:100D50001F0280931202309317022093160280EC38
:100D600090E00E94450B90931C0280931B02009719
:100D700061F020ECFC0111922A95E9F780E490E003
:100D8000909315028093140208C0109217021092DB
:100D90001602109215021092140286E090E09093D1
:100DA00019028093180280911302882341F061E0B8
:100DB00086E00E94160260E086E00E94E701EEE213
:100DC000F2E0E491F0E0EE0FFF1FE25EFD4F85914F
:100DD00094919093260280932502E0E1F2E0E49161
:100DE000E093270289E08093090224EF31E03093F9
:100DF0000B0220930A0281E080930C0210920D02F4
:100E000010920E0210920F02109210021092110214
:100E10009AE09093000230930202209301028093A3
:100E20000302109204021092050210920602109220
:100E30000702109208022CE131E03093E601209382
:100E4000E5011092E7011092E8011092E901109279
:100E5000EA011092EB011092EC011092ED01109258
:100E6000EE011092F1011092F2011092F301109232
:100E7000F4011092F5011092F6011092F701109210
:100E8000F8012FEF3FEF3093FA012093F901109210
:100E9000EF011092F0011092FD011092FF011092EB
:100EA000FE019091DD0191110AC01092DC011092B7
:100EB000DB011092DA011092D9018093DD0184E008
:100EC00090E00E94450BFC011182108225EE31E07A
:100ED00033832283E091DB01F091DC01309749F408
:100EE0009093DC018093DB019093DA018093D90128
:100EF0000895918380839093DC018093DB010895B2
:100F0000CF93DF9300D000D000D0CDB7DEB7789478
:100F100084B5826084BD84B5816084BD85B58260FE
:100F200085BD85B5816085BD80916E0081608093AF
:100F30006E00109281008091810082608093810018
:100F40008091810081608093810080918000816028
:100F5000809380008091B10084608093B100809183
:100F6000B00081608093B00080917A0084608093AB
:100F70007A0080917A00826080937A0080917A0072
:100F8000816080937A0080917A00806880937A00F3
:100F90001092C100E0914C01F0914D0182E08083FC
:100FA000E0914801F09149011082E0914A01F091ED
:100FB0004B0180E1808310925401E0915001F09147
:100FC000510186E08083E0914E01F0914F018081D4
:100FD00080618083E0914E01F0914F0180818860B3
:100FE0008083E0914E01F0914F0180818068808381
:100FF000E0914E01F0914F0180818F7D808361E00F
:1010000086E00E94160261E087E00E94160260E01E
:1010100087E00E94E70162E0809109020E941602C7
:1010200062E0809100020E94160284E795E09093AE
:10103000FF018093FE0180ED97E0A0E0B0E0809397
:10104000F1019093F201A093F301B093F40181E0D8
:1010500090E09093FA018093F9019093FC018093C2
:10106000FB018093FD01809118029091190297FD78
:1010700008C061E00E94160260E0809118020E94A0
:10108000E70181E0809313020E94770260911A02C7
:10109000693C21F120911B0230911C02615031F01A
:1010A00070E08FEF98EC0E94DB0A02C060E070E015
:1010B000F9014091160250911702CF01821B930B48
:1010C0008417950740F44081469FC001479F900DCB
:1010D00011249193EECF89EC80931A0202E710E07D
:1010E000F8016491611107C00E9489055E01F5E075
:1010F000AF0EB11C43C08CE391E00E944D040F5F22
:101100001F4F892B69F7F0CF80912E018F5F80935D
:101110002E0181E291E00E94910580912E018430A0
:101120001CF024E020932E0180E092E00E94CF0486
:1011300081112BC080912E01823009F454C0ACF58E
:101140008823C1F1813009F43FC08091DD01811114
:101150000BC01092DC011092DB011092DA011092A8
:10116000D90181E08093DD01E090D901F090DA01AE
:10117000E114F10409F07BC10E94BC0489E092E013
:101180000E94CF04882381F2BFCF80912E0181502D
:1011900080932E0186E291E00E94910580912E01BC
:1011A000181644F210922E01C5CF833059F18430C5
:1011B000F1F1CBCF80912D01813019F480E00E94B4
:1011C000430310922D012EC080912D01811104C086
:1011D0008CE10E94340505C0823019F48CE10E9434
:1011E000430381E01DC080912D01813021F480E313
:1011F0000E94340505C0833019F480E30E94430344
:1012000082E00EC080912D01823021F48CE30E9497
:10121000340505C0843019F48CE30E94430383E055
:1012200080932D0160E087E00E94E7018ECF61E0AE
:1012300087E00E94E7018091F001882309F440C013
:101240000E9437032091EB013091EC018B01021BCE
:10125000130B0E9437036093EB017093EC018093B2
:10126000ED019093EE01012E000C220B330B8091C7
:10127000E7019091E801A091E901B091EA01800FA6
:10128000911FA21FB31F8093E7019093E801A093E1
:10129000E901B093EA018091F5019091F601A091E6
:1012A000F701B091F801080F191F2A1F3B1F009387
:1012B000F5011093F6012093F7013093F80122C055
:1012C0000E9437036093E7017093E8018093E9017E
:1012D0009093EA016093EB017093EC018093ED0130
:1012E0009093EE016093F5017093F6018093F701FE
:1012F0009093F8018091FB019091FC019093FA0189
:101300008093F90181E08093EF011092F001212C8C
:10131000312C21017EEFE72EF12C8F2D90E09E8362
:101320008D8320911402309115028217930708F0E3
:1013300090C08F2D90E0A0E0B0E07727662740E0D6
:1013400050E00E94EF0A220D331DAAEFB5E00E9483
:101350000E0BDC01CB019058AF4FBF4FCD01BB2727
:1013600097FDB095AB2F8E3FE1E09E0758F48F3F7D
:10137000910518F4682F80E028C09E2D981B80E00E
:101380006FEF24C08C3FF3E09F0760F48D3F42E095
:10139000940718F48E5F6FEF03C06CEF681B8FEF3C
:1013A00090E014C08A3FE5E09E0769F08B3FF4E0CF
:1013B0009F0728F494E0980F8FEF60E007C02AEFB2
:1013C000281B822F01C080E060E09FEF692E712C06
:1013D000862E912CC82ED12CC401A0E0B0E0BA2FEB
:1013E000A92F982F88278827AA27BB27A60160E066
:1013F00070E08C019D01042B152B262B372BC3018C
:10140000A0E0B0E0DC0199278827AC01BD014427AA
:1014100055277727D901C801842B952BA62BB72BED
:1014200089839A83AB83BC83DE011196EC91F0E053
:10143000E451FF4FE491ED93AA16BB06B9F7498139
:101440005A816B817C818D819E810E944A01F39437
:1014500064CF0E9477024FEF341A440A540A2114D1
:10146000310485E04806510409F056CF6ECED7010D
:1014700012960D911C911397F8018285882309F427
:101480003FC00E943703D80116966D937D938D93CC
:101490009C93199758962C915897222389F150962E
:1014A0002D913D914D915C915397DC01CB01821BB5
:1014B000930BA40BB50BF80124853585468557851C
:1014C00082179307A407B507D8F0848995890097F8
:1014D00019F41286138614C00197958B848B0190A2
:1014E000F081E02D0190F081E02DC8010995F8010F
:1014F00086819781A085B185808B918BA28BB38BE0
:10150000D701ED90FC9034CE8CE191E09093E60110
:101510008093E5018091DD0181110BC01092DC0107
:101520001092DB011092DA011092D90181E08093D0
:10153000DD018091D9019091DA01FC01A0E0B0E0D9
:10154000309749F122813381255E3140F9F41097BB
:1015500029F02081318111963C932E932091DB015B
:101560003091DC01E217F30721F4B093DC01A09382
:10157000DB018E179F0731F4808191819093DA010E
:101580008093D901CF010E94DD0B05C0DF010190DE
:10159000F081E02DD5CF80911B0290911C020E941A
:1015A000DD0B809118029091190297FD03C060E055
:1015B0000C9416020895AA1BBB1B51E107C0AA1F79
:1015C000BB1FA617B70710F0A61BB70B881F991FE4
:1015D0005A95A9F780959095BC01CD010895052EE7
:1015E00097FB1EF400940E94060B57FD07D00E9443
:1015F0001D0B07FC03D04EF40C94060B5095409540
:10160000309521953F4F4F4F5F4F089590958095AE
:10161000709561957F4F8F4F9F4F0895A29FB001A6
:10162000B39FC001A39F700D811D1124911DB29F16
:10163000700D811D1124911D0895A1E21A2EAA1B7F
:10164000BB1BFD010DC0AA1FBB1FEE1FFF1FA21772
:10165000B307E407F50720F0A21BB30BE40BF50B6F
:10166000661F771F881F991F1A9469F760957095F8
:10167000809590959B01AC01BD01CF010895EE0FBF
:10168000FF1F0590F491E02D09940F931F93CF93C2
:10169000DF938230910510F482E090E0E0912A021D
:1016A000F0912B0220E030E0A0E0B0E0309719F19B
:1016B000408151810281138148175907C8F084176E
:1016C000950769F4109731F012960C9312971396C0
:1016D0001C9327C000932A0210932B0222C02115CD
:1016E000310519F04217530718F49A01BD01EF01B3
:1016F000DF01F801DBCF21153105F9F0281B390B8B
:101700002430310580F48A819B816115710521F0B7
:10171000FB019383828304C090932B0280932A025F
:10172000FE01329644C0FE01E20FF31F81939193B4
:1017300022503109398328833AC020912802309100
:101740002902232B41F420910201309103013093AF
:1017500029022093280220910001309101012115D6
:10176000310541F42DB73EB7409104015091050178
:10177000241B350BE0912802F0912902E217F307B0
:10178000A0F42E1B3F0B2817390778F0AC014E5FF1
:101790005F4F2417350748F04E0F5F1F5093290203
:1017A000409328028193919302C0E0E0F0E0CF01E2
:1017B000DF91CF911F910F910895CF93DF93009701
:1017C00009F481C0FC01329713821282A0912A028F
:1017D000B0912B02109781F420813181820F931FE9
:1017E00020912802309129022817390751F5F093EA
:1017F0002902E093280267C0ED0120E030E0CE1717
:10180000DF0740F44A815B819E0141155105F1F0EB
:10181000EA01F5CFD383C28340815181840F951FA4
:10182000C817D90759F488819981840F951F0296AA
:10183000918380838A819B819383828321153105E3
:1018400029F4F0932B02E0932A023DC0E901FB83C7
:10185000EA8349915991C40FD51FEC17FD0761F434
:1018600080819181840F951F0296E9019983888375
:10187000828193819B838A83E0E0F0E012968D91D0
:101880009C911397009719F0FD01DC01F7CF8D9122
:101890009C9111979D012E5F3F4F820F931F2091C6
:1018A0002802309129022817390769F4309729F462
:1018B00010922B0210922A0202C013821282B0935D
:1018C0002902A0932802DF91CF91089581E090E052
:1018D000F8940C94720CDC0101C06D93415050409F
:1018E000E0F7089511E0CFE1D1E004C0FE010E94CD
:0E18F0003F0B2196C032D107C9F7F894FFCF05
:1018FE0000002C022000000000004D04B603E4039B
:10190E009A041504F303070400000000C6040D0A30
:0C191E0000504C5553004D494E555300ED
:00000001FF
