:100000000C9420010C9448010C9448010C94480174
:100010000C9448010C9448010C9448010C9448013C
:100020000C9448010C9448010C9448010C9448012C
:100030000C9448010C9448010C9448010C9448011C
:100040000C948D030C9448010C940F040C94E90358
:100050000C9448010C9448010C9448010C944801FC
:100060000C9448010C9448015F5F5F5F5F5F5F5FC6
:100070005F5F5F5F5F5F5F5F5F5F5F5F5F5F5F5F90
:100080005F5F5F5F5F5F5F0A0A2020204720652077
:100090006120722020204D2061206320682069208B
:1000A0006E206520202020200A5F5F5F5F5F5F5F1A
:1000B0005F5F5F5F5F5F5F5F5F5F5F5F5F5F5F5F50
:1000C0005F5F5F5F5F5F5F5F0A0A4D61646520622B
:1000D00079204B4420546563686E6F6C6F67790AB2
:1000E0000A00000000000000000000000000000006
:1000F00000000000000000000000010101010101FA
:1001000001010101010102020202020202020303D3
:100110000303030304040404050505050506060698
:10012000060707070808080909090A0A0A0B0B0B42
:100130000C0C0D0D0D0E0E0F0F10101111121213CD
:100140001314141515161617181819191A1B1B1C39
:100150001D1D1E1F1F20212222232425262627287D
:10016000292A2A2B2C2D2E2F303132333435363795
:1001700038393A3B3C3D3E3F404142444546474882
:10018000494B4C4D4E50515254555658595A5C5D3E
:100190005E606163646667696A6C6D6F70727375C7
:1001A00077787A7C7D7F8182848688898B8D8F9118
:1001B000929496989A9C9EA0A2A4A6A8AAACAEB02F
:1001C000B2B4B6B8BABCBFC1C3C5C7CACCCED1D30E
:1001D000D5D7DADCDFE1E3E6E8EBEDF0F2F5F7FAAC
:1001E000FCFF00000000240027002A00000000009F
:1001F000230026002900000000080002010000037F
:1002000004070000000000000000010204081020A4
:1002100040800102040810200102040810200000A0
:100220000000250028002B00040404040404040436
:10023000020202020202030303030303280BB30AB0
:1002400011241FBECFEFD8E0DEBFCDBF11E0A0E08C
:10025000B1E0E6ECFBE102C005900D92A233B107DC
:10026000D9F722E0A2E3B1E001C01D92AA35B2079E
:10027000E1F711E0CFE1D1E004C02197FE010E9437
:10028000A30CCE31D107C9F70E942A070C94D60DD2
:100290000C940000CF92DF92EF92FF920F931F9386
:1002A000CF93DF936C017A018B01C0E0D0E0CE15D3
:1002B000DF0581F0D8016D918D01D601ED91FC91A2
:1002C0000190F081E02DC6010995892B11F021964E
:1002D000EECF7E01C701DF91CF911F910F91FF906B
:1002E000EF90DF90CF900895089580E090E008951A
:1002F000FC01538D448D252F30E0842F90E0821B2C
:10030000930B541710F0CF96089501970895FC01B0
:10031000918D828D981761F0828DDF01A80FB11D3C
:100320005D968C91928D9F5F9F73928F90E0089560
:100330008FEF9FEF0895FC01918D828D981731F01A
:10034000828DE80FF11D858D90E008958FEF9FEF6E
:100350000895FC01918D228D892F90E0805C9F4F44
:10036000821B91098F73992708958EE491E00E9472
:10037000A90121E0892B09F420E0822F0895FC01D6
:10038000848DDF01A80FB11DA35ABF4F2C91848D1E
:1003900090E001968F739927848FA689B7892C9353
:1003A000A089B1898C91837080648C93938D848DA6
:1003B000981306C00288F389E02D80818F7D8083A9
:1003C0000895EF92FF920F931F93CF93DF93EC0169
:1003D00081E0888F9B8D8C8D981305C0E889F98901
:1003E000808185FD26C0F62E0B8D10E00F5F1F4F1C
:1003F0000F731127E02E8C8DE8120CC00FB607FC8E
:10040000FACFE889F989808185FFF5CFCE010E9476
:10041000BF01F1CF8B8DFE01E80FF11DE35AFF4FB5
:10042000F0829FB7F8940B8FEA89FB898081806204
:100430000AC09FB7F894EE89FF896083E889F9893B
:1004400080818370806480839FBF81E090E0DF9132
:10045000CF911F910F91FF90EF900895CF93DF936D
:10046000EC01888D8823C9F0EA89FB89808185FDAC
:1004700005C0A889B9898C9186FD0FC00FB607FC0D
:10048000F5CF808185FFF2CFA889B9898C9185FF4E
:10049000EDCFCE010E94BF01E7CFDF91CF9108954C
:1004A00080E090E0892B29F00E94B50181110C9425
:1004B00000000895DC015996ED91FC915A97309710
:1004C00009F009940895CF93C0910001CF3F61F5E1
:1004D000E09134010E2E000CFF0BE95FFE4F80818E
:1004E00081508093330120913301E0913401022E39
:1004F000000C330B0E2E000CFF0BEA5FFE4F8081C9
:1005000090E0281739070CF46EC08091330140E069
:1005100050E0BA01082E000C990B0E944F050E9472
:100520008F0480913301DCCF80913401833064F5F6
:10053000E09134010E2E000CFF0BE95FFE4F80812D
:100540008093330120913301E0913401022E000C9D
:10055000330B0E2E000CFF0BE95FFE4F818190E004
:10056000281739078CF4809133014FEF50E060E099
:1005700070E0082E000C990B0E944F050E948F041A
:10058000809133018F5FDCCF80913401833059F546
:10059000E09134010E2E000CFF0BE95FFE4F8081CD
:1005A0008093330120913301E0913401022E000C3D
:1005B000330B0E2E000CFF0BE95FFE4F818190E0A4
:1005C0002817390784F4809133014FEF50E0BA01C6
:1005D000082E000C990B0E944F050E948F048091F9
:1005E00033018F5FDDCF809134018C0F8093340114
:1005F00080913401181624F48091340184301CF069
:10060000C195C0930001CF910895CF92DF92EF92F0
:10061000FF92CF93DF93C82F8C3119F410923201DF
:100620000DC0803311F48CE107C08C3311F480E3EA
:1006300003C0803419F48CE380933201D0913201ED
:10064000DC17E0F44FEF50E060E070E08D2F90E0B9
:100650000E944F050E948F040E945F066B017C017F
:100660000E945F06DC01CB018C199D09AE09BF0910
:10067000C297A105B105A0F3DF5FE2CFDF91CF9173
:10068000FF90EF90DF90CF9008951092380184E0B2
:100690008093370160E087E00C94F405CF92DF92FD
:1006A000EF92FF92CF93DF93EC01CD80DE80EF805D
:1006B000F8840E945F066C157D058E059F05D8F0B5
:1006C00088810E94CB052B8130E08217930799F037
:1006D0000E945F0629813A81DC01CB01820F931FC2
:1006E000A11DB11D8D839E83AF83B8878B8191E05F
:1006F00089278B839C838B81811105C08C81882302
:1007000019F01C8201C080E0DF91CF91FF90EF9043
:10071000DF90CF9008950E94CA0D1F920F920FB6DE
:100720000F9211242F933F938F939F93AF93BF9377
:100730008091460190914701A0914801B0914901F3
:100740003091450123E0230F2D3720F40196A11DA0
:10075000B11D05C026E8230F0296A11DB11D2093EF
:1007600045018093460190934701A0934801B093BF
:10077000490180914A0190914B01A0914C01B091A7
:100780004D010196A11DB11D80934A0190934B012B
:10079000A0934C01B0934D01BF91AF919F918F9168
:1007A0003F912F910F900FBE0F901F901895809141
:1007B0003D0181110BC010923C0110923B0110923F
:1007C0003A011092390181E080933D0189E391E083
:1007D00008951F920F920FB60F9211242F933F93FB
:1007E0004F935F936F937F938F939F93AF93BF9339
:1007F000EF93FF938EE491E00E94BF01FF91EF9190
:10080000BF91AF919F918F917F916F915F914F9128
:100810003F912F910F900FBE0F901F9018951F9230
:100820000F920FB60F9211242F938F939F93EF93F4
:10083000FF93E0915E01F0915F018081E09164019E
:10084000F091650182FD12C09081809167018F5FF8
:100850008F7320916801821751F0E0916701F0E0F9
:10086000E25BFE4F958F8093670101C08081FF910D
:10087000EF919F918F912F910F900FBE0F901F902E
:100880001895833081F028F4813099F08230A1F0FE
:1008900008958730A9F08830B9F08430D1F4809180
:1008A00080008F7D03C0809180008F7780938000CF
:1008B000089584B58F7702C084B58F7D84BD089577
:1008C0008091B0008F7703C08091B0008F7D8093BE
:1008D000B00008953FB7F89480914A0190914B0180
:1008E000A0914C01B0914D0126B5A89B05C02F3FAA
:1008F00019F00196A11DB11D3FBFBA2FA92F982F46
:100900008827820F911DA11DB11DBC01CD0142E0C0
:10091000660F771F881F991F4A95D1F708950F9387
:100920001F93CF93DF93CDB7DEB729970FB6F89417
:10093000DEBF0FBECDBF8091450290914602892B4C
:1009400009F4A2C00E946A0400914B0210914C026B
:1009500020914D0230914E02DC01CB01801B910BA6
:10096000A20BB30B8C329140A105B10558F3F8945A
:1009700080914002909141029A838983E0914502DF
:10098000F0914602DF0111968081898790913C02A7
:10099000E0914F02F091500280915102992309F4A5
:1009A0002EC09081982B98879081809589238F8382
:1009B0008F818C8388E08B8358856F8149853B814B
:1009C0002C8189819A81508347FD252F3A95208378
:1009D000262F39F0441F00C000006083000000C0D3
:1009E000F2CF38E04D9160830000019761F7F093FA
:1009F0005002E0934F0249873B832C8338C090819B
:100A0000982B98879081809589238F838F818E83FF
:100A100088E08D8358856F8149853D812E8189814C
:100A20009A81508347FD252F00C000C0208300C05D
:100A300000C000C000C000C060830000262F3A95AF
:100A400041F0441F000000C000C000C000C000C052
:100A5000E8CF38E04D9100C0608300C0019709F7EE
:100A6000F0935002E0934F0249873D832E839A838F
:100A7000898378940E946A0460934B0270934C02BD
:100A800080934D0290934E0229960FB6F894DEBFE4
:100A90000FBECDBFDF91CF911F910F9108958F921F
:100AA0009F92AF92BF92CF92DF92EF92FF92CF933D
:100AB000DF9320913E0230913F028217930708F0A6
:100AC00057C04B01AA24BB24F82DC52ED62EE72EE5
:100AD000FF24AC2DE42F20914402222361F0829E5A
:100AE00040011124F92D2C9D60011124AD2D249F6E
:100AF000E0011124ED2F30914A02B0914702E090BD
:100B00004502F09046023B1308C09C01220F331FA0
:100B1000820F931F8E0D9F1D19C0880F991F880F7C
:100B2000991F8E0D9F1D472F552766277727EC01AC
:100B3000C30FD11D222349F030E0249F7001259F6F
:100B4000F00C349FF00C11244F2D48832091470264
:100B5000EC01C20FD11DF88320914802EC01C20FB5
:100B6000D11DA88320914902DC01A20FB11DEC9395
:100B7000DF91CF91FF90EF90DF90CF90BF90AF903B
:100B80009F908F90089542E050E06FE271E08EE414
:100B900091E00C944A01CF93DF93282F30E0F901C4
:100BA000EA50FE4F8491F901E65FFD4FD491F901BF
:100BB000E85DFD4FC491CC2391F081110E94410466
:100BC000EC2FF0E0EE0FFF1FE451FE4FA591B49122
:100BD000EC91ED2381E090E021F480E002C080E020
:100BE00090E0DF91CF9108951F93CF93DF93282F4B
:100BF00030E0F901EA50FE4F8491F901E65FFD4FC4
:100C0000D491F901E85DFD4FC491CC23C1F0162FBA
:100C100081110E944104EC2FF0E0EE0FFF1FE25E15
:100C2000FD4FA591B4919FB7F894111104C08C9118
:100C3000D095D82302C0EC91DE2BDC939FBFDF91CF
:100C4000CF911F910895CF93DF9390E0FC01E65F71
:100C5000FD4F2491FC01E85DFD4F8491882361F1F3
:100C600090E0880F991FFC01EE51FE4FC591D49181
:100C7000FC01E25EFD4FA591B491611109C09FB7DF
:100C8000F8948881209582238883EC912E230BC0D1
:100C9000623061F49FB7F8948881322F30958323B6
:100CA0008883EC912E2B2C939FBF06C08FB7F894AE
:100CB000E8812E2B28838FBFDF91CF9108952FB726
:100CC000F89460914601709147018091480190919C
:100CD00049012FBF0895CF92DF92EF92FF920F93B9
:100CE0001F93CF93082F8C3131F0803331F08C3348
:100CF00031F0CCE105C0C0E303C0CCE301C0C0E4E7
:100D00000E945F06C0905202D0905302E0905402BD
:100D1000F0905502DC01CB018C199D09AE09BF0989
:100D2000C397A105B105F8F00E945F0660935202D7
:100D30007093530280935402909355021FEF1C0F3F
:100D4000E02EF12C812F012E000C990B8E159F05A2
:100D500054F040E050E06FEF70E00E944F050E94B9
:100D60008F041150EFCF0E945F066B017C010E943F
:100D70005F06DC01CB018C199D09AE09BF09883ED5
:100D80009340A105B10598F3C15010E08C2F0C2EB3
:100D9000000C990B801791074CF040E050E0BA012D
:100DA0000E944F050E948F04C150F0CFCF911F9138
:100DB0000F91FF90EF90DF90CF9008950F931F93C6
:100DC000CF93DF93EC018B85882351F10E945F065E
:100DD0002E813F818B01021B130B0E945F066E83E5
:100DE0007F8388879987C801110FAA0BBB0B4A81A3
:100DF0005B816C817D81480F591F6A1F7B1F4A836D
:100E00005B836C837D83488959896A897B89840FD8
:100E1000951FA61FB71F888B998BAA8BBB8B12C0FF
:100E20000E945F066A837B838C839D836E837F83AE
:100E300088879987688B798B8A8B9B8B8E899F8912
:100E40009D8B8C8B81E08A871B86DF91CF911F91D0
:100E50000F910895CF93DF93CDB7DEB728970FB6E4
:100E6000F894DEBF0FBECDBF789484B5826084BD98
:100E700084B5816084BD85B5826085BD85B581609E
:100E800085BD80916E00816080936E00109281001C
:100E900080918100826080938100809181008160D7
:100EA0008093810080918000816080938000809198
:100EB000B10084608093B1008091B0008160809324
:100EC000B00080917A00846080937A0080917A00EB
:100ED000826080937A0080917A00816080937A00AA
:100EE00080917A00806880937A001092C100E0912E
:100EF0005E01F0915F0182E08083E0915A01F09100
:100F00005B011082E0915C01F0915D0180E18083E2
:100F100010926601E0916201F091630186E08083A6
:100F2000E0916001F0916101808180618083E091B6
:100F30006001F0916101808188608083E0916001AF
:100F4000F0916101808180688083E0916001F0917F
:100F5000610180818F7D808361E086E00E942306AD
:100F600060E085E00E94230660E084E00E942306A2
:100F700060E083E00E94230660E08AE00E9423068E
:100F800060E089E00E94230661E087E00E9423067A
:100F900060E087E00E94F40562E0809133020E94E5
:100FA000230662E080912A020E94230662E080917B
:100FB00021020E94230685E493E09093200280930F
:100FC0001F0280ED97E0A0E0B0E0809312029093C2
:100FD0001302A0931402B093150281E090E0909365
:100FE0001B0280931A0290931D0280931C0280932F
:100FF0001E0223E632E0309305022093040244EF00
:1010000051E060E070E04093F7015093F801609385
:10101000F9017093FA012FEF3FEF30930002209314
:10102000FF0130930202209301028093030280911A
:1010300042029091430297FD08C061E00E9423069E
:1010400060E0809142020E94F40581E080933D02BD
:101050000E948F0460914402693C21F12091450275
:1010600030914602615031F070E08FEF98EC0E94B1
:101070003F0C02C060E070E0F901409140025091E5
:101080004102CF01821B930B8417950740F44081E6
:10109000469FC001479F900D11249193EECF89EC9C
:1010A0008093440208E610E0F801649161110BC0DE
:1010B0000E94C305FF24F394EAEFEE2E4E01F5E003
:1010C0008F0E911C4FC08EE491E00E94E1010F5FF2
:1010D0001F4F892B49F7ECCF80913601882309F403
:1010E00059C08091360181115BC08AE00E94CB0516
:1010F000892B09F0A3C08AE00E94CB05892B09F453
:10110000A4C083E392E00E944E038111A9C08AE249
:1011100092E00E944E038111ACC080913801823070
:1011200009F4DFC00CF0B0C0882309F4C0C08130DE
:1011300009F4C7C080913D0181110AC010923C01A1
:1011400010923B0110923A0110923901F0923D0148
:10115000C0903901D0903A01C114D10409F08FC177
:101160000E94500281E292E00E944E03882309F41B
:10117000B3CFF0923601409140025091410260E0BD
:1011800070E080914502909146020E94CF0D0E942E
:101190008F04A2CF8091F501882309F4BDC1A1CFAE
:1011A0001092F5011092F601809138018130A9F07A
:1011B0001CF4882349F099CF823001F1833009F083
:1011C00094CF00E010E02BC080913701813009F00E
:1011D0008CCF80E00E946B0688CF00E010E04FEFDC
:1011E00050E060E070E0C8010E944F050E948F044B
:1011F0000F5F1F4F0C31110591F777CF00E010E022
:101200004FEF50E060E070E0C8010E944F050E947F
:101210008F040F5F1F4F0033110591F766CF4FEF1B
:1012200050E060E070E0C8010E944F050E948F040A
:101230000F5F1F4F0C33110591F757CF89E00E94C4
:10124000CB05892B09F077C156CF89E00E94CB05E9
:10125000892B09F056CF8091350181116FC151CF93
:10126000809138018F5F84300CF084E080933801E6
:101270004ECF80913801815018161CF480933801AC
:101280004CCF1092380149CF8330D1F1843009F02E
:1012900051CF61E087E00E94F40586E092E00E9471
:1012A000DE06212C312C21017EEFC72E9CC08091BF
:1012B0003701813019F480E00E946B0610923701EB
:1012C00039CF80913701811104C08CE10E94050360
:1012D00005C0823019F48CE10E946B06F092370150
:1012E00029CF80913701813021F480E30E940503EA
:1012F00005C0833019F480E30E946B0682E00EC0C3
:1013000080913701823021F48CE30E94050305C0EF
:10131000843019F48CE30E946B0683E080933701DC
:1013200009CF9C2D981B80E06FEF692E712C6F8385
:101330001886A82EB12CEF81F885CF01A0E0B0E08F
:10134000BA2FA92F982F88278827AA27BB27A5015E
:1013500060E070E08C019D01042B152B262B372BB0
:10136000C301A0E0B0E0DC0199278827AC01BD01F2
:10137000442755277727D901C801842B952BA62B05
:10138000B72B89839A83AB83BC83DE011196EC91E2
:10139000F0E0EE51FF4FE491ED938A169B06B9F70A
:1013A00049815A816B817C818D819E810E944F058C
:1013B000D3942D2D30E03E832D8320913E02309139
:1013C0003F028D819E818217930778F00E948F04DF
:1013D000FFEF3F1A4F0A5F0A2114310425E042064D
:1013E000510409F4A7CED12CE4CF8D2D90E0A0E0DC
:1013F000B0E07727662740E050E00E94530C220DB2
:10140000331DAAEFB5E00E94720CDC01CB019058AD
:10141000AF4FBF4FCD01BB2797FDB095AB2F8E3F90
:10142000E1E09E0738F48F3F910508F07ACF682FEE
:1014300080E023C08C3FF3E09F0760F48D3F42E0E3
:10144000940718F48E5F6FEF03C06CEF681B8FEF8B
:1014500090E06BCF8A3FE5E09E0769F08B3FF4E0B8
:101460009F0728F494E0980F8FEF60E05ECF2E2D59
:10147000281B822F01C080E060E09FEF56CFD6018D
:1014800012960D911C911397F8018285882309F417
:101490003FC00E945F06D80116966D937D938D9391
:1014A0009C93199758962C915897222389F150961E
:1014B0002D913D914D915C915397DC01CB01821BA5
:1014C000930BA40BB50BF80124853585468557850C
:1014D00082179307A407B507D8F0848995890097E8
:1014E00019F41286138614C00197958B848B019092
:1014F000F081E02D0190F081E02DC8010995F801FF
:1015000086819781A085B185808B918BA28BB38BCF
:10151000D601CD90DC9020CE4AE050E064E271E04C
:101520008EE491E00E944A010E94C3058BEE91E097
:101530000E94DE06D6CDF0923501DDCD409140020D
:101540005091410260E070E0809145029091460226
:101550000E94CF0D0E948F04F09234011092360148
:1015600010923501CECDCF93DF93C0E1D1E0D0937F
:10157000EC01C093EB010E94D7036BEE71E00E9477
:101580000D0CD0930702C09306020E94D70366E0B9
:1015900072E00E940D0C80914502909146020E94DB
:1015A000410D809142029091430297FD05C060E099
:1015B000DF91CF910C942306DF91CF9108950F9383
:1015C0001F93CF93DF93EC0180E191E099838883AF
:1015D0001A821B821C821D821E821F821886198617
:1015E0001C861D861E861F86188A198A1A8A1B8ADF
:1015F0008FEF9FEF9D8B8C8B1A861B86188E1A8E11
:10160000198E0E94D7038C0184E090E00E94A90CFF
:10161000DC0111961C921E921396DC93CE931297C6
:10162000D8011296ED91FC911397309739F41396E7
:101630009C938E9312978D939C9305C09183808386
:10164000F80193838283DF91CF911F910F910895C9
:10165000109251011092500188EE93E0A0E0B0E0AA
:101660008093520190935301A0935401B09355017C
:1016700086E191E090934F0180934E0185EC90E0DC
:1016800090935B0180935A0184EC90E090935D010C
:1016900080935C0120EC30E030935F0120935E0189
:1016A00081EC90E0909361018093600182EC90E086
:1016B000909363018093620186EC90E090936501C2
:1016C0008093640110926701109268011092690181
:1016D00010926A0110923D021092440210924B0245
:1016E00010924C0210924D0210924E0281E08093B3
:1016F0004A02809347021092480292E09093490276
:1017000080933C02309341022093400280EC90E0B1
:101710000E94A90C9093460280934502009761F0C5
:1017200020ECFC0111922A95E9F780E490E0909377
:101730003F0280933E0208C0109241021092400284
:1017400010923F0210923E0286E090E09093430296
:101750008093420280913D02882341F061E086E05F
:101760000E94230660E086E00E94F405EEE2F2E0CB
:10177000E491F0E0EE0FFF1FE25EFD4F8591949142
:101780009093500280934F02E0E1F2E0E491E09305
:10179000510285E08093330224EF31E0309335022B
:1017A0002093340281E08093360210923702109227
:1017B00038021092390210923A0210923B0294E0E1
:1017C00090932A0230932C0220932B0280932D02B7
:1017D00010922E0210922F021092300210923102BB
:1017E0001092320293E090932102309323022093CF
:1017F0002202809324021092250210922602109257
:101800002702109228021092290286E092E00E949C
:10181000DF0A8BEE91E00C94DF0ACF93DF93EC01AB
:1018200088819981FC01A0E0B0E0309721F122810C
:10183000338126173707D1F4109729F020813181A1
:1018400011963C932E932A813B81E217F30711F402
:10185000BB83AA838E179F0721F48081918199838E
:101860008883CF010E94410D81E006C0DF01019015
:10187000F081E02DDACF80E0DF91CF910895AA1BAF
:10188000BB1B51E107C0AA1FBB1FA617B70710F06B
:10189000A61BB70B881F991F5A95A9F7809590959D
:1018A000BC01CD010895052E97FB1EF400940E9403
:1018B0006A0C57FD07D00E94810C07FC03D04EF440
:1018C0000C946A0C50954095309521953F4F4F4FA1
:1018D0005F4F089590958095709561957F4F8F4FDC
:1018E0009F4F0895A29FB001B39FC001A39F700DA9
:1018F000811D1124911DB29F700D811D1124911D18
:101900000895A1E21A2EAA1BBB1BFD010DC0AA1F40
:10191000BB1FEE1FFF1FA217B307E407F50720F058
:10192000A21BB30BE40BF50B661F771F881F991FD3
:101930001A9469F760957095809590959B01AC011C
:10194000BD01CF010895EE0FFF1F0590F491E02D2A
:1019500009940F931F93CF93DF938230910510F476
:1019600082E090E0E0915802F091590220E030E0EE
:10197000A0E0B0E0309719F14081518102811381DC
:1019800048175907C8F08417950769F4109731F084
:1019900012960C93129713961C9327C0009358022B
:1019A0001093590222C02115310519F0421753072F
:1019B00018F49A01BD01EF01DF01F801DBCF211519
:1019C0003105F9F0281B390B2430310580F48A8168
:1019D0009B816115710521F0FB019383828304C013
:1019E0009093590280935802FE01329644C0FE0142
:1019F000E20FF31F81939193225031093983288399
:101A00003AC02091560230915702232B41F4209185
:101A10000301309104013093570220935602209124
:101A20000101309102012115310541F42DB73EB776
:101A30004091050150910601241B350BE09156029F
:101A4000F0915702E217F307A0F42E1B3F0B281763
:101A5000390778F0AC014E5F5F4F2417350748F027
:101A60004E0F5F1F509357024093560281939193FC
:101A700002C0E0E0F0E0CF01DF91CF911F910F9124
:101A80000895CF93DF93009709F481C0FC0132974A
:101A900013821282A0915802B0915902109781F4DA
:101AA00020813181820F931F20915602309157027D
:101AB0002817390751F5F0935702E093560267C093
:101AC000ED0120E030E0CE17DF0740F44A815B8172
:101AD0009E0141155105F1F0EA01F5CFD383C28390
:101AE00040815181840F951FC817D90759F4888107
:101AF0009981840F951F0296918380838A819B81AF
:101B0000938382832115310529F4F0935902E093E0
:101B100058023DC0E901FB83EA8349915991C40F02
:101B2000D51FEC17FD0761F480819181840F951F0B
:101B30000296E90199838883828193819B838A83BA
:101B4000E0E0F0E012968D919C911397009719F0C8
:101B5000FD01DC01F7CF8D919C9111979D012E5FC6
:101B60003F4F820F931F2091560230915702281742
:101B7000390769F4309729F41092590210925802EB
:101B800002C013821282B0935702A0935602DF91D3
:101B9000CF91089581E090E0F8940C94D60DDC018B
:101BA00001C06D9341505040E0F7089511E0CFE13E
:101BB000D1E004C0FE010E94A30C2196C032D107DF
:061BC000C9F7F894FFCF05
:101BC6000100005A028000001C303C40000000006A
:101BD6005A0200000000E1014A0178012E02A90123
:101BE60087019B014E4F2047414D452E2E2E000D5D
:021BF6000A00E3
:00000001FF
