:100000000C9420010C9448010C9448010C94480174
:100010000C9448010C9448010C9448010C9448013C
:100020000C9448010C9448010C9448010C9448012C
:100030000C9448010C9448010C9448010C9448011C
:100040000C94BE050C9448010C942E060C940806E2
:100050000C9448010C9448010C9448010C944801FC
:100060000C9448010C9448015F5F5F5F5F5F5F5FC6
:100070005F5F5F5F5F5F5F5F5F5F5F5F5F5F5F5F90
:100080005F5F5F5F5F5F5F0A0A2020204720652077
:100090006120722020204D2061206320682069208B
:1000A0006E206520202020200A5F5F5F5F5F5F5F1A
:1000B0005F5F5F5F5F5F5F5F5F5F5F5F5F5F5F5F50
:1000C0005F5F5F5F5F5F5F5F0A0A4D61646520622B
:1000D00079204B4420546563686E6F6C6F67790AB2
:1000E0000A00000000000000000000000000000006
:1000F00000000000000000000000010101010101FA
:1001000001010101010102020202020202020303D3
:100110000303030304040404050505050506060698
:10012000060707070808080909090A0A0A0B0B0B42
:100130000C0C0D0D0D0E0E0F0F10101111121213CD
:100140001314141515161617181819191A1B1B1C39
:100150001D1D1E1F1F20212222232425262627287D
:10016000292A2A2B2C2D2E2F303132333435363795
:1001700038393A3B3C3D3E3F404142444546474882
:10018000494B4C4D4E50515254555658595A5C5D3E
:100190005E606163646667696A6C6D6F70727375C7
:1001A00077787A7C7D7F8182848688898B8D8F9118
:1001B000929496989A9C9EA0A2A4A6A8AAACAEB02F
:1001C000B2B4B6B8BABCBFC1C3C5C7CACCCED1D30E
:1001D000D5D7DADCDFE1E3E6E8EBEDF0F2F5F7FAAC
:1001E000FCFF00000000240027002A00000000009F
:1001F000230026002900000000080002010000037F
:1002000004070000000000000000010204081020A4
:1002100040800102040810200102040810200000A0
:100220000000250028002B00040404040404040436
:100230000202020202020303030303036006140B1B
:1002400011241FBECFEFD8E0DEBFCDBF11E0A0E08C
:10025000B1E0E2E0FAE102C005900D92AE32B107E2
:10026000D9F722E0AEE2B1E001C01D92A733B20798
:10027000E1F711E0CFE1D1E004C02197FE010E9437
:10028000C10BCE31D107C9F70E9493070C94F40C2F
:100290000C9400008F929F92AF92BF92CF92DF9208
:1002A000EF92FF92CF93DF9320911F0230912002B3
:1002B0008217930708F057C04B01AA24BB24F82DDE
:1002C000C52ED62EE72EFF24AC2DE42F209125023B
:1002D000222361F0829E40011124F92D2C9D6001A2
:1002E0001124AD2D249FE0011124ED2F30912B021C
:1002F000B0912802E0902602F09027023B1308C03C
:100300009C01220F331F820F931F8E0D9F1D19C05A
:10031000880F991F880F991F8E0D9F1D472F5527F6
:1003200066277727EC01C30FD11D222349F030E067
:10033000249F7001259FF00C349FF00C11244F2D49
:10034000488320912802EC01C20FD11DF88320912F
:100350002902EC01C20FD11DA88320912A02DC01E1
:10036000A20FB11DEC93DF91CF91FF90EF90DF9042
:10037000CF90BF90AF909F908F900895833081F081
:1003800028F4813099F08230A1F008958730A9F0E7
:100390008830B9F08430D1F4809180008F7D03C023
:1003A000809180008F7780938000089584B58F7747
:1003B00002C084B58F7D84BD08958091B0008F7791
:1003C00003C08091B0008F7D8093B0000895CF93DB
:1003D000DF93282F30E0F901EA50FE4F8491F901B4
:1003E000E65FFD4FD491F901E85DFD4FC491CC2348
:1003F00091F081110E94BE01EC2FF0E0EE0FFF1F83
:10040000E451FE4FA591B491EC91ED2381E090E091
:1004100021F480E002C080E090E0DF91CF91089568
:100420001F93CF93DF93282F30E0F901EA50FE4F5E
:100430008491F901E65FFD4FD491F901E85DFD4F2C
:10044000C491CC23C1F0162F81110E94BE01EC2F64
:10045000F0E0EE0FFF1FE25EFD4FA591B4919FB754
:10046000F894111104C08C91D095D82302C0EC915E
:10047000DE2BDC939FBFDF91CF911F910895CF9327
:10048000DF9390E0FC01E65FFD4F2491FC01E85D05
:10049000FD4F8491882361F190E0880F991FFC0142
:1004A000EE51FE4FC591D491FC01E25EFD4FA59146
:1004B000B491611109C09FB7F89488812095822377
:1004C0008883EC912E230BC0623061F49FB7F894BF
:1004D0008881322F309583238883EC912E2B2C93A7
:1004E0009FBF06C08FB7F894E8812E2B28838FBF5B
:1004F000DF91CF9108953FB7F89480914201909198
:100500004301A0914401B091450126B5A89B05C0C7
:100510002F3F19F00196A11DB11D3FBFBA2FA92F82
:10052000982F8827820F911DA11DB11DBC01CD01FF
:1005300042E0660F771F881F991F4A95D1F70895EB
:100540000F931F93CF93DF93CDB7DEB729970FB6E5
:10055000F894DEBF0FBECDBF809126029091270296
:10056000892B09F4A2C00E947B0200912C021091F9
:100570002D0220912E0230912F02DC01CB01801B35
:10058000910BA20BB30B8C329140A105B10558F32E
:10059000F89480912102909122029A838983E091BC
:1005A0002602F0912702DF011196808189879091C0
:1005B0001D02E0913002F0913102809132029923C4
:1005C00009F42EC09081982B98879081809589237B
:1005D0008F838F818C8388E08B8358856F814985D9
:1005E0003B812C8189819A81508347FD252F3A9543
:1005F0002083262F39F0441F00C0000060830000D4
:1006000000C0F2CF38E04D9160830000019761F7A0
:10061000F0933102E093300249873B832C8338C04A
:100620009081982B98879081809589238F838F81E3
:100630008E8388E08D8358856F8149853D812E8129
:1006400089819A81508347FD252F00C000C02083F7
:1006500000C000C000C000C000C060830000262FA2
:100660003A9541F0441F000000C000C000C000C027
:1006700000C0E8CF38E04D9100C0608300C0019712
:1006800009F7F0933102E093300249873D832E83CE
:100690009A83898378940E947B0260932C027093E2
:1006A0002D0280932E0290932F0229960FB6F89474
:1006B000DEBF0FBECDBFDF91CF911F910F91089587
:1006C0002FB7F89460913E0170913F0180914001F5
:1006D000909141012FBF0895CF92DF92EF92FF9248
:1006E0000F931F93CF93DF936C017A018B01C0E0CE
:1006F000D0E0CE15DF0581F0D8016D918D01D601D6
:10070000ED91FC910190F081E02DC6010995892BB6
:1007100011F02196EECF7E01C701DF91CF911F919D
:100720000F91FF90EF90DF90CF900895089580E0B3
:1007300090E00895FC01538D448D252F30E0842FE7
:1007400090E0821B930B541710F0CF9608950197F9
:100750000895FC01918D828D981761F0828DDF01E3
:10076000A80FB11D5D968C91928D9F5F9F73928FA4
:1007700090E008958FEF9FEF0895FC01918D828D99
:10078000981731F0828DE80FF11D858D90E0089566
:100790008FEF9FEF0895FC01918D228D892F90E0BE
:1007A000805C9F4F821B91098F73992708958AE47B
:1007B00091E00E94CB0321E0892B09F420E0822FF5
:1007C0000895FC01848DDF01A80FB11DA35ABF4F0E
:1007D0002C91848D90E001968F739927848FA68940
:1007E000B7892C93A089B1898C91837080648C9394
:1007F000938D848D981306C00288F389E02D808143
:100800008F7D80830895EF92FF920F931F93CF9374
:10081000DF93EC0181E0888F9B8D8C8D981305C050
:10082000E889F989808185FD26C0F62E0B8D10E0C0
:100830000F5F1F4F0F731127E02E8C8DE8120CC035
:100840000FB607FCFACFE889F989808185FFF5CFDB
:10085000CE010E94E103F1CF8B8DFE01E80FF11D67
:10086000E35AFF4FF0829FB7F8940B8FEA89FB8918
:10087000808180620AC09FB7F894EE89FF89608307
:10088000E889F98980818370806480839FBF81E0DB
:1008900090E0DF91CF911F910F91FF90EF9008951D
:1008A000CF93DF93EC01888D8823C9F0EA89FB8917
:1008B000808185FD05C0A889B9898C9186FD0FC00E
:1008C0000FB607FCF5CF808185FFF2CFA889B989E3
:1008D0008C9185FFEDCFCE010E94E103E7CFDF9140
:1008E000CF91089580E090E0892B29F00E94D703F2
:1008F00081110C94000008958091330181110BC087
:1009000010923201109231011092300110922F0199
:1009100081E0809333018FE291E00895DC015996E4
:10092000ED91FC915A97309709F009940895CF9270
:10093000DF92EF92FF92CF93DF93EC01CD80DE80C8
:10094000EF80F8840E9460036C157D058E059F057D
:10095000D8F088810E94E7012B8130E0821793074D
:1009600099F00E94600329813A81DC01CB01820F5A
:10097000931FA11DB11D8D839E83AF83B8878B818B
:1009800091E089278B839C838B81DF91CF91FF90AE
:10099000EF90DF90CF900895CF93DF93EC010E940A
:1009A0009704811105C08C81882319F01C8201C035
:1009B00080E0DF91CF9108958F929F92AF92BF9286
:1009C000CF92DF92EF92FF926B017C010E94600355
:1009D0004B015C010E946003DC01CB01881999097D
:1009E000AA09BB098C159D05AE05BF0598F3FF90BC
:1009F000EF90DF90CF90BF90AF909F908F90089531
:100A0000CF92DF92EF92FF920F931F93CF93DF93DA
:100A1000082F8C3131F0803331F08C3331F0CCE160
:100A200005C0C0E303C0CCE301C0C0E40E94600382
:100A3000C0904601D0904701E0904801F0904901F4
:100A4000DC01CB018C199D09AE09BF09C15010E032
:100A5000C397A105B105E0F00E94600360934601D1
:100A6000709347018093480190934901DC2F8D2FAB
:100A70000D2E000C990B8017910754F040E050E0C8
:100A80006FEF70E00E944A010E94A002D150EFCFA8
:100A900068EE73E080E090E00E94DC048C2F0C2E66
:100AA000000C990B801791074CF040E050E0BA0120
:100AB0000E944A010E94A002C150F0CFDF91CF9165
:100AC0001F910F91FF90EF90DF90CF900895CF93FB
:100AD000DF93C82F8C3119F410922E010DC0803392
:100AE00011F48CE107C08C3311F480E303C080342F
:100AF00019F48CE380932E01D0912E01DC1790F431
:100B00004FEF50E060E070E08D2F90E00E944A01CE
:100B10000E94A00262E370E080E090E00E94DC04AA
:100B2000DF5FECCFDF91CF910895EDE1F2E04481FA
:100B3000558160E070E0818592850E94ED0C0E94F5
:100B4000A00210923C0184E080933B0160E087E0CA
:100B50000C941002009769F0FC0101900020E9F765
:100B60003197AF01481B590BBC018AE491E00C940A
:100B70006C0380E090E008950E94E80C1F920F92B1
:100B80000FB60F9211242F933F938F939F93AF93A0
:100B9000BF9380913E0190913F01A0914001B0919F
:100BA000410130913D0123E0230F2D3720F40196C0
:100BB000A11DB11D05C026E8230F0296A11DB11D80
:100BC00020933D0180933E0190933F01A09340010B
:100BD000B09341018091420190914301A091440161
:100BE000B09145010196A11DB11D809342019093E2
:100BF0004301A0934401B0934501BF91AF919F91F0
:100C00008F913F912F910F900FBE0F901F901895CD
:100C10001F920F920FB60F9211242F933F934F9371
:100C20005F936F937F938F939F93AF93BF93EF9354
:100C3000FF938AE491E00E94E103FF91EF91BF915D
:100C4000AF919F918F917F916F915F914F913F9164
:100C50002F910F900FBE0F901F9018951F920F921B
:100C60000FB60F9211242F938F939F93EF93FF93BF
:100C7000E0915A01F0915B018081E0916001F09177
:100C8000610182FD12C09081809163018F5F8F733B
:100C900020916401821751F0E0916301F0E0E65B7E
:100CA000FE4F958F8093630101C08081FF91EF918A
:100CB0009F918F912F910F900FBE0F901F901895BD
:100CC000CF93DF9310924D0110924C0188EE93E088
:100CD000A0E0B0E080934E0190934F01A0935001AB
:100CE000B09351018FE091E090934B0180934A01C2
:100CF00085EC90E0909357018093560184EC90E04E
:100D0000909359018093580120EC30E030935B01BF
:100D100020935A0181EC90E090935D0180935C01F7
:100D200082EC90E090935F0180935E0186EC90E00E
:100D300090936101809360011092630110926401AD
:100D4000109265011092660110921E021092250207
:100D500010922C0210922D0210922E0210922F024D
:100D600081E080932B02809328021092290292E066
:100D700090932A0280931D02309322022093210235
:100D800080EC90E00E94C70B90932702809326028C
:100D9000009761F020ECFC0111922A95E9F780E4BC
:100DA00090E09093200280931F0208C010922202CC
:100DB000109221021092200210921F0286E090E011
:100DC000909324028093230280911E02882341F095
:100DD00061E086E00E943F0260E086E00E9410022F
:100DE000EEE2F2E0E491F0E0EE0FFF1FE25EFD4F75
:100DF000859194919093310280933002E0E1F2E08A
:100E0000E491E093320285E08093140224EF31E014
:100E1000309316022093150281E0809317021092FE
:100E200018021092190210921A0210921B021092CC
:100E30001C0294E090930B0230930D0220930C025D
:100E400080930E0210920F02109210021092110263
:100E5000109212021092130298E0909302023093C3
:100E6000040220930302809305021092060210925E
:100E70000702109208021092090210920A0281E2FF
:100E800091E09093E8018093E7011092E9011092BC
:100E9000EA011092EB011092EC011092ED01109218
:100EA000EE011092EF011092F0011092F3011092F6
:100EB000F4011092F5011092F6011092F7011092D0
:100EC000F8011092F9011092FA018FEF9FEF9093C1
:100ED000FC018093FB011092F1011092F20110923B
:100EE000FF0110920102109200020E947C04EC01AA
:100EF00084E090E00E94C70BFC011182108227EE73
:100F000031E033832283EA81FB81309729F49B838C
:100F10008A839983888304C0918380839B838A8397
:100F2000DF91CF910895CF93DF93CDB7DEB7A79729
:100F30000FB6F894DEBF0FBECDBF789484B5826043
:100F400084BD84B5816084BD85B5826085BD85B56D
:100F5000816085BD80916E00816080936E001092EB
:100F60008100809181008260809381008091810066
:100F700081608093810080918000816080938000F7
:100F80008091B10084608093B1008091B000816055
:100F90008093B00080917A00846080937A00809181
:100FA0007A00826080937A0080917A0081608093D9
:100FB0007A0080917A00806880937A001092C10054
:100FC000E0915A01F0915B0182E08083E09156014B
:100FD000F09157011082E0915801F091590180E1A0
:100FE000808310926201E0915E01F0915F0186E0E2
:100FF0008083E0915C01F0915D018081806180835C
:10100000E0915C01F0915D01808188608083E091D6
:101010005C01F0915D01808180688083E0915C01DA
:10102000F0915D0180818F7D808361E086E00E9488
:101030003F0260E085E00E943F0260E084E00E94A1
:101040003F0260E088E00E943F0260E08AE00E9488
:101050003F0260E089E00E943F0261E087E00E9479
:101060003F0260E087E00E94100262E0809114027B
:101070000E943F0262E080910B020E943F0262E008
:10108000809102020E943F0285E995E0909301025F
:10109000809300028CED95E0A0E0B0E08093F30136
:1010A0009093F401A093F501B093F60181E090E0F4
:1010B0009093FC018093FB019093FE018093FD01CE
:1010C0008093FF01809123029091240297FD08C034
:1010D00061E00E943F0260E0809123020E941002C2
:1010E00081E080931E020E94A00260912502693C6B
:1010F00021F12091260230912702615031F070E0F9
:101100008FEF98EC0E945D0B02C060E070E0F90187
:101110004091210250912202CF01821B930B841730
:10112000950740F44081469FC001479F900D1124D0
:101130009193EECF89EC8093250208E610E0F80148
:101140006491611109C083E291E00E94AA055E01E9
:10115000F6E2AF0EB11C4BC08AE491E00E9403049A
:101160000F5F1F4F892B59F7EECF89E00E94E701EF
:10117000892B09F452C082E092E00E94970480918A
:101180000602882381F010920602409121025091BC
:10119000220260E070E080912602909127020E9476
:1011A000ED0C0E94A00284E192E00E94CC04811127
:1011B0007FC08BE092E00E94CC04811182C08091BC
:1011C0003C01823009F4A6C00CF086C0882309F4E3
:1011D00088C0813009F48FC00E947C04DC018D90AE
:1011E0009C908114910409F0DDC10E94720482E098
:1011F00092E00E94970419A2805D88A3CE01809698
:101200000E94AA0583E291E00E94AA058AE00E945A
:10121000E701892B09F0AFCFA8CF82E092E00E94CE
:101220009704882309F4A7CF06E011E04801D40110
:101230005D904D01F4018081581660F44FEF50E04D
:1012400060E070E0852D90E00E944A010E94A002BB
:101250005394F0CF6AEF70E080E090E00E94DC04ED
:10126000FAE08F16F1E09F0611F7D80114969C90D2
:101270009A94892D092C000C990BF801238130E0F8
:101280008217930744F040E050E0BA010E944A01FF
:101290000E94A002EDCF6AEF70E080E090E00E9433
:1012A000DC0401501109F1E002301F07F1F663CFB1
:1012B00080913C018F5F84300CF084E080933C018E
:1012C00078CF80913C01815018161CF480933C012A
:1012D00076CF10923C0173CF833069F18430D1F125
:1012E0007BCF80913B01813019F480E00E940005A2
:1012F00010923B0171CF80913B01811104C08CE1C0
:101300000E94670505C0823019F48CE10E94000537
:1013100081E00EC080913B01813021F480E30E9486
:10132000670505C0833019F480E30E94000582E060
:1013300080933B0151CF80913B01823021F48CE3BB
:101340000E94670505C0843019F48CE30E940005F3
:1013500083E0EECF61E087E00E94100286E291E038
:101360000E94AA0583E291E00E94AA058091F20101
:10137000882309F440C00E9460032091ED01309160
:10138000EE018B01021B130B0E9460036093ED01C1
:101390007093EE018093EF019093F001012E000C09
:1013A000220B330B8091E9019091EA01A091EB01AE
:1013B000B091EC01800F911FA21FB31F8093E90130
:1013C0009093EA01A093EB01B093EC018091F701B7
:1013D0009091F801A091F901B091FA01080F191F3D
:1013E0002A1F3B1F0093F7011093F8012093F90186
:1013F0003093FA0122C00E9460036093E901709368
:10140000EA018093EB019093EC016093ED017093FE
:10141000EE018093EF019093F0016093F7017093D8
:10142000F8018093F9019093FA018091FD01909168
:10143000FE019093FC018093FB0181E08093F10118
:101440001092F201212C312C21017EEF872E912C5C
:10145000892D90E09FA38EA320911F02309120023E
:101460008217930708F090C0892D90E0A0E0B0E0CB
:101470007727662740E050E00E94710B220D331D54
:10148000AAEFB5E00E94900BDC01CB019058AF4F62
:10149000BF4FCD01BB2797FDB095AB2F8E3FE1E04D
:1014A0009E0758F48F3F910518F4682F80E028C0FC
:1014B000982D981B80E06FEF24C08C3FF3E09F07CE
:1014C00060F48D3F42E0940718F48E5F6FEF03C025
:1014D0006CEF681B8FEF90E014C08A3FE5E09E0739
:1014E00069F08B3FF4E09F0728F494E0980F8FEFAA
:1014F00060E007C02AEF281B822F01C080E060E077
:101500009FEF692E712CE62EF12CC82ED12CC7012D
:10151000A0E0B0E0BA2FA92F982F88278827AA2704
:10152000BB27A60160E070E08C019D01042B152B08
:10153000262B372BC301A0E0B0E0DC0199278827D8
:10154000AC01BD01442755277727D901C801842B59
:10155000952BA62BB72B8AA39BA3ACA3BDA3DE011F
:101560009296EC91F0E0EE51FF4FE491ED93AA16C4
:10157000BB06B9F74AA15BA16CA17DA18EA19FA179
:101580000E944A01939464CF0E94A0024FEF341A44
:10159000440A540A2114310485E04806510409F034
:1015A00056CF1ACEF40102811381D8011A968C917C
:1015B0008823C1F10E946003F801668377838087E6
:1015C0009187208D222371F12089318942895389A5
:1015D000DC01CB01821B930BA40BB50B2485358555
:1015E0004685578582179307A407B507D8F08489E5
:1015F0009589009719F41286138614C00197958B6C
:10160000848B0190F081E02D0190F081E02DC801E4
:101610000995F80186819781A085B185808B918B92
:10162000A28BB38BD401DBCDCF93DF9381E291E02A
:101630009093E8018093E7010E947C04EC0188818B
:101640009981FC01A0E0B0E0309719F1228133814B
:10165000275E3140C9F4109729F02081318111961D
:101660003C932E932A813B81E217F30711F4BB834D
:10167000AA838E179F0721F48081918199838883A3
:10168000CF010E945F0C05C0DF010190F081E02DC9
:10169000DBCF80912602909127020E945F0C8091FF
:1016A00023029091240297FD05C060E0DF91CF9165
:1016B0000C943F02DF91CF910895AA1BBB1B51E10F
:1016C00007C0AA1FBB1FA617B70710F0A61BB70BB2
:1016D000881F991F5A95A9F780959095BC01CD0157
:1016E0000895052E97FB1EF400940E94880B57FD69
:1016F00007D00E949F0B07FC03D04EF40C94880B7C
:1017000050954095309521953F4F4F4F5F4F08952D
:1017100090958095709561957F4F8F4F9F4F08955D
:10172000A29FB001B39FC001A39F700D811D112422
:10173000911DB29F700D811D1124911D0895A1E28C
:101740001A2EAA1BBB1BFD010DC0AA1FBB1FEE1F3B
:10175000FF1FA217B307E407F50720F0A21BB30B86
:10176000E40BF50B661F771F881F991F1A9469F702
:1017700060957095809590959B01AC01BD01CF015E
:101780000895EE0FFF1F0590F491E02D09940F933B
:101790001F93CF93DF938230910510F482E090E0A5
:1017A000E0913502F091360220E030E0A0E0B0E0B8
:1017B000309719F1408151810281138148175907EF
:1017C000C8F08417950769F4109731F012960C93BE
:1017D000129713961C9327C000933502109336027C
:1017E00022C02115310519F04217530718F49A0148
:1017F000BD01EF01DF01F801DBCF21153105F9F063
:10180000281B390B2430310580F48A819B816115B6
:10181000710521F0FB019383828304C0909336020B
:1018200080933502FE01329644C0FE01E20FF31FA1
:101830008193919322503109398328833AC02091B2
:10184000330230913402232B41F420910201309174
:101850000301309334022093330220910001309130
:1018600001012115310541F42DB73EB74091040126
:1018700050910501241B350BE0913302F0913402A5
:10188000E217F307A0F42E1B3F0B2817390778F057
:10189000AC014E5F5F4F2417350748F04E0F5F1FB6
:1018A00050933402409333028193919302C0E0E05D
:1018B000F0E0CF01DF91CF911F910F910895CF9369
:1018C000DF93009709F481C0FC01329713821282E2
:1018D000A0913502B0913602109781F420813181B8
:1018E000820F931F20913302309134022817390759
:1018F00051F5F0933402E093330267C0ED0120E02C
:1019000030E0CE17DF0740F44A815B819E0141152C
:101910005105F1F0EA01F5CFD383C28340815181B3
:10192000840F951FC817D90759F488819981840FAE
:10193000951F0296918380838A819B819383828302
:101940002115310529F4F0933602E09335023DC0AC
:10195000E901FB83EA8349915991C40FD51FEC1724
:10196000FD0761F480819181840F951F0296E90142
:1019700099838883828193819B838A83E0E0F0E06E
:1019800012968D919C911397009719F0FD01DC013F
:10199000F7CF8D919C9111979D012E5F3F4F820F44
:1019A000931F20913302309134022817390769F4CC
:1019B000309729F4109236021092350202C0138239
:1019C0001282B0933402A0933302DF91CF91089535
:1019D00081E090E0F8940C94F40CDC0101C06D936C
:1019E00041505040E0F7089511E0CFE1D1E004C04C
:1019F000FE010E94C10B2196C032D107C9F7F894AD
:021A0000FFCF16
:101A0200000037028000001C303C40000000000350
:101A1200046C039A035004CB03A903BD0300000026
:0E1A2200008E040D0A00594F5520574F4E00FC
:00000001FF
