:100000000C949B000C94C3000C94C3000C94C3008C
:100010000C94C3000C94C3000C94C3000C94C30054
:100020000C94C3000C94C3000C94C3000C94C30044
:100030000C94C3000C94C3000C94C3000C94C30034
:100040000C94CF030C94C3000C943F040C9419043B
:100050000C94C3000C94C3000C94C3000C94C30014
:100060000C94C3000C94C3005F5F5F5F5F5F5F5FD2
:100070005F5F5F5F5F5F5F5F5F5F5F5F5F5F5F5F90
:100080005F5F5F5F5F5F5F0A0A2020204720652077
:100090006120722020204D2061206320682069208B
:1000A0006E206520202020200A5F5F5F5F5F5F5F1A
:1000B0005F5F5F5F5F5F5F5F5F5F5F5F5F5F5F5F50
:1000C0005F5F5F5F5F5F5F5F0A0A4D61646520622B
:1000D00079204B4420546563686E6F6C6F67790AB2
:1000E0000A0000000000240027002A000000000889
:1000F00000020100000304070000000000000000EF
:1001000001020408102040800102040810200102AE
:100110000408102000000000250028002B00040423
:10012000040404040404020202020202030303039F
:10013000030371049C0711241FBECFEFD8E0DEBF7C
:10014000CDBF11E0A0E0B1E0EEE8F2E102C0059021
:100150000D92A632B107D9F722E0A6E2B1E001C0C4
:100160001D92AD32B207E1F710E0CAE9D0E004C059
:100170002197FE010E940708C939D107C9F70E94DB
:10018000B2050C943A090C94000090E0FC01E45193
:10019000FF4F2491FC01E050FF4F3491FC01E25EDF
:1001A000FE4FE491EE23B9F1222339F1233091F08F
:1001B00038F42130A9F0223001F584B58F7D12C0CA
:1001C000273091F02830A1F02430B9F480918000DC
:1001D0008F7D03C0809180008F77809380000DC059
:1001E00084B58F7784BD09C08091B0008F7703C03C
:1001F0008091B0008F7D8093B000F0E0EE0FFF1F84
:10020000EC5EFE4FA591B4919FB7F8948C91309518
:1002100038233C939FBF08958F929F92AF92BF92D5
:10022000CF92DF92EF92FF92CF93DF934B01AA24FC
:10023000BB24F82DC52ED62EE72EFF24AC2DE42F9F
:1002400020911B02222361F0829E40011124F92D8E
:100250002C9D60011124AD2D249FE0011124ED2F70
:1002600030912102B0911E02E0901C02F0901D021C
:100270003B1308C09C01220F331F820F931F8E0D6A
:100280009F1D19C0880F991F880F991F8E0D9F1DE4
:10029000472F552766277727EC01C30FD11D22234F
:1002A00049F030E0249F7001259FF00C349FF00C42
:1002B00011244F2D488320911E02EC01C20FD11D45
:1002C000F88320911F02EC01C20FD11DA883209159
:1002D0002002DC01A20FB11DEC93DF91CF91FF90C2
:1002E000EF90DF90CF90BF90AF909F908F90089548
:1002F000CF93DF9390E0FC01E050FF4F2491FC018D
:10030000E25EFE4F8491882361F190E0880F991F8F
:10031000FC01EE51FF4FC591D491FC01EC5EFE4F04
:10032000A591B491611109C09FB7F8948881209577
:1003300082238883EC912E230BC0623061F49FB737
:10034000F8948881322F309583238883EC912E2B6B
:100350002C939FBF06C08FB7F894E8812E2B28837B
:100360008FBFDF91CF9108953FB7F894809130010E
:1003700090913101A0913201B091330126B5A89B33
:1003800005C02F3F19F00196A11DB11D3FBFBA2F27
:10039000A92F982F8827820F911DA11DB11DBC0187
:1003A000CD0142E0660F771F881F991F4A95D1F74C
:1003B00008950F931F93CF93DF93CDB7DEB729979F
:1003C0000FB6F894DEBF0FBECDBF80911C02909196
:1003D0001D02892B09F4A2C00E94B40100912202DF
:1003E000109123022091240230912502DC01CB01DF
:1003F000801B910BA20BB30B8C329140A105B10570
:1004000058F3F89480911702909118029A83898387
:10041000E0911C02F0911D02DF0111968081898715
:1004200090911302E0912602F09127028091280218
:10043000992309F42EC09081982B988790818095FC
:1004400089238F838F818C8388E08B8358856F818C
:1004500049853B812C8189819A81508347FD252FD5
:100460003A952083262F39F0441F00C00000608396
:10047000000000C0F2CF38E04D916083000001978A
:1004800061F7F0932702E093260249873B832C8390
:1004900038C09081982B98879081809589238F838D
:1004A0008F818E8388E08D8358856F8149853D815A
:1004B0002E8189819A81508347FD252F00C000C07D
:1004C000208300C000C000C000C000C060830000E6
:1004D000262F3A9541F0441F000000C000C000C024
:1004E00000C000C0E8CF38E04D9100C0608300C07C
:1004F000019709F7F0932702E093260249873D838D
:100500002E839A83898378940E94B4016093220297
:1005100070932302809324029093250229960FB6AC
:10052000F894DEBF0FBECDBFDF91CF911F910F9129
:1005300008952FB7F89460912C0170912D0180914E
:100540002E0190912F012FBF0895CF92DF92EF924D
:10055000FF920F931F93CF93DF936C017A018B016E
:10056000C0E0D0E0CE15DF0581F0D8016D918D019E
:10057000D601ED91FC910190F081E02DC601099525
:10058000892B11F02196EECF7E01C701DF91CF912B
:100590001F910F91FF90EF90DF90CF9008950895F5
:1005A00080E090E00895FC01538D448D252F30E0CC
:1005B000842F90E0821B930B541710F0CF96089570
:1005C00001970895FC01918D828D981761F0828DBD
:1005D000DF01A80FB11D5D968C91928D9F5F9F7377
:1005E000928F90E008958FEF9FEF0895FC01918D19
:1005F000828D981731F0828DE80FF11D858D90E086
:1006000008958FEF9FEF0895FC01918D228D892F22
:1006100090E0805C9F4F821B91098F73992708950A
:1006200084E391E00E94040321E0892B09F420E097
:10063000822F0895FC01848DDF01A80FB11DA35AFC
:10064000BF4F2C91848D90E001968F739927848FF2
:10065000A689B7892C93A089B1898C918370806415
:100660008C93938D848D981306C00288F389E02DB6
:1006700080818F7D80830895EF92FF920F931F9367
:10068000CF93DF93EC0181E0888F9B8D8C8D981345
:1006900005C0E889F989808185FD26C0F62E0B8D7D
:1006A00010E00F5F1F4F0F731127E02E8C8DE812A3
:1006B0000CC00FB607FCFACFE889F989808185FF65
:1006C000F5CFCE010E941A03F1CF8B8DFE01E80F0A
:1006D000F11DE35AFF4FF0829FB7F8940B8FEA8920
:1006E000FB89808180620AC09FB7F894EE89FF89F8
:1006F0006083E889F98980818370806480839FBFEB
:1007000081E090E0DF91CF911F910F91FF90EF90EA
:100710000895CF93DF93EC01888D8823C9F0EA898F
:10072000FB89808185FD05C0A889B9898C9186FDEA
:100730000FC00FB607FCF5CF808185FFF2CFA889E7
:10074000B9898C9185FFEDCFCE010E941A03E7CFC6
:10075000DF91CF91089580E090E0892B29F00E94ED
:10076000100381110C9400000895DC015996ED915D
:10077000FC915A97309709F009940895E3E1F2E06B
:100780004481558160E070E0818592850E94330943
:100790000E94D90187E00C94C5000E942E091F9287
:1007A0000F920FB60F9211242F933F938F939F9325
:1007B000AF93BF9380912C0190912D01A0912E01B8
:1007C000B0912F0130912B0123E0230F2D3720F41E
:1007D0000196A11DB11D05C026E8230F0296A11D9B
:1007E000B11D20932B0180932C0190932D01A09398
:1007F0002E01B0932F018091300190913101A09191
:100800003201B09133010196A11DB11D80933001D9
:1008100090933101A0933201B0933301BF91AF9116
:100820009F918F913F912F910F900FBE0F901F902E
:1008300018951F920F920FB60F9211242F933F938A
:100840004F935F936F937F938F939F93AF93BF93D8
:10085000EF93FF9384E391E00E941A03FF91EF91DD
:10086000BF91AF919F918F917F916F915F914F91C8
:100870003F912F910F900FBE0F901F9018951F92D0
:100880000F920FB60F9211242F938F939F93EF9394
:10089000FF93E0914401F09145018081E0914A018C
:1008A000F0914B0182FD12C0908180914D018F5FCC
:1008B0008F7320914E01821751F0E0914D01F0E0CD
:1008C000EC5CFE4F958F80934D0101C08081FF91BC
:1008D000EF919F918F912F910F900FBE0F901F90CE
:1008E0001895109237011092360188EE93E0A0E03F
:1008F000B0E08093380190933901A0933A01B0930E
:100900003B018FE091E0909335018093340185ECB9
:1009100090E0909341018093400184EC90E09093AB
:1009200043018093420120EC30E030934501209355
:10093000440181EC90E0909347018093460182EC62
:1009400090E0909349018093480186EC90E0909369
:100950004B0180934A0110924D0110924E0110926A
:100960004F01109250011092140210921B0210922B
:10097000220210922302109224021092250281E09A
:100980008093210280931E0210921F0292E09093A6
:10099000200280931302309318022093170280ECF8
:1009A00090E00E940D0890931D0280931C02009716
:1009B00061F020ECFC0111922A95E9F780E490E0C7
:1009C000909316028093150208C01092180210929C
:1009D0001702109216021092150286E090E0909392
:1009E0001A028093190280911402882339F061E081
:1009F00086E00E94780186E00E94C500E4E2F1E012
:100A0000E491F0E0EE0FFF1FEC5EFE4F85919491B4
:100A10009093270280932602E6E0F1E0E491E093D0
:100A2000280285E080930A0224EF31E030930C0223
:100A300020930B0281E080930D0210920E0210921F
:100A40000F0210921002109211021092120294E002
:100A500090930102309303022093020280930402D8
:100A600010920502109206021092070210920802DC
:100A70001092090298E09093F8013093FA012093C4
:100A8000F9018093FB011092FC011092FD0110927C
:100A9000FE011092FF011092000221E231E030933A
:100AA000DE012093DD011092DF011092E00110922F
:100AB000E1011092E2011092E3011092E401109220
:100AC000E5011092E6011092E9011092EA011092FC
:100AD000EB011092EC011092ED011092EE011092D8
:100AE000EF011092F0012FEF3FEF3093F2012093CE
:100AF000F1011092E7011092E8011092F5011092B5
:100B0000F7011092F6019091D50191110AC010924F
:100B1000D4011092D3011092D2011092D10180938E
:100B2000D50184E090E00E940D08FC011182108242
:100B30002DED31E033832283E091D301F091D40194
:100B4000309749F49093D4018093D3019093D201CC
:100B50008093D1010895918380839093D4018093F1
:100B6000D3010895789484B5826084BD84B5816092
:100B700084BD85B5826085BD85B5816085BD809168
:100B80006E00816080936E001092810080918100E0
:100B900082608093810080918100816080938100D8
:100BA000809180008160809380008091B10084609A
:100BB0008093B1008091B00081608093B0008091FB
:100BC0007A00846080937A0080917A0082608093BA
:100BD0007A0080917A00816080937A0080917A0017
:100BE000806880937A001092C100E0914401F091F6
:100BF000450182E08083E0914001F0914101108243
:100C0000E0914201F091430180E1808310924C0118
:100C1000E0914801F091490186E08083E09146012E
:100C2000F0914701808180618083E0914601F091DD
:100C30004701808188608083E0914601F0914701FF
:100C4000808180688083E0914601F0914701808136
:100C50008F7D808361E086E00E94780160E085E01E
:100C60000E94780160E084E00E94780160E088E002
:100C70000E94780160E08AE00E94780160E089E0EB
:100C80000E94780161E087E00E94780187E00E947D
:100C9000C50062E080910A020E94780162E08091C2
:100CA00001020E94780162E08091F8010E947801BF
:100CB0008EEB93E09093F7018093F60180ED97E03F
:100CC000A0E0B0E08093E9019093EA01A093EB01EA
:100CD000B093EC0181E090E09093F2018093F101F8
:100CE0009093F4018093F3018093F50180911902B0
:100CF00090911A0297FD07C061E00E9478018091EF
:100D000019020E94C50081E0809314020E94D9015B
:100D100060911B02693C21F120911C0230911D025F
:100D2000615031F070E08FEF98EC0E94F30702C041
:100D300060E070E0F9014091170250911802CF0174
:100D4000821B930B8417950740F44081469FC00196
:100D5000479F900D11249193EECF89EC80931B0255
:100D6000C8E6D0E0FE01649161110FC042E050E09E
:100D700063E271E084E391E00E94A50282E0E82E44
:100D800081E0F82EDD24D3945CC084E391E00E94DE
:100D90003C032196892B31F7E9CF0E949902609399
:100DA0002701709328018093290190932A01E091F3
:100DB0002601F0E0EA5FFE4FC081D0912601ED2FC1
:100DC000F0E0EA5FFE4F8181C81708F451C0C6E029
:100DD000D1E01C811150812F012E000C990B2B8129
:100DE00030E0821793070CF059C00E9499024B0122
:100DF0005C010E949902DC01CB0188199909AA09BA
:100E0000BB098A3F9105A105B10598F32197EC161E
:100E1000FD06F9F68091D50181110AC01092D40126
:100E20001092D3011092D2011092D101D092D5012B
:100E30000091D1011091D20101151105F1F50E9427
:100E4000AB030E9499020091270110912801209183
:100E5000290130912A01DC01CB01801B910BA20BEF
:100E6000B30B8B3F9105A105B10508F4B0CF95CF29
:100E70008C2F90E020911502309116028217930773
:100E800030F44FEF50E060E070E00E940C010E94EF
:100E9000D901DF5FD0932601CF5F8FCF209115025C
:100EA000309116028217930728F440E050E0BA010F
:100EB0000E940C010E94D9018DCFF801C281D3811B
:100EC0008A858823A9F10E9499026E837F8388878F
:100ED0009987288D222361F188889988AA88BB8800
:100EE000DC01CB0188199909AA09BB098C849D846E
:100EF000AE84BF8488159905AA05BB05C8F08C8906
:100F00009D89009719F41A861B8612C001979D8B44
:100F10008C8BE881F9810190F081E02DCE0109955B
:100F20008E819F81A885B985888B998BAA8BBB8B75
:100F3000F8010081118180CF81E291E09093DE0180
:100F40008093DD018091D50181110BC01092D401F5
:100F50001092D3011092D2011092D10181E08093BE
:100F6000D5018091D1019091D201FC01A0E0B0E0C7
:100F7000309749F1228133812D5D3140F9F410978A
:100F800029F02081318111963C932E932091D30139
:100F90003091D401E217F30721F4B093D401A09368
:100FA000D3018E179F0731F4808191819093D201F4
:100FB0008093D101CF010E94A50805C0DF010190F7
:100FC000F081E02DD5CF80911C0290911D020E94EE
:100FD000A5088091190290911A0297FD03C060E064
:100FE0000C9478010895AA1BBB1B51E107C0AA1FEE
:100FF000BB1FA617B70710F0A61BB70B881F991FBA
:101000005A95A9F780959095BC01CD010895EE0FF2
:10101000FF1F0590F491E02D09940F931F93CF9338
:10102000DF938230910510F482E090E0E0912B0292
:10103000F0912C0220E030E0A0E0B0E0309719F110
:10104000408151810281138148175907C8F08417E4
:10105000950769F4109731F012960C931297139636
:101060001C9327C000932B0210932C0222C0211541
:10107000310519F04217530718F49A01BD01EF0129
:10108000DF01F801DBCF21153105F9F0281B390B01
:101090002430310580F48A819B816115710521F02E
:1010A000FB019383828304C090932C0280932B02D4
:1010B000FE01329644C0FE01E20FF31F819391932B
:1010C00022503109398328833AC020912902309176
:1010D0002A02232B41F42091020130910301309325
:1010E0002A0220932902209100013091010121154B
:1010F000310541F42DB73EB74091040150910501EF
:10110000241B350BE0912902F0912A02E217F30724
:10111000A0F42E1B3F0B2817390778F0AC014E5F67
:101120005F4F2417350748F04E0F5F1F50932A0278
:10113000409329028193919302C0E0E0F0E0CF0157
:10114000DF91CF911F910F910895CF93DF93009777
:1011500009F481C0FC01329713821282A0912B0204
:10116000B0912C02109781F420813181820F931F5E
:101170002091290230912A022817390751F5F0935E
:101180002A02E093290267C0ED0120E030E0CE178B
:10119000DF0740F44A815B819E0141155105F1F062
:1011A000EA01F5CFD383C28340815181840F951F1B
:1011B000C817D90759F488819981840F951F029621
:1011C000918380838A819B8193838283211531055A
:1011D00029F4F0932C02E0932B023DC0E901FB833C
:1011E000EA8349915991C40FD51FEC17FD0761F4AB
:1011F00080819181840F951F0296E90199838883EC
:10120000828193819B838A83E0E0F0E012968D9146
:101210009C911397009719F0FD01DC01F7CF8D9198
:101220009C9111979D012E5F3F4F820F931F20913C
:10123000290230912A022817390769F4309729F4D6
:1012400010922C0210922B0202C013821282B093D1
:101250002A02A0932902DF91CF91089581E090E0C6
:10126000F8940C943A09DC0101C06D934150504050
:10127000E0F7089510E0CAE9D0E004C0FE010E9442
:0E12800007082196CB39D107C9F7F894FFCFA4
:10128E0000002D028000001C303C40000000003C9D
:10129E0003A502D30289030403E202F60200000052
:0612AE0000B5030D0A006B
:00000001FF
